{
  "contractName": "CO2Token",
  "abi": [
    {
      "anonymous": false,
      "inputs": [
        {
          "indexed": true,
          "internalType": "address",
          "name": "owner",
          "type": "address"
        },
        {
          "indexed": true,
          "internalType": "address",
          "name": "spender",
          "type": "address"
        },
        {
          "indexed": false,
          "internalType": "uint256",
          "name": "value",
          "type": "uint256"
        }
      ],
      "name": "Approval",
      "type": "event"
    },
    {
      "anonymous": false,
      "inputs": [
        {
          "indexed": true,
          "internalType": "address",
          "name": "from",
          "type": "address"
        },
        {
          "indexed": false,
          "internalType": "uint256",
          "name": "amount",
          "type": "uint256"
        }
      ],
      "name": "TokensBurned",
      "type": "event"
    },
    {
      "anonymous": false,
      "inputs": [
        {
          "indexed": true,
          "internalType": "address",
          "name": "to",
          "type": "address"
        },
        {
          "indexed": false,
          "internalType": "uint256",
          "name": "amount",
          "type": "uint256"
        }
      ],
      "name": "TokensMinted",
      "type": "event"
    },
    {
      "anonymous": false,
      "inputs": [
        {
          "indexed": true,
          "internalType": "address",
          "name": "from",
          "type": "address"
        },
        {
          "indexed": true,
          "internalType": "address",
          "name": "to",
          "type": "address"
        },
        {
          "indexed": false,
          "internalType": "uint256",
          "name": "value",
          "type": "uint256"
        }
      ],
      "name": "Transfer",
      "type": "event"
    },
    {
      "inputs": [],
      "name": "decimals",
      "outputs": [
        {
          "internalType": "uint8",
          "name": "",
          "type": "uint8"
        }
      ],
      "stateMutability": "view",
      "type": "function"
    },
    {
      "inputs": [],
      "name": "name",
      "outputs": [
        {
          "internalType": "string",
          "name": "",
          "type": "string"
        }
      ],
      "stateMutability": "view",
      "type": "function"
    },
    {
      "inputs": [],
      "name": "symbol",
      "outputs": [
        {
          "internalType": "string",
          "name": "",
          "type": "string"
        }
      ],
      "stateMutability": "view",
      "type": "function"
    },
    {
      "inputs": [],
      "name": "totalSupply",
      "outputs": [
        {
          "internalType": "uint256",
          "name": "",
          "type": "uint256"
        }
      ],
      "stateMutability": "view",
      "type": "function"
    },
    {
      "inputs": [
        {
          "internalType": "address",
          "name": "account",
          "type": "address"
        }
      ],
      "name": "balanceOf",
      "outputs": [
        {
          "internalType": "uint256",
          "name": "",
          "type": "uint256"
        }
      ],
      "stateMutability": "view",
      "type": "function"
    },
    {
      "inputs": [
        {
          "internalType": "address",
          "name": "recipient",
          "type": "address"
        },
        {
          "internalType": "uint256",
          "name": "amount",
          "type": "uint256"
        }
      ],
      "name": "transfer",
      "outputs": [
        {
          "internalType": "bool",
          "name": "",
          "type": "bool"
        }
      ],
      "stateMutability": "nonpayable",
      "type": "function"
    },
    {
      "inputs": [
        {
          "internalType": "address",
          "name": "owner",
          "type": "address"
        },
        {
          "internalType": "address",
          "name": "spender",
          "type": "address"
        }
      ],
      "name": "allowance",
      "outputs": [
        {
          "internalType": "uint256",
          "name": "",
          "type": "uint256"
        }
      ],
      "stateMutability": "view",
      "type": "function"
    },
    {
      "inputs": [
        {
          "internalType": "address",
          "name": "spender",
          "type": "address"
        },
        {
          "internalType": "uint256",
          "name": "amount",
          "type": "uint256"
        }
      ],
      "name": "approve",
      "outputs": [
        {
          "internalType": "bool",
          "name": "",
          "type": "bool"
        }
      ],
      "stateMutability": "nonpayable",
      "type": "function"
    },
    {
      "inputs": [
        {
          "internalType": "address",
          "name": "sender",
          "type": "address"
        },
        {
          "internalType": "address",
          "name": "recipient",
          "type": "address"
        },
        {
          "internalType": "uint256",
          "name": "amount",
          "type": "uint256"
        }
      ],
      "name": "transferFrom",
      "outputs": [
        {
          "internalType": "bool",
          "name": "",
          "type": "bool"
        }
      ],
      "stateMutability": "nonpayable",
      "type": "function"
    },
    {
      "inputs": [
        {
          "internalType": "uint256",
          "name": "amount",
          "type": "uint256"
        }
      ],
      "name": "rewardCompensatoryAction",
      "outputs": [],
      "stateMutability": "nonpayable",
      "type": "function"
    },
    {
      "inputs": [
        {
          "internalType": "uint256",
          "name": "consumedCO2",
          "type": "uint256"
        },
        {
          "internalType": "uint256",
          "name": "thresholdCO2",
          "type": "uint256"
        }
      ],
      "name": "processOperationCO2",
      "outputs": [
        {
          "internalType": "bool",
          "name": "",
          "type": "bool"
        }
      ],
      "stateMutability": "nonpayable",
      "type": "function"
    }
  ],
  "bytecode": "0x60806040526040518060400160405280600981526020017f434f3220546f6b656e00000000000000000000000000000000000000000000008152505f908162000049919062000323565b506040518060400160405280600381526020017f434f3200000000000000000000000000000000000000000000000000000000008152506001908162000090919062000323565b50601260025f6101000a81548160ff021916908360ff160217905550348015620000b8575f80fd5b5062000407565b5f81519050919050565b7f4e487b71000000000000000000000000000000000000000000000000000000005f52604160045260245ffd5b7f4e487b71000000000000000000000000000000000000000000000000000000005f52602260045260245ffd5b5f60028204905060018216806200013b57607f821691505b602082108103620001515762000150620000f6565b5b50919050565b5f819050815f5260205f209050919050565b5f6020601f8301049050919050565b5f82821b905092915050565b5f60088302620001b57fffffffffffffffffffffffffffffffffffffffffffffffffffffffffffffffff8262000178565b620001c1868362000178565b95508019841693508086168417925050509392505050565b5f819050919050565b5f819050919050565b5f6200020b62000205620001ff84620001d9565b620001e2565b620001d9565b9050919050565b5f819050919050565b6200022683620001eb565b6200023e620002358262000212565b84845462000184565b825550505050565b5f90565b6200025462000246565b620002618184846200021b565b505050565b5b8181101562000288576200027c5f826200024a565b60018101905062000267565b5050565b601f821115620002d757620002a18162000157565b620002ac8462000169565b81016020851015620002bc578190505b620002d4620002cb8562000169565b83018262000266565b50505b505050565b5f82821c905092915050565b5f620002f95f1984600802620002dc565b1980831691505092915050565b5f620003138383620002e8565b9150826002028217905092915050565b6200032e82620000bf565b67ffffffffffffffff8111156200034a5762000349620000c9565b5b62000356825462000123565b620003638282856200028c565b5f60209050601f83116001811462000399575f841562000384578287015190505b62000390858262000306565b865550620003ff565b601f198416620003a98662000157565b5f5b82811015620003d257848901518255600182019150602085019450602081019050620003ab565b86831015620003f25784890151620003ee601f891682620002e8565b8355505b6001600288020188555050505b505050505050565b6117b880620004155f395ff3fe608060405234801561000f575f80fd5b50600436106100a7575f3560e01c806343d23e051161006f57806343d23e05146101655780634f48b7071461018157806370a08231146101b157806395d89b41146101e1578063a9059cbb146101ff578063dd62ed3e1461022f576100a7565b806306fdde03146100ab578063095ea7b3146100c957806318160ddd146100f957806323b872dd14610117578063313ce56714610147575b5f80fd5b6100b361025f565b6040516100c09190610e6a565b60405180910390f35b6100e360048036038101906100de9190610f1b565b6102ea565b6040516100f09190610f73565b60405180910390f35b610101610300565b60405161010e9190610f9b565b60405180910390f35b610131600480360381019061012c9190610fb4565b610332565b60405161013e9190610f73565b60405180910390f35b61014f6103d7565b60405161015c919061101f565b60405180910390f35b61017f600480360381019061017a9190611038565b6103e9565b005b61019b60048036038101906101969190611063565b6103f6565b6040516101a89190610f73565b60405180910390f35b6101cb60048036038101906101c691906110a1565b6104d7565b6040516101d89190610f9b565b60405180910390f35b6101e961051d565b6040516101f69190610e6a565b60405180910390f35b61021960048036038101906102149190610f1b565b6105a9565b6040516102269190610f73565b60405180910390f35b610249600480360381019061024491906110cc565b6105bf565b6040516102569190610f9b565b60405180910390f35b5f805461026b90611137565b80601f016020809104026020016040519081016040528092919081815260200182805461029790611137565b80156102e25780601f106102b9576101008083540402835291602001916102e2565b820191905f5260205f20905b8154815290600101906020018083116102c557829003601f168201915b505050505081565b5f6102f6338484610641565b6001905092915050565b5f60025f9054906101000a900460ff1660ff16600a61031f91906112c3565b620f424061032d919061130d565b905090565b5f61033e848484610804565b6103cc84338460045f8973ffffffffffffffffffffffffffffffffffffffff1673ffffffffffffffffffffffffffffffffffffffff1681526020019081526020015f205f3373ffffffffffffffffffffffffffffffffffffffff1673ffffffffffffffffffffffffffffffffffffffff1681526020019081526020015f20546103c7919061134e565b610641565b600190509392505050565b60025f9054906101000a900460ff1681565b6103f33382610a70565b50565b5f81831015610422575f838361040c919061134e565b90506104183382610a70565b60019150506104d1565b818311156104cd575f8284610437919061134e565b90508060035f3373ffffffffffffffffffffffffffffffffffffffff1673ffffffffffffffffffffffffffffffffffffffff1681526020019081526020015f205410156104b9576040517f08c379a00000000000000000000000000000000000000000000000000000000081526004016104b0906113f1565b60405180910390fd5b6104c33382610be8565b60019150506104d1565b5f90505b92915050565b5f60035f8373ffffffffffffffffffffffffffffffffffffffff1673ffffffffffffffffffffffffffffffffffffffff1681526020019081526020015f20549050919050565b6001805461052a90611137565b80601f016020809104026020016040519081016040528092919081815260200182805461055690611137565b80156105a15780601f10610578576101008083540402835291602001916105a1565b820191905f5260205f20905b81548152906001019060200180831161058457829003601f168201915b505050505081565b5f6105b5338484610804565b6001905092915050565b5f60045f8473ffffffffffffffffffffffffffffffffffffffff1673ffffffffffffffffffffffffffffffffffffffff1681526020019081526020015f205f8373ffffffffffffffffffffffffffffffffffffffff1673ffffffffffffffffffffffffffffffffffffffff1681526020019081526020015f2054905092915050565b5f73ffffffffffffffffffffffffffffffffffffffff168373ffffffffffffffffffffffffffffffffffffffff16036106af576040517f08c379a00000000000000000000000000000000000000000000000000000000081526004016106a690611459565b60405180910390fd5b5f73ffffffffffffffffffffffffffffffffffffffff168273ffffffffffffffffffffffffffffffffffffffff160361071d576040517f08c379a0000000000000000000000000000000000000000000000000000000008152600401610714906114c1565b60405180910390fd5b8060045f8573ffffffffffffffffffffffffffffffffffffffff1673ffffffffffffffffffffffffffffffffffffffff1681526020019081526020015f205f8473ffffffffffffffffffffffffffffffffffffffff1673ffffffffffffffffffffffffffffffffffffffff1681526020019081526020015f20819055508173ffffffffffffffffffffffffffffffffffffffff168373ffffffffffffffffffffffffffffffffffffffff167f8c5be1e5ebec7d5bd14f71427d1e84f3dd0314c0f7b2291e5b200ac8c7c3b925836040516107f79190610f9b565b60405180910390a3505050565b5f73ffffffffffffffffffffffffffffffffffffffff168373ffffffffffffffffffffffffffffffffffffffff1603610872576040517f08c379a000000000000000000000000000000000000000000000000000000000815260040161086990611529565b60405180910390fd5b5f73ffffffffffffffffffffffffffffffffffffffff168273ffffffffffffffffffffffffffffffffffffffff16036108e0576040517f08c379a00000000000000000000000000000000000000000000000000000000081526004016108d790611591565b60405180910390fd5b8060035f8573ffffffffffffffffffffffffffffffffffffffff1673ffffffffffffffffffffffffffffffffffffffff1681526020019081526020015f20541015610960576040517f08c379a0000000000000000000000000000000000000000000000000000000008152600401610957906115f9565b60405180910390fd5b8060035f8573ffffffffffffffffffffffffffffffffffffffff1673ffffffffffffffffffffffffffffffffffffffff1681526020019081526020015f205f8282546109ac919061134e565b925050819055508060035f8473ffffffffffffffffffffffffffffffffffffffff1673ffffffffffffffffffffffffffffffffffffffff1681526020019081526020015f205f8282546109ff9190611617565b925050819055508173ffffffffffffffffffffffffffffffffffffffff168373ffffffffffffffffffffffffffffffffffffffff167fddf252ad1be2c89b69c2b068fc378daa952ba7f163c4a11628f55a4df523b3ef83604051610a639190610f9b565b60405180910390a3505050565b5f73ffffffffffffffffffffffffffffffffffffffff168273ffffffffffffffffffffffffffffffffffffffff1603610ade576040517f08c379a0000000000000000000000000000000000000000000000000000000008152600401610ad590611694565b60405180910390fd5b8060035f8473ffffffffffffffffffffffffffffffffffffffff1673ffffffffffffffffffffffffffffffffffffffff1681526020019081526020015f205f828254610b2a9190611617565b925050819055508173ffffffffffffffffffffffffffffffffffffffff167f3f2c9d57c068687834f0de942a9babb9e5acab57d516d3480a3c16ee165a427382604051610b779190610f9b565b60405180910390a28173ffffffffffffffffffffffffffffffffffffffff165f73ffffffffffffffffffffffffffffffffffffffff167fddf252ad1be2c89b69c2b068fc378daa952ba7f163c4a11628f55a4df523b3ef83604051610bdc9190610f9b565b60405180910390a35050565b5f73ffffffffffffffffffffffffffffffffffffffff168273ffffffffffffffffffffffffffffffffffffffff1603610c56576040517f08c379a0000000000000000000000000000000000000000000000000000000008152600401610c4d906116fc565b60405180910390fd5b8060035f8473ffffffffffffffffffffffffffffffffffffffff1673ffffffffffffffffffffffffffffffffffffffff1681526020019081526020015f20541015610cd6576040517f08c379a0000000000000000000000000000000000000000000000000000000008152600401610ccd90611764565b60405180910390fd5b8060035f8473ffffffffffffffffffffffffffffffffffffffff1673ffffffffffffffffffffffffffffffffffffffff1681526020019081526020015f205f828254610d22919061134e565b925050819055508173ffffffffffffffffffffffffffffffffffffffff167ffd38818f5291bf0bb3a2a48aadc06ba8757865d1dabd804585338aab3009dcb682604051610d6f9190610f9b565b60405180910390a25f73ffffffffffffffffffffffffffffffffffffffff168273ffffffffffffffffffffffffffffffffffffffff167fddf252ad1be2c89b69c2b068fc378daa952ba7f163c4a11628f55a4df523b3ef83604051610dd49190610f9b565b60405180910390a35050565b5f81519050919050565b5f82825260208201905092915050565b5f5b83811015610e17578082015181840152602081019050610dfc565b5f8484015250505050565b5f601f19601f8301169050919050565b5f610e3c82610de0565b610e468185610dea565b9350610e56818560208601610dfa565b610e5f81610e22565b840191505092915050565b5f6020820190508181035f830152610e828184610e32565b905092915050565b5f80fd5b5f73ffffffffffffffffffffffffffffffffffffffff82169050919050565b5f610eb782610e8e565b9050919050565b610ec781610ead565b8114610ed1575f80fd5b50565b5f81359050610ee281610ebe565b92915050565b5f819050919050565b610efa81610ee8565b8114610f04575f80fd5b50565b5f81359050610f1581610ef1565b92915050565b5f8060408385031215610f3157610f30610e8a565b5b5f610f3e85828601610ed4565b9250506020610f4f85828601610f07565b9150509250929050565b5f8115159050919050565b610f6d81610f59565b82525050565b5f602082019050610f865f830184610f64565b92915050565b610f9581610ee8565b82525050565b5f602082019050610fae5f830184610f8c565b92915050565b5f805f60608486031215610fcb57610fca610e8a565b5b5f610fd886828701610ed4565b9350506020610fe986828701610ed4565b9250506040610ffa86828701610f07565b9150509250925092565b5f60ff82169050919050565b61101981611004565b82525050565b5f6020820190506110325f830184611010565b92915050565b5f6020828403121561104d5761104c610e8a565b5b5f61105a84828501610f07565b91505092915050565b5f806040838503121561107957611078610e8a565b5b5f61108685828601610f07565b925050602061109785828601610f07565b9150509250929050565b5f602082840312156110b6576110b5610e8a565b5b5f6110c384828501610ed4565b91505092915050565b5f80604083850312156110e2576110e1610e8a565b5b5f6110ef85828601610ed4565b925050602061110085828601610ed4565b9150509250929050565b7f4e487b71000000000000000000000000000000000000000000000000000000005f52602260045260245ffd5b5f600282049050600182168061114e57607f821691505b6020821081036111615761116061110a565b5b50919050565b7f4e487b71000000000000000000000000000000000000000000000000000000005f52601160045260245ffd5b5f8160011c9050919050565b5f808291508390505b60018511156111e9578086048111156111c5576111c4611167565b5b60018516156111d45780820291505b80810290506111e285611194565b94506111a9565b94509492505050565b5f8261120157600190506112bc565b8161120e575f90506112bc565b8160018114611224576002811461122e5761125d565b60019150506112bc565b60ff8411156112405761123f611167565b5b8360020a91508482111561125757611256611167565b5b506112bc565b5060208310610133831016604e8410600b84101617156112925782820a90508381111561128d5761128c611167565b5b6112bc565b61129f84848460016111a0565b925090508184048111156112b6576112b5611167565b5b81810290505b9392505050565b5f6112cd82610ee8565b91506112d883610ee8565b92506113057fffffffffffffffffffffffffffffffffffffffffffffffffffffffffffffffff84846111f2565b905092915050565b5f61131782610ee8565b915061132283610ee8565b925082820261133081610ee8565b9150828204841483151761134757611346611167565b5b5092915050565b5f61135882610ee8565b915061136383610ee8565b925082820390508181111561137b5761137a611167565b5b92915050565b7f496e73756666696369656e7420746f6b656e7320666f7220434f322070656e615f8201527f6c74790000000000000000000000000000000000000000000000000000000000602082015250565b5f6113db602383610dea565b91506113e682611381565b604082019050919050565b5f6020820190508181035f830152611408816113cf565b9050919050565b7f417070726f76652066726f6d207a65726f2061646472657373000000000000005f82015250565b5f611443601983610dea565b915061144e8261140f565b602082019050919050565b5f6020820190508181035f83015261147081611437565b9050919050565b7f417070726f766520746f207a65726f20616464726573730000000000000000005f82015250565b5f6114ab601783610dea565b91506114b682611477565b602082019050919050565b5f6020820190508181035f8301526114d88161149f565b9050919050565b7f5472616e736665722066726f6d207a65726f20616464726573730000000000005f82015250565b5f611513601a83610dea565b915061151e826114df565b602082019050919050565b5f6020820190508181035f83015261154081611507565b9050919050565b7f5472616e7366657220746f207a65726f206164647265737300000000000000005f82015250565b5f61157b601883610dea565b915061158682611547565b602082019050919050565b5f6020820190508181035f8301526115a88161156f565b9050919050565b7f496e73756666696369656e742062616c616e63650000000000000000000000005f82015250565b5f6115e3601483610dea565b91506115ee826115af565b602082019050919050565b5f6020820190508181035f830152611610816115d7565b9050919050565b5f61162182610ee8565b915061162c83610ee8565b925082820190508082111561164457611643611167565b5b92915050565b7f4d696e7420746f207a65726f20616464726573730000000000000000000000005f82015250565b5f61167e601483610dea565b91506116898261164a565b602082019050919050565b5f6020820190508181035f8301526116ab81611672565b9050919050565b7f4275726e2066726f6d207a65726f2061646472657373000000000000000000005f82015250565b5f6116e6601683610dea565b91506116f1826116b2565b602082019050919050565b5f6020820190508181035f830152611713816116da565b9050919050565b7f4275726e20616d6f756e7420657863656564732062616c616e636500000000005f82015250565b5f61174e601b83610dea565b91506117598261171a565b602082019050919050565b5f6020820190508181035f83015261177b81611742565b905091905056fea2646970667358221220a127157ade95bf5a39e7679b7ab6d2d06c338ebde54b7788d5a111282ecb5aee64736f6c63430008140033",
  "immutableReferences": {},
  "source": "// SPDX-License-Identifier: MIT\npragma solidity ^0.8.0;\n\ncontract CO2Token {\n    string public name = \"CO2 Token\";\n    string public symbol = \"CO2\";\n    uint8 public decimals = 18;\n    \n    mapping(address => uint256) private _balances;\n    mapping(address => mapping(address => uint256)) private _allowances;\n    \n    event Transfer(address indexed from, address indexed to, uint256 value);\n    event Approval(address indexed owner, address indexed spender, uint256 value);\n    event TokensMinted(address indexed to, uint256 amount);\n    event TokensBurned(address indexed from, uint256 amount);\n    \n    function totalSupply() public view returns (uint256) {\n        return 1000000 * 10**uint256(decimals); // Initial supply of 1M tokens\n    }\n    \n    function balanceOf(address account) public view returns (uint256) {\n        return _balances[account];\n    }\n    \n    function transfer(address recipient, uint256 amount) public returns (bool) {\n        _transfer(msg.sender, recipient, amount);\n        return true;\n    }\n    \n    function allowance(address owner, address spender) public view returns (uint256) {\n        return _allowances[owner][spender];\n    }\n    \n    function approve(address spender, uint256 amount) public returns (bool) {\n        _approve(msg.sender, spender, amount);\n        return true;\n    }\n    \n    function transferFrom(address sender, address recipient, uint256 amount) public returns (bool) {\n        _transfer(sender, recipient, amount);\n        _approve(sender, msg.sender, _allowances[sender][msg.sender] - amount);\n        return true;\n    }\n    \n    function rewardCompensatoryAction(uint256 amount) public {\n        _mint(msg.sender, amount);\n    }\n    \n    function processOperationCO2(uint256 consumedCO2, uint256 thresholdCO2) public returns (bool) {\n        if (consumedCO2 < thresholdCO2) {\n            uint256 rewardAmount = thresholdCO2 - consumedCO2;\n            _mint(msg.sender, rewardAmount);\n            return true;\n        } else if (consumedCO2 > thresholdCO2) {\n            uint256 penaltyAmount = consumedCO2 - thresholdCO2;\n            require(_balances[msg.sender] >= penaltyAmount, \"Insufficient tokens for CO2 penalty\");\n            _burn(msg.sender, penaltyAmount);\n            return true;\n        }\n        return false;\n    }\n    \n    function _transfer(address sender, address recipient, uint256 amount) internal {\n        require(sender != address(0), \"Transfer from zero address\");\n        require(recipient != address(0), \"Transfer to zero address\");\n        require(_balances[sender] >= amount, \"Insufficient balance\");\n        \n        _balances[sender] -= amount;\n        _balances[recipient] += amount;\n        emit Transfer(sender, recipient, amount);\n    }\n    \n    function _approve(address owner, address spender, uint256 amount) internal {\n        require(owner != address(0), \"Approve from zero address\");\n        require(spender != address(0), \"Approve to zero address\");\n        \n        _allowances[owner][spender] = amount;\n        emit Approval(owner, spender, amount);\n    }\n    \n    function _mint(address account, uint256 amount) internal {\n        require(account != address(0), \"Mint to zero address\");\n        \n        _balances[account] += amount;\n        emit TokensMinted(account, amount);\n        emit Transfer(address(0), account, amount);\n    }\n    \n    function _burn(address account, uint256 amount) internal {\n        require(account != address(0), \"Burn from zero address\");\n        require(_balances[account] >= amount, \"Burn amount exceeds balance\");\n        \n        _balances[account] -= amount;\n        emit TokensBurned(account, amount);\n        emit Transfer(account, address(0), amount);\n    }\n}",
  "sourcePath": "/app/contracts/CO2Token.sol",
  "compiler": {
    "name": "solc",
    "version": "0.8.20+commit.a1b79de6.Emscripten.clang"
  },
  "schemaVersion": "3.4.16",
  "updatedAt": "2025-05-16T10:12:52.409Z",
  "devdoc": {
    "kind": "dev",
    "methods": {},
    "version": 1
  },
  "userdoc": {
    "kind": "user",
    "methods": {},
    "version": 1
  }
}