{
  "contractName": "Counter",
  "abi": [
    {
      "inputs": [],
      "stateMutability": "nonpayable",
      "type": "constructor"
    },
    {
      "inputs": [
        {
          "internalType": "address",
          "name": "owner",
          "type": "address"
        }
      ],
      "name": "OwnableInvalidOwner",
      "type": "error"
    },
    {
      "inputs": [
        {
          "internalType": "address",
          "name": "account",
          "type": "address"
        }
      ],
      "name": "OwnableUnauthorizedAccount",
      "type": "error"
    },
    {
      "anonymous": false,
      "inputs": [
        {
          "indexed": false,
          "internalType": "uint256",
          "name": "newCount",
          "type": "uint256"
        }
      ],
      "name": "Incremented",
      "type": "event"
    },
    {
      "anonymous": false,
      "inputs": [
        {
          "indexed": true,
          "internalType": "address",
          "name": "previousOwner",
          "type": "address"
        },
        {
          "indexed": true,
          "internalType": "address",
          "name": "newOwner",
          "type": "address"
        }
      ],
      "name": "OwnershipTransferred",
      "type": "event"
    },
    {
      "inputs": [],
      "name": "owner",
      "outputs": [
        {
          "internalType": "address",
          "name": "",
          "type": "address"
        }
      ],
      "stateMutability": "view",
      "type": "function"
    },
    {
      "inputs": [],
      "name": "renounceOwnership",
      "outputs": [],
      "stateMutability": "nonpayable",
      "type": "function"
    },
    {
      "inputs": [
        {
          "internalType": "address",
          "name": "newOwner",
          "type": "address"
        }
      ],
      "name": "transferOwnership",
      "outputs": [],
      "stateMutability": "nonpayable",
      "type": "function"
    },
    {
      "inputs": [],
      "name": "increment",
      "outputs": [],
      "stateMutability": "nonpayable",
      "type": "function"
    },
    {
      "inputs": [],
      "name": "getCount",
      "outputs": [
        {
          "internalType": "uint256",
          "name": "",
          "type": "uint256"
        }
      ],
      "stateMutability": "view",
      "type": "function"
    }
  ],
  "bytecode": "0x608060405234801561000f575f80fd5b50335f73ffffffffffffffffffffffffffffffffffffffff168173ffffffffffffffffffffffffffffffffffffffff1603610081575f6040517f1e4fbdf7000000000000000000000000000000000000000000000000000000008152600401610078919061019d565b60405180910390fd5b6100908161009d60201b60201c565b505f6001819055506101b6565b5f805f9054906101000a900473ffffffffffffffffffffffffffffffffffffffff169050815f806101000a81548173ffffffffffffffffffffffffffffffffffffffff021916908373ffffffffffffffffffffffffffffffffffffffff1602179055508173ffffffffffffffffffffffffffffffffffffffff168173ffffffffffffffffffffffffffffffffffffffff167f8be0079c531659141344cd1fd0a4f28419497f9722a3daafe3b4186f6b6457e060405160405180910390a35050565b5f73ffffffffffffffffffffffffffffffffffffffff82169050919050565b5f6101878261015e565b9050919050565b6101978161017d565b82525050565b5f6020820190506101b05f83018461018e565b92915050565b6104ae806101c35f395ff3fe608060405234801561000f575f80fd5b5060043610610055575f3560e01c8063715018a6146100595780638da5cb5b14610063578063a87d942c14610081578063d09de08a1461009f578063f2fde38b146100a9575b5f80fd5b6100616100c5565b005b61006b6100d8565b6040516100789190610375565b60405180910390f35b6100896100ff565b60405161009691906103a6565b60405180910390f35b6100a7610108565b005b6100c360048036038101906100be91906103ed565b610163565b005b6100cd6101e7565b6100d65f61026e565b565b5f805f9054906101000a900473ffffffffffffffffffffffffffffffffffffffff16905090565b5f600154905090565b6101106101e7565b6001805f8282546101219190610445565b925050819055507f20d8a6f5a693f9d1d627a598e8820f7a55ee74c183aa8f1a30e8d4e8dd9a8d8460015460405161015991906103a6565b60405180910390a1565b61016b6101e7565b5f73ffffffffffffffffffffffffffffffffffffffff168173ffffffffffffffffffffffffffffffffffffffff16036101db575f6040517f1e4fbdf70000000000000000000000000000000000000000000000000000000081526004016101d29190610375565b60405180910390fd5b6101e48161026e565b50565b6101ef61032f565b73ffffffffffffffffffffffffffffffffffffffff1661020d6100d8565b73ffffffffffffffffffffffffffffffffffffffff161461026c5761023061032f565b6040517f118cdaa70000000000000000000000000000000000000000000000000000000081526004016102639190610375565b60405180910390fd5b565b5f805f9054906101000a900473ffffffffffffffffffffffffffffffffffffffff169050815f806101000a81548173ffffffffffffffffffffffffffffffffffffffff021916908373ffffffffffffffffffffffffffffffffffffffff1602179055508173ffffffffffffffffffffffffffffffffffffffff168173ffffffffffffffffffffffffffffffffffffffff167f8be0079c531659141344cd1fd0a4f28419497f9722a3daafe3b4186f6b6457e060405160405180910390a35050565b5f33905090565b5f73ffffffffffffffffffffffffffffffffffffffff82169050919050565b5f61035f82610336565b9050919050565b61036f81610355565b82525050565b5f6020820190506103885f830184610366565b92915050565b5f819050919050565b6103a08161038e565b82525050565b5f6020820190506103b95f830184610397565b92915050565b5f80fd5b6103cc81610355565b81146103d6575f80fd5b50565b5f813590506103e7816103c3565b92915050565b5f60208284031215610402576104016103bf565b5b5f61040f848285016103d9565b91505092915050565b7f4e487b71000000000000000000000000000000000000000000000000000000005f52601160045260245ffd5b5f61044f8261038e565b915061045a8361038e565b925082820190508082111561047257610471610418565b5b9291505056fea2646970667358221220d9f1e8ab768c435f270cae719bf5e644876f022b38ceddfa578547db6879020664736f6c63430008140033",
  "immutableReferences": {},
  "source": "// SPDX-License-Identifier: MIT\r\npragma solidity ^0.8.0;\r\n\r\nimport {Ownable} from \"@openzeppelin/contracts/access/Ownable.sol\";\r\n\r\ncontract Counter is Ownable {\r\n    uint256 private _count;\r\n\r\n    event Incremented(uint256 newCount);\r\n    \r\n    constructor() Ownable(msg.sender) {\r\n        _count = 0;\r\n    }\r\n\r\n    function increment() public onlyOwner {\r\n        _count += 1;\r\n        emit Incremented(_count);\r\n    }\r\n\r\n    function getCount() public view returns (uint256) {\r\n        return _count;\r\n    }\r\n}\r\n",
  "sourcePath": "/app/contracts/Counter.sol",
  "compiler": {
    "name": "solc",
    "version": "0.8.20+commit.a1b79de6.Emscripten.clang"
  },
  "schemaVersion": "3.4.16",
  "updatedAt": "2025-05-15T14:48:05.532Z",
  "devdoc": {
    "errors": {
      "OwnableInvalidOwner(address)": [
        {
          "details": "The owner is not a valid owner account. (eg. `address(0)`)"
        }
      ],
      "OwnableUnauthorizedAccount(address)": [
        {
          "details": "The caller account is not authorized to perform an operation."
        }
      ]
    },
    "kind": "dev",
    "methods": {
      "owner()": {
        "details": "Returns the address of the current owner."
      },
      "renounceOwnership()": {
        "details": "Leaves the contract without owner. It will not be possible to call `onlyOwner` functions. Can only be called by the current owner. NOTE: Renouncing ownership will leave the contract without an owner, thereby disabling any functionality that is only available to the owner."
      },
      "transferOwnership(address)": {
        "details": "Transfers ownership of the contract to a new account (`newOwner`). Can only be called by the current owner."
      }
    },
    "version": 1
  },
  "userdoc": {
    "kind": "user",
    "methods": {},
    "version": 1
  }
}