{
  "contractName": "ProductRegistry",
  "abi": [
    {
      "anonymous": false,
      "inputs": [
        {
          "indexed": true,
          "internalType": "uint256",
          "name": "productId",
          "type": "uint256"
        },
        {
          "indexed": true,
          "internalType": "address",
          "name": "producer",
          "type": "address"
        },
        {
          "indexed": false,
          "internalType": "string",
          "name": "name",
          "type": "string"
        }
      ],
      "name": "ProductCreated",
      "type": "event"
    },
    {
      "anonymous": false,
      "inputs": [
        {
          "indexed": true,
          "internalType": "uint256",
          "name": "productId",
          "type": "uint256"
        }
      ],
      "name": "ProductDeactivated",
      "type": "event"
    },
    {
      "anonymous": false,
      "inputs": [
        {
          "indexed": true,
          "internalType": "uint256",
          "name": "productId",
          "type": "uint256"
        },
        {
          "indexed": false,
          "internalType": "string",
          "name": "name",
          "type": "string"
        }
      ],
      "name": "ProductUpdated",
      "type": "event"
    },
    {
      "inputs": [
        {
          "internalType": "string",
          "name": "_name",
          "type": "string"
        },
        {
          "internalType": "string",
          "name": "_description",
          "type": "string"
        },
        {
          "internalType": "string",
          "name": "_category",
          "type": "string"
        },
        {
          "internalType": "string",
          "name": "_unit",
          "type": "string"
        },
        {
          "internalType": "string",
          "name": "_metadata",
          "type": "string"
        }
      ],
      "name": "createProduct",
      "outputs": [
        {
          "internalType": "uint256",
          "name": "",
          "type": "uint256"
        }
      ],
      "stateMutability": "nonpayable",
      "type": "function"
    },
    {
      "inputs": [
        {
          "internalType": "uint256",
          "name": "_productId",
          "type": "uint256"
        },
        {
          "internalType": "string",
          "name": "_name",
          "type": "string"
        },
        {
          "internalType": "string",
          "name": "_description",
          "type": "string"
        },
        {
          "internalType": "string",
          "name": "_category",
          "type": "string"
        },
        {
          "internalType": "string",
          "name": "_unit",
          "type": "string"
        },
        {
          "internalType": "string",
          "name": "_metadata",
          "type": "string"
        }
      ],
      "name": "updateProduct",
      "outputs": [],
      "stateMutability": "nonpayable",
      "type": "function"
    },
    {
      "inputs": [
        {
          "internalType": "uint256",
          "name": "_productId",
          "type": "uint256"
        }
      ],
      "name": "deactivateProduct",
      "outputs": [],
      "stateMutability": "nonpayable",
      "type": "function"
    },
    {
      "inputs": [
        {
          "internalType": "uint256",
          "name": "_productId",
          "type": "uint256"
        }
      ],
      "name": "getProduct",
      "outputs": [
        {
          "internalType": "uint256",
          "name": "productId",
          "type": "uint256"
        },
        {
          "internalType": "string",
          "name": "name",
          "type": "string"
        },
        {
          "internalType": "string",
          "name": "description",
          "type": "string"
        },
        {
          "internalType": "string",
          "name": "category",
          "type": "string"
        },
        {
          "internalType": "string",
          "name": "unit",
          "type": "string"
        },
        {
          "internalType": "address",
          "name": "producer",
          "type": "address"
        },
        {
          "internalType": "uint256",
          "name": "createdAt",
          "type": "uint256"
        },
        {
          "internalType": "bool",
          "name": "isActive",
          "type": "bool"
        },
        {
          "internalType": "string",
          "name": "metadata",
          "type": "string"
        }
      ],
      "stateMutability": "view",
      "type": "function"
    },
    {
      "inputs": [
        {
          "internalType": "address",
          "name": "_producer",
          "type": "address"
        }
      ],
      "name": "getProducerProducts",
      "outputs": [
        {
          "internalType": "uint256[]",
          "name": "",
          "type": "uint256[]"
        }
      ],
      "stateMutability": "view",
      "type": "function"
    },
    {
      "inputs": [
        {
          "internalType": "string",
          "name": "_category",
          "type": "string"
        }
      ],
      "name": "getCategoryProducts",
      "outputs": [
        {
          "internalType": "uint256[]",
          "name": "",
          "type": "uint256[]"
        }
      ],
      "stateMutability": "view",
      "type": "function"
    }
  ],
  "bytecode": "0x608060405234801561000f575f80fd5b50611b6b8061001d5f395ff3fe608060405234801561000f575f80fd5b5060043610610060575f3560e01c80635b0769d6146100645780637ce9bcf41461009457806380dc7d6f146100c4578063b9db15b4146100f4578063da6ca58c1461012c578063fd77e5de14610148575b5f80fd5b61007e60048036038101906100799190610e90565b610164565b60405161008b9190610fab565b60405180910390f35b6100ae60048036038101906100a9919061101e565b61049b565b6040516100bb9190611100565b60405180910390f35b6100de60048036038101906100d99190611120565b61052e565b6040516100eb9190611100565b60405180910390f35b61010e60048036038101906101099190611191565b6105a2565b6040516101239998979695949392919061125f565b60405180910390f35b6101466004803603810190610141919061130d565b6109c4565b005b610162600480360381019061015d9190611191565b610bab565b005b5f808651116101a8576040517f08c379a000000000000000000000000000000000000000000000000000000000815260040161019f9061146c565b60405180910390fd5b5f8451116101eb576040517f08c379a00000000000000000000000000000000000000000000000000000000081526004016101e2906114d4565b60405180910390fd5b5f83511161022e576040517f08c379a00000000000000000000000000000000000000000000000000000000081526004016102259061153c565b60405180910390fd5b5f8081548092919061023f90611587565b91905055505f805490506040518061012001604052808281526020018881526020018781526020018681526020018581526020013373ffffffffffffffffffffffffffffffffffffffff1681526020014281526020016001151581526020018481525060015f8381526020019081526020015f205f820151815f015560208201518160010190816102d091906117c8565b5060408201518160020190816102e691906117c8565b5060608201518160030190816102fc91906117c8565b50608082015181600401908161031291906117c8565b5060a0820151816005015f6101000a81548173ffffffffffffffffffffffffffffffffffffffff021916908373ffffffffffffffffffffffffffffffffffffffff16021790555060c0820151816006015560e0820151816007015f6101000a81548160ff02191690831515021790555061010082015181600801908161039891906117c8565b5090505060025f3373ffffffffffffffffffffffffffffffffffffffff1673ffffffffffffffffffffffffffffffffffffffff1681526020019081526020015f2081908060018154018082558091505060019003905f5260205f20015f909190919091505560038560405161040d91906118d1565b908152602001604051809103902081908060018154018082558091505060019003905f5260205f20015f90919091909150553373ffffffffffffffffffffffffffffffffffffffff16817f91bfc064380de20e1c90ea2ed78d0358b4ab45d446c0b93b0b07bc86f95897da8960405161048691906118e7565b60405180910390a38091505095945050505050565b606060025f8373ffffffffffffffffffffffffffffffffffffffff1673ffffffffffffffffffffffffffffffffffffffff1681526020019081526020015f2080548060200260200160405190810160405280929190818152602001828054801561052257602002820191905f5260205f20905b81548152602001906001019080831161050e575b50505050509050919050565b606060038260405161054091906118d1565b908152602001604051809103902080548060200260200160405190810160405280929190818152602001828054801561059657602002820191905f5260205f20905b815481526020019060010190808311610582575b50505050509050919050565b5f6060806060805f805f6060895f60015f8381526020019081526020015f205f015403610604576040517f08c379a00000000000000000000000000000000000000000000000000000000081526004016105fb90611951565b60405180910390fd5b5f60015f8d81526020019081526020015f20604051806101200160405290815f820154815260200160018201805461063b906115fb565b80601f0160208091040260200160405190810160405280929190818152602001828054610667906115fb565b80156106b25780601f10610689576101008083540402835291602001916106b2565b820191905f5260205f20905b81548152906001019060200180831161069557829003601f168201915b505050505081526020016002820180546106cb906115fb565b80601f01602080910402602001604051908101604052809291908181526020018280546106f7906115fb565b80156107425780601f1061071957610100808354040283529160200191610742565b820191905f5260205f20905b81548152906001019060200180831161072557829003601f168201915b5050505050815260200160038201805461075b906115fb565b80601f0160208091040260200160405190810160405280929190818152602001828054610787906115fb565b80156107d25780601f106107a9576101008083540402835291602001916107d2565b820191905f5260205f20905b8154815290600101906020018083116107b557829003601f168201915b505050505081526020016004820180546107eb906115fb565b80601f0160208091040260200160405190810160405280929190818152602001828054610817906115fb565b80156108625780601f1061083957610100808354040283529160200191610862565b820191905f5260205f20905b81548152906001019060200180831161084557829003601f168201915b50505050508152602001600582015f9054906101000a900473ffffffffffffffffffffffffffffffffffffffff1673ffffffffffffffffffffffffffffffffffffffff1673ffffffffffffffffffffffffffffffffffffffff16815260200160068201548152602001600782015f9054906101000a900460ff161515151581526020016008820180546108f4906115fb565b80601f0160208091040260200160405190810160405280929190818152602001828054610920906115fb565b801561096b5780601f106109425761010080835404028352916020019161096b565b820191905f5260205f20905b81548152906001019060200180831161094e57829003601f168201915b5050505050815250509050805f015181602001518260400151836060015184608001518560a001518660c001518760e001518861010001519a509a509a509a509a509a509a509a509a5050509193959799909294969850565b855f60015f8381526020019081526020015f205f015403610a1a576040517f08c379a0000000000000000000000000000000000000000000000000000000008152600401610a1190611951565b60405180910390fd5b5f60015f8981526020019081526020015f2090503373ffffffffffffffffffffffffffffffffffffffff16816005015f9054906101000a900473ffffffffffffffffffffffffffffffffffffffff1673ffffffffffffffffffffffffffffffffffffffff1614610abf576040517f08c379a0000000000000000000000000000000000000000000000000000000008152600401610ab6906119b9565b60405180910390fd5b806007015f9054906101000a900460ff16610b0f576040517f08c379a0000000000000000000000000000000000000000000000000000000008152600401610b0690611a21565b60405180910390fd5b86816001019081610b2091906117c8565b5085816002019081610b3291906117c8565b5084816003019081610b4491906117c8565b5083816004019081610b5691906117c8565b5082816008019081610b6891906117c8565b50877fdad7092ee1ca215307c34b5dd865bb1f9be7e1f0110d230eaefd78fa4742903e88604051610b9991906118e7565b60405180910390a25050505050505050565b805f60015f8381526020019081526020015f205f015403610c01576040517f08c379a0000000000000000000000000000000000000000000000000000000008152600401610bf890611951565b60405180910390fd5b5f60015f8481526020019081526020015f2090503373ffffffffffffffffffffffffffffffffffffffff16816005015f9054906101000a900473ffffffffffffffffffffffffffffffffffffffff1673ffffffffffffffffffffffffffffffffffffffff1614610ca6576040517f08c379a0000000000000000000000000000000000000000000000000000000008152600401610c9d90611aaf565b60405180910390fd5b806007015f9054906101000a900460ff16610cf6576040517f08c379a0000000000000000000000000000000000000000000000000000000008152600401610ced90611b17565b60405180910390fd5b5f816007015f6101000a81548160ff021916908315150217905550827f241c84b17626110b8c42e26f8f7de483066e7f266953509e01046f09e6fdd6cc60405160405180910390a2505050565b5f604051905090565b5f80fd5b5f80fd5b5f80fd5b5f80fd5b5f601f19601f8301169050919050565b7f4e487b71000000000000000000000000000000000000000000000000000000005f52604160045260245ffd5b610da282610d5c565b810181811067ffffffffffffffff82111715610dc157610dc0610d6c565b5b80604052505050565b5f610dd3610d43565b9050610ddf8282610d99565b919050565b5f67ffffffffffffffff821115610dfe57610dfd610d6c565b5b610e0782610d5c565b9050602081019050919050565b828183375f83830152505050565b5f610e34610e2f84610de4565b610dca565b905082815260208101848484011115610e5057610e4f610d58565b5b610e5b848285610e14565b509392505050565b5f82601f830112610e7757610e76610d54565b5b8135610e87848260208601610e22565b91505092915050565b5f805f805f60a08688031215610ea957610ea8610d4c565b5b5f86013567ffffffffffffffff811115610ec657610ec5610d50565b5b610ed288828901610e63565b955050602086013567ffffffffffffffff811115610ef357610ef2610d50565b5b610eff88828901610e63565b945050604086013567ffffffffffffffff811115610f2057610f1f610d50565b5b610f2c88828901610e63565b935050606086013567ffffffffffffffff811115610f4d57610f4c610d50565b5b610f5988828901610e63565b925050608086013567ffffffffffffffff811115610f7a57610f79610d50565b5b610f8688828901610e63565b9150509295509295909350565b5f819050919050565b610fa581610f93565b82525050565b5f602082019050610fbe5f830184610f9c565b92915050565b5f73ffffffffffffffffffffffffffffffffffffffff82169050919050565b5f610fed82610fc4565b9050919050565b610ffd81610fe3565b8114611007575f80fd5b50565b5f8135905061101881610ff4565b92915050565b5f6020828403121561103357611032610d4c565b5b5f6110408482850161100a565b91505092915050565b5f81519050919050565b5f82825260208201905092915050565b5f819050602082019050919050565b61107b81610f93565b82525050565b5f61108c8383611072565b60208301905092915050565b5f602082019050919050565b5f6110ae82611049565b6110b88185611053565b93506110c383611063565b805f5b838110156110f35781516110da8882611081565b97506110e583611098565b9250506001810190506110c6565b5085935050505092915050565b5f6020820190508181035f83015261111881846110a4565b905092915050565b5f6020828403121561113557611134610d4c565b5b5f82013567ffffffffffffffff81111561115257611151610d50565b5b61115e84828501610e63565b91505092915050565b61117081610f93565b811461117a575f80fd5b50565b5f8135905061118b81611167565b92915050565b5f602082840312156111a6576111a5610d4c565b5b5f6111b38482850161117d565b91505092915050565b5f81519050919050565b5f82825260208201905092915050565b5f5b838110156111f35780820151818401526020810190506111d8565b5f8484015250505050565b5f611208826111bc565b61121281856111c6565b93506112228185602086016111d6565b61122b81610d5c565b840191505092915050565b61123f81610fe3565b82525050565b5f8115159050919050565b61125981611245565b82525050565b5f610120820190506112735f83018c610f9c565b8181036020830152611285818b6111fe565b90508181036040830152611299818a6111fe565b905081810360608301526112ad81896111fe565b905081810360808301526112c181886111fe565b90506112d060a0830187611236565b6112dd60c0830186610f9c565b6112ea60e0830185611250565b8181036101008301526112fd81846111fe565b90509a9950505050505050505050565b5f805f805f8060c0878903121561132757611326610d4c565b5b5f61133489828a0161117d565b965050602087013567ffffffffffffffff81111561135557611354610d50565b5b61136189828a01610e63565b955050604087013567ffffffffffffffff81111561138257611381610d50565b5b61138e89828a01610e63565b945050606087013567ffffffffffffffff8111156113af576113ae610d50565b5b6113bb89828a01610e63565b935050608087013567ffffffffffffffff8111156113dc576113db610d50565b5b6113e889828a01610e63565b92505060a087013567ffffffffffffffff81111561140957611408610d50565b5b61141589828a01610e63565b9150509295509295509295565b7f4e616d652063616e6e6f7420626520656d7074790000000000000000000000005f82015250565b5f6114566014836111c6565b915061146182611422565b602082019050919050565b5f6020820190508181035f8301526114838161144a565b9050919050565b7f43617465676f72792063616e6e6f7420626520656d70747900000000000000005f82015250565b5f6114be6018836111c6565b91506114c98261148a565b602082019050919050565b5f6020820190508181035f8301526114eb816114b2565b9050919050565b7f556e69742063616e6e6f7420626520656d7074790000000000000000000000005f82015250565b5f6115266014836111c6565b9150611531826114f2565b602082019050919050565b5f6020820190508181035f8301526115538161151a565b9050919050565b7f4e487b71000000000000000000000000000000000000000000000000000000005f52601160045260245ffd5b5f61159182610f93565b91507fffffffffffffffffffffffffffffffffffffffffffffffffffffffffffffffff82036115c3576115c261155a565b5b600182019050919050565b7f4e487b71000000000000000000000000000000000000000000000000000000005f52602260045260245ffd5b5f600282049050600182168061161257607f821691505b602082108103611625576116246115ce565b5b50919050565b5f819050815f5260205f209050919050565b5f6020601f8301049050919050565b5f82821b905092915050565b5f600883026116877fffffffffffffffffffffffffffffffffffffffffffffffffffffffffffffffff8261164c565b611691868361164c565b95508019841693508086168417925050509392505050565b5f819050919050565b5f6116cc6116c76116c284610f93565b6116a9565b610f93565b9050919050565b5f819050919050565b6116e5836116b2565b6116f96116f1826116d3565b848454611658565b825550505050565b5f90565b61170d611701565b6117188184846116dc565b505050565b5b8181101561173b576117305f82611705565b60018101905061171e565b5050565b601f821115611780576117518161162b565b61175a8461163d565b81016020851015611769578190505b61177d6117758561163d565b83018261171d565b50505b505050565b5f82821c905092915050565b5f6117a05f1984600802611785565b1980831691505092915050565b5f6117b88383611791565b9150826002028217905092915050565b6117d1826111bc565b67ffffffffffffffff8111156117ea576117e9610d6c565b5b6117f482546115fb565b6117ff82828561173f565b5f60209050601f831160018114611830575f841561181e578287015190505b61182885826117ad565b86555061188f565b601f19841661183e8661162b565b5f5b8281101561186557848901518255600182019150602085019450602081019050611840565b86831015611882578489015161187e601f891682611791565b8355505b6001600288020188555050505b505050505050565b5f81905092915050565b5f6118ab826111bc565b6118b58185611897565b93506118c58185602086016111d6565b80840191505092915050565b5f6118dc82846118a1565b915081905092915050565b5f6020820190508181035f8301526118ff81846111fe565b905092915050565b7f50726f6475637420646f6573206e6f74206578697374000000000000000000005f82015250565b5f61193b6016836111c6565b915061194682611907565b602082019050919050565b5f6020820190508181035f8301526119688161192f565b9050919050565b7f4f6e6c792070726f64756365722063616e207570646174652070726f647563745f82015250565b5f6119a36020836111c6565b91506119ae8261196f565b602082019050919050565b5f6020820190508181035f8301526119d081611997565b9050919050565b7f50726f64756374206973206e6f742061637469766500000000000000000000005f82015250565b5f611a0b6015836111c6565b9150611a16826119d7565b602082019050919050565b5f6020820190508181035f830152611a38816119ff565b9050919050565b7f4f6e6c792070726f64756365722063616e20646561637469766174652070726f5f8201527f6475637400000000000000000000000000000000000000000000000000000000602082015250565b5f611a996024836111c6565b9150611aa482611a3f565b604082019050919050565b5f6020820190508181035f830152611ac681611a8d565b9050919050565b7f50726f6475637420616c726561647920646561637469766174656400000000005f82015250565b5f611b01601b836111c6565b9150611b0c82611acd565b602082019050919050565b5f6020820190508181035f830152611b2e81611af5565b905091905056fea2646970667358221220fd4784f61a7eeec170d9889736ee068d585da58d5c656287ef618272bf43a4e864736f6c63430008140033",
  "immutableReferences": {},
  "source": "// SPDX-License-Identifier: MIT\r\npragma solidity ^0.8.0;\r\n\r\ncontract ProductRegistry {\r\n    struct Product {\r\n        uint256 productId;\r\n        string name;\r\n        string description;\r\n        string category;\r\n        string unit;\r\n        address producer;\r\n        uint256 createdAt;\r\n        bool isActive;\r\n        string metadata; // Certificazioni, standard di qualit, etc.\r\n    }\r\n\r\n    uint256 private productCounter;\r\n    mapping(uint256 => Product) private products;\r\n    mapping(address => uint256[]) private producerProducts;\r\n    mapping(string => uint256[]) private categoryProducts;\r\n\r\n    event ProductCreated(uint256 indexed productId, address indexed producer, string name);\r\n    event ProductUpdated(uint256 indexed productId, string name);\r\n    event ProductDeactivated(uint256 indexed productId);\r\n\r\n    modifier validProduct(uint256 _productId) {\r\n        require(products[_productId].productId != 0, \"Product does not exist\");\r\n        _;\r\n    }\r\n\r\n    function createProduct(\r\n        string memory _name,\r\n        string memory _description,\r\n        string memory _category,\r\n        string memory _unit,\r\n        string memory _metadata\r\n    ) external returns (uint256) {\r\n        require(bytes(_name).length > 0, \"Name cannot be empty\");\r\n        require(bytes(_category).length > 0, \"Category cannot be empty\");\r\n        require(bytes(_unit).length > 0, \"Unit cannot be empty\");\r\n\r\n        productCounter++;\r\n        uint256 productId = productCounter;\r\n\r\n        products[productId] = Product({\r\n            productId: productId,\r\n            name: _name,\r\n            description: _description,\r\n            category: _category,\r\n            unit: _unit,\r\n            producer: msg.sender,\r\n            createdAt: block.timestamp,\r\n            isActive: true,\r\n            metadata: _metadata\r\n        });\r\n\r\n        producerProducts[msg.sender].push(productId);\r\n        categoryProducts[_category].push(productId);\r\n\r\n        emit ProductCreated(productId, msg.sender, _name);\r\n        return productId;\r\n    }\r\n\r\n    function updateProduct(\r\n        uint256 _productId,\r\n        string memory _name,\r\n        string memory _description,\r\n        string memory _category,\r\n        string memory _unit,\r\n        string memory _metadata\r\n    ) external validProduct(_productId) {\r\n        Product storage product = products[_productId];\r\n        require(product.producer == msg.sender, \"Only producer can update product\");\r\n        require(product.isActive, \"Product is not active\");\r\n\r\n        product.name = _name;\r\n        product.description = _description;\r\n        product.category = _category;\r\n        product.unit = _unit;\r\n        product.metadata = _metadata;\r\n\r\n        emit ProductUpdated(_productId, _name);\r\n    }\r\n\r\n    function deactivateProduct(uint256 _productId) external validProduct(_productId) {\r\n        Product storage product = products[_productId];\r\n        require(product.producer == msg.sender, \"Only producer can deactivate product\");\r\n        require(product.isActive, \"Product already deactivated\");\r\n\r\n        product.isActive = false;\r\n        emit ProductDeactivated(_productId);\r\n    }\r\n\r\n    function getProduct(uint256 _productId) external view validProduct(_productId) returns (\r\n        uint256 productId,\r\n        string memory name,\r\n        string memory description,\r\n        string memory category,\r\n        string memory unit,\r\n        address producer,\r\n        uint256 createdAt,\r\n        bool isActive,\r\n        string memory metadata\r\n    ) {\r\n        Product memory product = products[_productId];\r\n        return (\r\n            product.productId,\r\n            product.name,\r\n            product.description,\r\n            product.category,\r\n            product.unit,\r\n            product.producer,\r\n            product.createdAt,\r\n            product.isActive,\r\n            product.metadata\r\n        );\r\n    }\r\n\r\n    function getProducerProducts(address _producer) external view returns (uint256[] memory) {\r\n        return producerProducts[_producer];\r\n    }\r\n\r\n    function getCategoryProducts(string memory _category) external view returns (uint256[] memory) {\r\n        return categoryProducts[_category];\r\n    }\r\n} ",
  "sourcePath": "/app/contracts/ProductRegistry.sol",
  "compiler": {
    "name": "solc",
    "version": "0.8.20+commit.a1b79de6.Emscripten.clang"
  },
  "schemaVersion": "3.4.16",
  "updatedAt": "2025-05-16T10:06:43.263Z",
  "devdoc": {
    "kind": "dev",
    "methods": {},
    "version": 1
  },
  "userdoc": {
    "kind": "user",
    "methods": {},
    "version": 1
  }
}