{
  "contractName": "QualityControl",
  "abi": [
    {
      "anonymous": false,
      "inputs": [
        {
          "indexed": true,
          "internalType": "uint256",
          "name": "checkId",
          "type": "uint256"
        }
      ],
      "name": "QualityCheckCompleted",
      "type": "event"
    },
    {
      "anonymous": false,
      "inputs": [
        {
          "indexed": true,
          "internalType": "uint256",
          "name": "checkId",
          "type": "uint256"
        },
        {
          "indexed": true,
          "internalType": "uint256",
          "name": "productId",
          "type": "uint256"
        },
        {
          "indexed": true,
          "internalType": "address",
          "name": "inspector",
          "type": "address"
        }
      ],
      "name": "QualityCheckCreated",
      "type": "event"
    },
    {
      "anonymous": false,
      "inputs": [
        {
          "indexed": true,
          "internalType": "uint256",
          "name": "checkId",
          "type": "uint256"
        },
        {
          "indexed": false,
          "internalType": "string",
          "name": "result",
          "type": "string"
        }
      ],
      "name": "QualityCheckUpdated",
      "type": "event"
    },
    {
      "inputs": [
        {
          "internalType": "uint256",
          "name": "_productId",
          "type": "uint256"
        },
        {
          "internalType": "string",
          "name": "_checkType",
          "type": "string"
        },
        {
          "internalType": "string",
          "name": "_details",
          "type": "string"
        },
        {
          "internalType": "string",
          "name": "_metadata",
          "type": "string"
        }
      ],
      "name": "createQualityCheck",
      "outputs": [
        {
          "internalType": "uint256",
          "name": "",
          "type": "uint256"
        }
      ],
      "stateMutability": "nonpayable",
      "type": "function"
    },
    {
      "inputs": [
        {
          "internalType": "uint256",
          "name": "_checkId",
          "type": "uint256"
        },
        {
          "internalType": "string",
          "name": "_result",
          "type": "string"
        },
        {
          "internalType": "string",
          "name": "_details",
          "type": "string"
        },
        {
          "internalType": "string",
          "name": "_metadata",
          "type": "string"
        }
      ],
      "name": "updateQualityCheck",
      "outputs": [],
      "stateMutability": "nonpayable",
      "type": "function"
    },
    {
      "inputs": [
        {
          "internalType": "uint256",
          "name": "_checkId",
          "type": "uint256"
        }
      ],
      "name": "getQualityCheck",
      "outputs": [
        {
          "internalType": "uint256",
          "name": "checkId",
          "type": "uint256"
        },
        {
          "internalType": "uint256",
          "name": "productId",
          "type": "uint256"
        },
        {
          "internalType": "address",
          "name": "inspector",
          "type": "address"
        },
        {
          "internalType": "string",
          "name": "checkType",
          "type": "string"
        },
        {
          "internalType": "string",
          "name": "result",
          "type": "string"
        },
        {
          "internalType": "string",
          "name": "details",
          "type": "string"
        },
        {
          "internalType": "uint256",
          "name": "timestamp",
          "type": "uint256"
        },
        {
          "internalType": "string",
          "name": "metadata",
          "type": "string"
        }
      ],
      "stateMutability": "view",
      "type": "function"
    },
    {
      "inputs": [
        {
          "internalType": "uint256",
          "name": "_productId",
          "type": "uint256"
        }
      ],
      "name": "getProductQualityChecks",
      "outputs": [
        {
          "internalType": "uint256[]",
          "name": "",
          "type": "uint256[]"
        }
      ],
      "stateMutability": "view",
      "type": "function"
    },
    {
      "inputs": [
        {
          "internalType": "address",
          "name": "_inspector",
          "type": "address"
        }
      ],
      "name": "getInspectorQualityChecks",
      "outputs": [
        {
          "internalType": "uint256[]",
          "name": "",
          "type": "uint256[]"
        }
      ],
      "stateMutability": "view",
      "type": "function"
    }
  ],
  "bytecode": "0x608060405234801561000f575f80fd5b506116828061001d5f395ff3fe608060405234801561000f575f80fd5b5060043610610055575f3560e01c806353635892146100595780635af0b9a014610089578063a194291d146100a5578063e50000bf146100d5578063fe7045ca14610105575b5f80fd5b610073600480360381019061006e9190610c4a565b61013c565b6040516100809190610d35565b60405180910390f35b6100a3600480360381019061009e9190610ebb565b6101cf565b005b6100bf60048036038101906100ba9190610f73565b610525565b6040516100cc9190610d35565b60405180910390f35b6100ef60048036038101906100ea9190610ebb565b61058c565b6040516100fc9190610fad565b60405180910390f35b61011f600480360381019061011a9190610f73565b610868565b60405161013398979695949392919061104f565b60405180910390f35b606060035f8373ffffffffffffffffffffffffffffffffffffffff1673ffffffffffffffffffffffffffffffffffffffff1681526020019081526020015f208054806020026020016040519081016040528092919081815260200182805480156101c357602002820191905f5260205f20905b8154815260200190600101908083116101af575b50505050509050919050565b835f60015f8381526020019081526020015f205f015403610225576040517f08c379a000000000000000000000000000000000000000000000000000000000815260040161021c90611131565b60405180910390fd5b5f60015f8781526020019081526020015f2090503373ffffffffffffffffffffffffffffffffffffffff16816002015f9054906101000a900473ffffffffffffffffffffffffffffffffffffffff1673ffffffffffffffffffffffffffffffffffffffff16146102ca576040517f08c379a00000000000000000000000000000000000000000000000000000000081526004016102c190611199565b60405180910390fd5b6040518060400160405280600481526020017f5041535300000000000000000000000000000000000000000000000000000000815250805190602001208580519060200120148061035d57506040518060400160405280600481526020017f4641494c00000000000000000000000000000000000000000000000000000000815250805190602001208580519060200120145b806103aa57506040518060400160405280600781526020017f50454e44494e4700000000000000000000000000000000000000000000000000815250805190602001208580519060200120145b6103e9576040517f08c379a00000000000000000000000000000000000000000000000000000000081526004016103e090611201565b60405180910390fd5b848160040190816103fa9190611419565b508381600501908161040c9190611419565b508281600701908161041e9190611419565b50857f12b4cf770205ae25c6fadea1defce15525c7a3a10aad9c28f4af0be5166542e28660405161044f91906114e8565b60405180910390a26040518060400160405280600481526020017f504153530000000000000000000000000000000000000000000000000000000081525080519060200120858051906020012014806104ea57506040518060400160405280600481526020017f4641494c00000000000000000000000000000000000000000000000000000000815250805190602001208580519060200120145b1561051d57857fb2b11f463d9e13cce92c4659379da17af5e7c9bb03df29828bb913461e617adc60405160405180910390a25b505050505050565b606060025f8381526020019081526020015f2080548060200260200160405190810160405280929190818152602001828054801561058057602002820191905f5260205f20905b81548152602001906001019080831161056c575b50505050509050919050565b5f808451116105d0576040517f08c379a00000000000000000000000000000000000000000000000000000000081526004016105c790611552565b60405180910390fd5b5f835111610613576040517f08c379a000000000000000000000000000000000000000000000000000000000815260040161060a906115ba565b60405180910390fd5b5f8081548092919061062490611605565b91905055505f805490506040518061010001604052808281526020018781526020013373ffffffffffffffffffffffffffffffffffffffff1681526020018681526020016040518060400160405280600781526020017f50454e44494e470000000000000000000000000000000000000000000000000081525081526020018581526020014281526020018481525060015f8381526020019081526020015f205f820151815f0155602082015181600101556040820151816002015f6101000a81548173ffffffffffffffffffffffffffffffffffffffff021916908373ffffffffffffffffffffffffffffffffffffffff16021790555060608201518160030190816107319190611419565b5060808201518160040190816107479190611419565b5060a082015181600501908161075d9190611419565b5060c0820151816006015560e082015181600701908161077d9190611419565b5090505060025f8781526020019081526020015f2081908060018154018082558091505060019003905f5260205f20015f909190919091505560035f3373ffffffffffffffffffffffffffffffffffffffff1673ffffffffffffffffffffffffffffffffffffffff1681526020019081526020015f2081908060018154018082558091505060019003905f5260205f20015f90919091909150553373ffffffffffffffffffffffffffffffffffffffff1686827f912f672b97efee0c5712ee4c89e54cf34e9d3bc4d78c34ee5726f967abddf39b60405160405180910390a480915050949350505050565b5f805f60608060605f6060885f60015f8381526020019081526020015f205f0154036108c9576040517f08c379a00000000000000000000000000000000000000000000000000000000081526004016108c090611131565b60405180910390fd5b5f60015f8c81526020019081526020015f20604051806101000160405290815f820154815260200160018201548152602001600282015f9054906101000a900473ffffffffffffffffffffffffffffffffffffffff1673ffffffffffffffffffffffffffffffffffffffff1673ffffffffffffffffffffffffffffffffffffffff16815260200160038201805461095f9061124c565b80601f016020809104026020016040519081016040528092919081815260200182805461098b9061124c565b80156109d65780601f106109ad576101008083540402835291602001916109d6565b820191905f5260205f20905b8154815290600101906020018083116109b957829003601f168201915b505050505081526020016004820180546109ef9061124c565b80601f0160208091040260200160405190810160405280929190818152602001828054610a1b9061124c565b8015610a665780601f10610a3d57610100808354040283529160200191610a66565b820191905f5260205f20905b815481529060010190602001808311610a4957829003601f168201915b50505050508152602001600582018054610a7f9061124c565b80601f0160208091040260200160405190810160405280929190818152602001828054610aab9061124c565b8015610af65780601f10610acd57610100808354040283529160200191610af6565b820191905f5260205f20905b815481529060010190602001808311610ad957829003601f168201915b5050505050815260200160068201548152602001600782018054610b199061124c565b80601f0160208091040260200160405190810160405280929190818152602001828054610b459061124c565b8015610b905780601f10610b6757610100808354040283529160200191610b90565b820191905f5260205f20905b815481529060010190602001808311610b7357829003601f168201915b5050505050815250509050805f015181602001518260400151836060015184608001518560a001518660c001518760e00151995099509950995099509950995099505050919395975091939597565b5f604051905090565b5f80fd5b5f80fd5b5f73ffffffffffffffffffffffffffffffffffffffff82169050919050565b5f610c1982610bf0565b9050919050565b610c2981610c0f565b8114610c33575f80fd5b50565b5f81359050610c4481610c20565b92915050565b5f60208284031215610c5f57610c5e610be8565b5b5f610c6c84828501610c36565b91505092915050565b5f81519050919050565b5f82825260208201905092915050565b5f819050602082019050919050565b5f819050919050565b610cb081610c9e565b82525050565b5f610cc18383610ca7565b60208301905092915050565b5f602082019050919050565b5f610ce382610c75565b610ced8185610c7f565b9350610cf883610c8f565b805f5b83811015610d28578151610d0f8882610cb6565b9750610d1a83610ccd565b925050600181019050610cfb565b5085935050505092915050565b5f6020820190508181035f830152610d4d8184610cd9565b905092915050565b610d5e81610c9e565b8114610d68575f80fd5b50565b5f81359050610d7981610d55565b92915050565b5f80fd5b5f80fd5b5f601f19601f8301169050919050565b7f4e487b71000000000000000000000000000000000000000000000000000000005f52604160045260245ffd5b610dcd82610d87565b810181811067ffffffffffffffff82111715610dec57610deb610d97565b5b80604052505050565b5f610dfe610bdf565b9050610e0a8282610dc4565b919050565b5f67ffffffffffffffff821115610e2957610e28610d97565b5b610e3282610d87565b9050602081019050919050565b828183375f83830152505050565b5f610e5f610e5a84610e0f565b610df5565b905082815260208101848484011115610e7b57610e7a610d83565b5b610e86848285610e3f565b509392505050565b5f82601f830112610ea257610ea1610d7f565b5b8135610eb2848260208601610e4d565b91505092915050565b5f805f8060808587031215610ed357610ed2610be8565b5b5f610ee087828801610d6b565b945050602085013567ffffffffffffffff811115610f0157610f00610bec565b5b610f0d87828801610e8e565b935050604085013567ffffffffffffffff811115610f2e57610f2d610bec565b5b610f3a87828801610e8e565b925050606085013567ffffffffffffffff811115610f5b57610f5a610bec565b5b610f6787828801610e8e565b91505092959194509250565b5f60208284031215610f8857610f87610be8565b5b5f610f9584828501610d6b565b91505092915050565b610fa781610c9e565b82525050565b5f602082019050610fc05f830184610f9e565b92915050565b610fcf81610c0f565b82525050565b5f81519050919050565b5f82825260208201905092915050565b5f5b8381101561100c578082015181840152602081019050610ff1565b5f8484015250505050565b5f61102182610fd5565b61102b8185610fdf565b935061103b818560208601610fef565b61104481610d87565b840191505092915050565b5f610100820190506110635f83018b610f9e565b611070602083018a610f9e565b61107d6040830189610fc6565b818103606083015261108f8188611017565b905081810360808301526110a38187611017565b905081810360a08301526110b78186611017565b90506110c660c0830185610f9e565b81810360e08301526110d88184611017565b90509998505050505050505050565b7f5175616c69747920636865636b20646f6573206e6f74206578697374000000005f82015250565b5f61111b601c83610fdf565b9150611126826110e7565b602082019050919050565b5f6020820190508181035f8301526111488161110f565b9050919050565b7f4f6e6c7920696e73706563746f722063616e2075706461746520636865636b005f82015250565b5f611183601f83610fdf565b915061118e8261114f565b602082019050919050565b5f6020820190508181035f8301526111b081611177565b9050919050565b7f496e76616c696420726573756c740000000000000000000000000000000000005f82015250565b5f6111eb600e83610fdf565b91506111f6826111b7565b602082019050919050565b5f6020820190508181035f830152611218816111df565b9050919050565b7f4e487b71000000000000000000000000000000000000000000000000000000005f52602260045260245ffd5b5f600282049050600182168061126357607f821691505b6020821081036112765761127561121f565b5b50919050565b5f819050815f5260205f209050919050565b5f6020601f8301049050919050565b5f82821b905092915050565b5f600883026112d87fffffffffffffffffffffffffffffffffffffffffffffffffffffffffffffffff8261129d565b6112e2868361129d565b95508019841693508086168417925050509392505050565b5f819050919050565b5f61131d61131861131384610c9e565b6112fa565b610c9e565b9050919050565b5f819050919050565b61133683611303565b61134a61134282611324565b8484546112a9565b825550505050565b5f90565b61135e611352565b61136981848461132d565b505050565b5b8181101561138c576113815f82611356565b60018101905061136f565b5050565b601f8211156113d1576113a28161127c565b6113ab8461128e565b810160208510156113ba578190505b6113ce6113c68561128e565b83018261136e565b50505b505050565b5f82821c905092915050565b5f6113f15f19846008026113d6565b1980831691505092915050565b5f61140983836113e2565b9150826002028217905092915050565b61142282610fd5565b67ffffffffffffffff81111561143b5761143a610d97565b5b611445825461124c565b611450828285611390565b5f60209050601f831160018114611481575f841561146f578287015190505b61147985826113fe565b8655506114e0565b601f19841661148f8661127c565b5f5b828110156114b657848901518255600182019150602085019450602081019050611491565b868310156114d357848901516114cf601f8916826113e2565b8355505b6001600288020188555050505b505050505050565b5f6020820190508181035f8301526115008184611017565b905092915050565b7f436865636b20747970652063616e6e6f7420626520656d7074790000000000005f82015250565b5f61153c601a83610fdf565b915061154782611508565b602082019050919050565b5f6020820190508181035f83015261156981611530565b9050919050565b7f44657461696c732063616e6e6f7420626520656d7074790000000000000000005f82015250565b5f6115a4601783610fdf565b91506115af82611570565b602082019050919050565b5f6020820190508181035f8301526115d181611598565b9050919050565b7f4e487b71000000000000000000000000000000000000000000000000000000005f52601160045260245ffd5b5f61160f82610c9e565b91507fffffffffffffffffffffffffffffffffffffffffffffffffffffffffffffffff8203611641576116406115d8565b5b60018201905091905056fea26469706673582212203942173f5e6eff02341fa781277c8a3d52e120d66902697fb9f69537e8e9e88164736f6c63430008140033",
  "immutableReferences": {},
  "source": "// SPDX-License-Identifier: MIT\r\npragma solidity ^0.8.0;\r\n\r\ncontract QualityControl {\r\n    struct QualityCheck {\r\n        uint256 checkId;\r\n        uint256 productId;\r\n        address inspector;\r\n        string checkType; // \"CERTIFICATION\", \"INSPECTION\", \"TEST\"\r\n        string result; // \"PASS\", \"FAIL\", \"PENDING\"\r\n        string details;\r\n        uint256 timestamp;\r\n        string metadata; // Risultati dettagliati, certificazioni, etc.\r\n    }\r\n\r\n    uint256 private checkCounter;\r\n    mapping(uint256 => QualityCheck) private qualityChecks;\r\n    mapping(uint256 => uint256[]) private productChecks;\r\n    mapping(address => uint256[]) private inspectorChecks;\r\n\r\n    event QualityCheckCreated(uint256 indexed checkId, uint256 indexed productId, address indexed inspector);\r\n    event QualityCheckUpdated(uint256 indexed checkId, string result);\r\n    event QualityCheckCompleted(uint256 indexed checkId);\r\n\r\n    modifier validCheck(uint256 _checkId) {\r\n        require(qualityChecks[_checkId].checkId != 0, \"Quality check does not exist\");\r\n        _;\r\n    }\r\n\r\n    function createQualityCheck(\r\n        uint256 _productId,\r\n        string memory _checkType,\r\n        string memory _details,\r\n        string memory _metadata\r\n    ) external returns (uint256) {\r\n        require(bytes(_checkType).length > 0, \"Check type cannot be empty\");\r\n        require(bytes(_details).length > 0, \"Details cannot be empty\");\r\n\r\n        checkCounter++;\r\n        uint256 checkId = checkCounter;\r\n\r\n        qualityChecks[checkId] = QualityCheck({\r\n            checkId: checkId,\r\n            productId: _productId,\r\n            inspector: msg.sender,\r\n            checkType: _checkType,\r\n            result: \"PENDING\",\r\n            details: _details,\r\n            timestamp: block.timestamp,\r\n            metadata: _metadata\r\n        });\r\n\r\n        productChecks[_productId].push(checkId);\r\n        inspectorChecks[msg.sender].push(checkId);\r\n\r\n        emit QualityCheckCreated(checkId, _productId, msg.sender);\r\n        return checkId;\r\n    }\r\n\r\n    function updateQualityCheck(\r\n        uint256 _checkId,\r\n        string memory _result,\r\n        string memory _details,\r\n        string memory _metadata\r\n    ) external validCheck(_checkId) {\r\n        QualityCheck storage check = qualityChecks[_checkId];\r\n        require(check.inspector == msg.sender, \"Only inspector can update check\");\r\n        require(\r\n            keccak256(bytes(_result)) == keccak256(bytes(\"PASS\")) ||\r\n            keccak256(bytes(_result)) == keccak256(bytes(\"FAIL\")) ||\r\n            keccak256(bytes(_result)) == keccak256(bytes(\"PENDING\")),\r\n            \"Invalid result\"\r\n        );\r\n\r\n        check.result = _result;\r\n        check.details = _details;\r\n        check.metadata = _metadata;\r\n\r\n        emit QualityCheckUpdated(_checkId, _result);\r\n\r\n        if (\r\n            keccak256(bytes(_result)) == keccak256(bytes(\"PASS\")) ||\r\n            keccak256(bytes(_result)) == keccak256(bytes(\"FAIL\"))\r\n        ) {\r\n            emit QualityCheckCompleted(_checkId);\r\n        }\r\n    }\r\n\r\n    function getQualityCheck(uint256 _checkId) external view validCheck(_checkId) returns (\r\n        uint256 checkId,\r\n        uint256 productId,\r\n        address inspector,\r\n        string memory checkType,\r\n        string memory result,\r\n        string memory details,\r\n        uint256 timestamp,\r\n        string memory metadata\r\n    ) {\r\n        QualityCheck memory check = qualityChecks[_checkId];\r\n        return (\r\n            check.checkId,\r\n            check.productId,\r\n            check.inspector,\r\n            check.checkType,\r\n            check.result,\r\n            check.details,\r\n            check.timestamp,\r\n            check.metadata\r\n        );\r\n    }\r\n\r\n    function getProductQualityChecks(uint256 _productId) external view returns (uint256[] memory) {\r\n        return productChecks[_productId];\r\n    }\r\n\r\n    function getInspectorQualityChecks(address _inspector) external view returns (uint256[] memory) {\r\n        return inspectorChecks[_inspector];\r\n    }\r\n} ",
  "sourcePath": "/app/contracts/QualityControl.sol",
  "compiler": {
    "name": "solc",
    "version": "0.8.20+commit.a1b79de6.Emscripten.clang"
  },
  "schemaVersion": "3.4.16",
  "updatedAt": "2025-05-16T10:06:43.318Z",
  "devdoc": {
    "kind": "dev",
    "methods": {},
    "version": 1
  },
  "userdoc": {
    "kind": "user",
    "methods": {},
    "version": 1
  }
}