{
  "contractName": "SupplyChain",
  "abi": [
    {
      "inputs": [],
      "stateMutability": "nonpayable",
      "type": "constructor"
    },
    {
      "anonymous": false,
      "inputs": [
        {
          "indexed": false,
          "internalType": "string",
          "name": "contractType",
          "type": "string"
        },
        {
          "indexed": false,
          "internalType": "address",
          "name": "newAddress",
          "type": "address"
        }
      ],
      "name": "ContractUpgraded",
      "type": "event"
    },
    {
      "anonymous": false,
      "inputs": [
        {
          "indexed": true,
          "internalType": "address",
          "name": "operator",
          "type": "address"
        }
      ],
      "name": "OperatorAuthorized",
      "type": "event"
    },
    {
      "anonymous": false,
      "inputs": [
        {
          "indexed": true,
          "internalType": "address",
          "name": "operator",
          "type": "address"
        }
      ],
      "name": "OperatorRevoked",
      "type": "event"
    },
    {
      "inputs": [
        {
          "internalType": "address",
          "name": "",
          "type": "address"
        }
      ],
      "name": "authorizedOperators",
      "outputs": [
        {
          "internalType": "bool",
          "name": "",
          "type": "bool"
        }
      ],
      "stateMutability": "view",
      "type": "function"
    },
    {
      "inputs": [],
      "name": "operationRegistry",
      "outputs": [
        {
          "internalType": "contract OperationRegistry",
          "name": "",
          "type": "address"
        }
      ],
      "stateMutability": "view",
      "type": "function"
    },
    {
      "inputs": [],
      "name": "owner",
      "outputs": [
        {
          "internalType": "address",
          "name": "",
          "type": "address"
        }
      ],
      "stateMutability": "view",
      "type": "function"
    },
    {
      "inputs": [],
      "name": "productRequest",
      "outputs": [
        {
          "internalType": "contract ProductRequest",
          "name": "",
          "type": "address"
        }
      ],
      "stateMutability": "view",
      "type": "function"
    },
    {
      "inputs": [],
      "name": "userRegistry",
      "outputs": [
        {
          "internalType": "contract UserRegistry",
          "name": "",
          "type": "address"
        }
      ],
      "stateMutability": "view",
      "type": "function"
    },
    {
      "inputs": [
        {
          "internalType": "address",
          "name": "_userRegistry",
          "type": "address"
        },
        {
          "internalType": "address",
          "name": "_productRequest",
          "type": "address"
        },
        {
          "internalType": "address",
          "name": "_operationRegistry",
          "type": "address"
        }
      ],
      "name": "initialize",
      "outputs": [],
      "stateMutability": "nonpayable",
      "type": "function"
    },
    {
      "inputs": [
        {
          "internalType": "address",
          "name": "_operator",
          "type": "address"
        }
      ],
      "name": "authorizeOperator",
      "outputs": [],
      "stateMutability": "nonpayable",
      "type": "function"
    },
    {
      "inputs": [
        {
          "internalType": "address",
          "name": "_operator",
          "type": "address"
        }
      ],
      "name": "revokeOperator",
      "outputs": [],
      "stateMutability": "nonpayable",
      "type": "function"
    },
    {
      "inputs": [
        {
          "internalType": "string",
          "name": "_contractType",
          "type": "string"
        },
        {
          "internalType": "address",
          "name": "_newAddress",
          "type": "address"
        }
      ],
      "name": "upgradeContract",
      "outputs": [],
      "stateMutability": "nonpayable",
      "type": "function"
    },
    {
      "inputs": [
        {
          "internalType": "string",
          "name": "_name",
          "type": "string"
        },
        {
          "internalType": "string",
          "name": "_email",
          "type": "string"
        },
        {
          "internalType": "string",
          "name": "_role",
          "type": "string"
        }
      ],
      "name": "registerUser",
      "outputs": [
        {
          "internalType": "bool",
          "name": "",
          "type": "bool"
        }
      ],
      "stateMutability": "nonpayable",
      "type": "function"
    },
    {
      "inputs": [
        {
          "internalType": "string",
          "name": "_productName",
          "type": "string"
        },
        {
          "internalType": "uint256",
          "name": "_quantity",
          "type": "uint256"
        },
        {
          "internalType": "string",
          "name": "_unit",
          "type": "string"
        },
        {
          "internalType": "uint256",
          "name": "_deadline",
          "type": "uint256"
        }
      ],
      "name": "createProductRequest",
      "outputs": [
        {
          "internalType": "uint256",
          "name": "",
          "type": "uint256"
        }
      ],
      "stateMutability": "nonpayable",
      "type": "function"
    },
    {
      "inputs": [
        {
          "internalType": "string",
          "name": "_operationType",
          "type": "string"
        },
        {
          "internalType": "string",
          "name": "_description",
          "type": "string"
        },
        {
          "internalType": "string",
          "name": "_location",
          "type": "string"
        },
        {
          "internalType": "string",
          "name": "_metadata",
          "type": "string"
        }
      ],
      "name": "createOperation",
      "outputs": [
        {
          "internalType": "uint256",
          "name": "",
          "type": "uint256"
        }
      ],
      "stateMutability": "nonpayable",
      "type": "function"
    },
    {
      "inputs": [
        {
          "internalType": "address",
          "name": "_user",
          "type": "address"
        }
      ],
      "name": "getUserInfo",
      "outputs": [
        {
          "internalType": "string",
          "name": "name",
          "type": "string"
        },
        {
          "internalType": "string",
          "name": "email",
          "type": "string"
        },
        {
          "internalType": "string",
          "name": "role",
          "type": "string"
        },
        {
          "internalType": "bool",
          "name": "isActive",
          "type": "bool"
        },
        {
          "internalType": "uint256",
          "name": "registrationDate",
          "type": "uint256"
        }
      ],
      "stateMutability": "view",
      "type": "function"
    },
    {
      "inputs": [
        {
          "internalType": "uint256",
          "name": "_requestId",
          "type": "uint256"
        }
      ],
      "name": "getRequestInfo",
      "outputs": [
        {
          "internalType": "uint256",
          "name": "requestId",
          "type": "uint256"
        },
        {
          "internalType": "address",
          "name": "requester",
          "type": "address"
        },
        {
          "internalType": "string",
          "name": "productName",
          "type": "string"
        },
        {
          "internalType": "uint256",
          "name": "quantity",
          "type": "uint256"
        },
        {
          "internalType": "string",
          "name": "unit",
          "type": "string"
        },
        {
          "internalType": "uint256",
          "name": "deadline",
          "type": "uint256"
        },
        {
          "internalType": "string",
          "name": "status",
          "type": "string"
        },
        {
          "internalType": "uint256",
          "name": "createdAt",
          "type": "uint256"
        },
        {
          "internalType": "uint256",
          "name": "updatedAt",
          "type": "uint256"
        }
      ],
      "stateMutability": "view",
      "type": "function"
    },
    {
      "inputs": [
        {
          "internalType": "uint256",
          "name": "_operationId",
          "type": "uint256"
        }
      ],
      "name": "getOperationInfo",
      "outputs": [
        {
          "internalType": "uint256",
          "name": "operationId",
          "type": "uint256"
        },
        {
          "internalType": "address",
          "name": "operator",
          "type": "address"
        },
        {
          "internalType": "string",
          "name": "operationType",
          "type": "string"
        },
        {
          "internalType": "string",
          "name": "description",
          "type": "string"
        },
        {
          "internalType": "string",
          "name": "location",
          "type": "string"
        },
        {
          "internalType": "uint256",
          "name": "timestamp",
          "type": "uint256"
        },
        {
          "internalType": "string",
          "name": "status",
          "type": "string"
        },
        {
          "internalType": "string",
          "name": "metadata",
          "type": "string"
        }
      ],
      "stateMutability": "view",
      "type": "function"
    }
  ],
  "bytecode": "0x608060405234801561000f575f80fd5b503360035f6101000a81548173ffffffffffffffffffffffffffffffffffffffff021916908373ffffffffffffffffffffffffffffffffffffffff160217905550600160045f3373ffffffffffffffffffffffffffffffffffffffff1673ffffffffffffffffffffffffffffffffffffffff1681526020019081526020015f205f6101000a81548160ff0219169083151502179055506125b1806100b25f395ff3fe608060405234801561000f575f80fd5b50600436106100f3575f3560e01c8063959b8c3f11610095578063c0c53b8b11610064578063c0c53b8b146102bc578063d637dcfa146102d8578063f8c0948914610308578063fad8b32a14610326576100f3565b8063959b8c3f146102095780639bcce59d146102255780639f5ab7d014610255578063b08b620114610285576100f3565b8063536dca80116100d1578063536dca801461017b5780635c7460d6146101995780636386c1c7146101b75780638da5cb5b146101eb576100f3565b80630b816045146100f75780631271bd531461012f578063181d989b1461014b575b5f80fd5b610111600480360381019061010c91906113ba565b610342565b604051610126999897969594939291906114bd565b60405180910390f35b610149600480360381019061014491906116b3565b610409565b005b6101656004803603810190610160919061170d565b61072c565b6040516101729190611752565b60405180910390f35b610183610749565b60405161019091906117c6565b60405180910390f35b6101a161076e565b6040516101ae91906117ff565b60405180910390f35b6101d160048036038101906101cc919061170d565b610791565b6040516101e2959493929190611818565b60405180910390f35b6101f3610845565b604051610200919061187e565b60405180910390f35b610223600480360381019061021e919061170d565b61086a565b005b61023f600480360381019061023a9190611897565b610a8c565b60405161024c919061196b565b60405180910390f35b61026f600480360381019061026a9190611984565b610c17565b60405161027c919061196b565b60405180910390f35b61029f600480360381019061029a91906113ba565b610da2565b6040516102b3989796959493929190611a20565b60405180910390f35b6102d660048036038101906102d19190611abf565b610e64565b005b6102f260048036038101906102ed9190611b0f565b611101565b6040516102ff9190611752565b60405180910390f35b61031061119f565b60405161031d9190611bd3565b60405180910390f35b610340600480360381019061033b919061170d565b6111c4565b005b5f8060605f60605f60605f8060015f9054906101000a900473ffffffffffffffffffffffffffffffffffffffff1673ffffffffffffffffffffffffffffffffffffffff1663c58343ef8b6040518263ffffffff1660e01b81526004016103a8919061196b565b5f60405180830381865afa1580156103c2573d5f803e3d5ffd5b505050506040513d5f823e3d601f19601f820116820180604052508101906103ea9190611c82565b9850985098509850985098509850985098509193959799909294969850565b60035f9054906101000a900473ffffffffffffffffffffffffffffffffffffffff1673ffffffffffffffffffffffffffffffffffffffff163373ffffffffffffffffffffffffffffffffffffffff1614610498576040517f08c379a000000000000000000000000000000000000000000000000000000000815260040161048f90611e0a565b60405180910390fd5b5f73ffffffffffffffffffffffffffffffffffffffff168173ffffffffffffffffffffffffffffffffffffffff1603610506576040517f08c379a00000000000000000000000000000000000000000000000000000000081526004016104fd90611e72565b60405180910390fd5b6040518060400160405280600c81526020017f55736572526567697374727900000000000000000000000000000000000000008152508051906020012082805190602001200361059457805f806101000a81548173ffffffffffffffffffffffffffffffffffffffff021916908373ffffffffffffffffffffffffffffffffffffffff1602179055506106ef565b6040518060400160405280600e81526020017f50726f647563745265717565737400000000000000000000000000000000000081525080519060200120828051906020012003610623578060015f6101000a81548173ffffffffffffffffffffffffffffffffffffffff021916908373ffffffffffffffffffffffffffffffffffffffff1602179055506106ee565b6040518060400160405280601181526020017f4f7065726174696f6e5265676973747279000000000000000000000000000000815250805190602001208280519060200120036106b2578060025f6101000a81548173ffffffffffffffffffffffffffffffffffffffff021916908373ffffffffffffffffffffffffffffffffffffffff1602179055506106ed565b6040517f08c379a00000000000000000000000000000000000000000000000000000000081526004016106e490611eda565b60405180910390fd5b5b5b7f2b51ff7c4cc8e6fe1c72e9d9685b7d2a88a5d82ad3a644afbdceb0272c89c1c38282604051610720929190611ef8565b60405180910390a15050565b6004602052805f5260405f205f915054906101000a900460ff1681565b60025f9054906101000a900473ffffffffffffffffffffffffffffffffffffffff1681565b5f8054906101000a900473ffffffffffffffffffffffffffffffffffffffff1681565b60608060605f805f8054906101000a900473ffffffffffffffffffffffffffffffffffffffff1673ffffffffffffffffffffffffffffffffffffffff16636f77926b876040518263ffffffff1660e01b81526004016107f0919061187e565b5f60405180830381865afa15801561080a573d5f803e3d5ffd5b505050506040513d5f823e3d601f19601f820116820180604052508101906108329190611f50565b9450945094509450945091939590929450565b60035f9054906101000a900473ffffffffffffffffffffffffffffffffffffffff1681565b60035f9054906101000a900473ffffffffffffffffffffffffffffffffffffffff1673ffffffffffffffffffffffffffffffffffffffff163373ffffffffffffffffffffffffffffffffffffffff16146108f9576040517f08c379a00000000000000000000000000000000000000000000000000000000081526004016108f090611e0a565b60405180910390fd5b5f73ffffffffffffffffffffffffffffffffffffffff168173ffffffffffffffffffffffffffffffffffffffff1603610967576040517f08c379a000000000000000000000000000000000000000000000000000000000815260040161095e90612065565b60405180910390fd5b60045f8273ffffffffffffffffffffffffffffffffffffffff1673ffffffffffffffffffffffffffffffffffffffff1681526020019081526020015f205f9054906101000a900460ff16156109f1576040517f08c379a00000000000000000000000000000000000000000000000000000000081526004016109e8906120cd565b60405180910390fd5b600160045f8373ffffffffffffffffffffffffffffffffffffffff1673ffffffffffffffffffffffffffffffffffffffff1681526020019081526020015f205f6101000a81548160ff0219169083151502179055508073ffffffffffffffffffffffffffffffffffffffff167fcc13c9db8dd1ea1e88548833406d061f3c0cdddb6f94660374e5515d0b95ce0960405160405180910390a250565b5f60045f3373ffffffffffffffffffffffffffffffffffffffff1673ffffffffffffffffffffffffffffffffffffffff1681526020019081526020015f205f9054906101000a900460ff1680610b2e575060035f9054906101000a900473ffffffffffffffffffffffffffffffffffffffff1673ffffffffffffffffffffffffffffffffffffffff163373ffffffffffffffffffffffffffffffffffffffff16145b610b6d576040517f08c379a0000000000000000000000000000000000000000000000000000000008152600401610b6490612135565b60405180910390fd5b60025f9054906101000a900473ffffffffffffffffffffffffffffffffffffffff1673ffffffffffffffffffffffffffffffffffffffff16639bcce59d868686866040518563ffffffff1660e01b8152600401610bcd9493929190612153565b6020604051808303815f875af1158015610be9573d5f803e3d5ffd5b505050506040513d601f19601f82011682018060405250810190610c0d91906121b2565b9050949350505050565b5f60045f3373ffffffffffffffffffffffffffffffffffffffff1673ffffffffffffffffffffffffffffffffffffffff1681526020019081526020015f205f9054906101000a900460ff1680610cb9575060035f9054906101000a900473ffffffffffffffffffffffffffffffffffffffff1673ffffffffffffffffffffffffffffffffffffffff163373ffffffffffffffffffffffffffffffffffffffff16145b610cf8576040517f08c379a0000000000000000000000000000000000000000000000000000000008152600401610cef90612135565b60405180910390fd5b60015f9054906101000a900473ffffffffffffffffffffffffffffffffffffffff1673ffffffffffffffffffffffffffffffffffffffff16638a9b4422868686866040518563ffffffff1660e01b8152600401610d5894939291906121dd565b6020604051808303815f875af1158015610d74573d5f803e3d5ffd5b505050506040513d601f19601f82011682018060405250810190610d9891906121b2565b9050949350505050565b5f8060608060605f60608060025f9054906101000a900473ffffffffffffffffffffffffffffffffffffffff1673ffffffffffffffffffffffffffffffffffffffff1663202e39248a6040518263ffffffff1660e01b8152600401610e07919061196b565b5f60405180830381865afa158015610e21573d5f803e3d5ffd5b505050506040513d5f823e3d601f19601f82011682018060405250810190610e49919061222e565b97509750975097509750975097509750919395975091939597565b60035f9054906101000a900473ffffffffffffffffffffffffffffffffffffffff1673ffffffffffffffffffffffffffffffffffffffff163373ffffffffffffffffffffffffffffffffffffffff1614610ef3576040517f08c379a0000000000000000000000000000000000000000000000000000000008152600401610eea90611e0a565b60405180910390fd5b5f73ffffffffffffffffffffffffffffffffffffffff168373ffffffffffffffffffffffffffffffffffffffff1603610f61576040517f08c379a0000000000000000000000000000000000000000000000000000000008152600401610f58906123b5565b60405180910390fd5b5f73ffffffffffffffffffffffffffffffffffffffff168273ffffffffffffffffffffffffffffffffffffffff1603610fcf576040517f08c379a0000000000000000000000000000000000000000000000000000000008152600401610fc69061241d565b60405180910390fd5b5f73ffffffffffffffffffffffffffffffffffffffff168173ffffffffffffffffffffffffffffffffffffffff160361103d576040517f08c379a0000000000000000000000000000000000000000000000000000000008152600401611034906124ab565b60405180910390fd5b825f806101000a81548173ffffffffffffffffffffffffffffffffffffffff021916908373ffffffffffffffffffffffffffffffffffffffff1602179055508160015f6101000a81548173ffffffffffffffffffffffffffffffffffffffff021916908373ffffffffffffffffffffffffffffffffffffffff1602179055508060025f6101000a81548173ffffffffffffffffffffffffffffffffffffffff021916908373ffffffffffffffffffffffffffffffffffffffff160217905550505050565b5f805f9054906101000a900473ffffffffffffffffffffffffffffffffffffffff1673ffffffffffffffffffffffffffffffffffffffff1663d637dcfa8585856040518463ffffffff1660e01b815260040161115f939291906124c9565b5f604051808303815f87803b158015611176575f80fd5b505af1925050508015611187575060015b611193575f9050611198565b600190505b9392505050565b60015f9054906101000a900473ffffffffffffffffffffffffffffffffffffffff1681565b60035f9054906101000a900473ffffffffffffffffffffffffffffffffffffffff1673ffffffffffffffffffffffffffffffffffffffff163373ffffffffffffffffffffffffffffffffffffffff1614611253576040517f08c379a000000000000000000000000000000000000000000000000000000000815260040161124a90611e0a565b60405180910390fd5b60045f8273ffffffffffffffffffffffffffffffffffffffff1673ffffffffffffffffffffffffffffffffffffffff1681526020019081526020015f205f9054906101000a900460ff166112dc576040517f08c379a00000000000000000000000000000000000000000000000000000000081526004016112d39061255d565b60405180910390fd5b5f60045f8373ffffffffffffffffffffffffffffffffffffffff1673ffffffffffffffffffffffffffffffffffffffff1681526020019081526020015f205f6101000a81548160ff0219169083151502179055508073ffffffffffffffffffffffffffffffffffffffff167fa5f3b7626fd86ff989f1d22cf3d41d74591ea6eb99241079400b0c332a9a8f1160405160405180910390a250565b5f604051905090565b5f80fd5b5f80fd5b5f819050919050565b61139981611387565b81146113a3575f80fd5b50565b5f813590506113b481611390565b92915050565b5f602082840312156113cf576113ce61137f565b5b5f6113dc848285016113a6565b91505092915050565b6113ee81611387565b82525050565b5f73ffffffffffffffffffffffffffffffffffffffff82169050919050565b5f61141d826113f4565b9050919050565b61142d81611413565b82525050565b5f81519050919050565b5f82825260208201905092915050565b5f5b8381101561146a57808201518184015260208101905061144f565b5f8484015250505050565b5f601f19601f8301169050919050565b5f61148f82611433565b611499818561143d565b93506114a981856020860161144d565b6114b281611475565b840191505092915050565b5f610120820190506114d15f83018c6113e5565b6114de602083018b611424565b81810360408301526114f0818a611485565b90506114ff60608301896113e5565b81810360808301526115118188611485565b905061152060a08301876113e5565b81810360c08301526115328186611485565b905061154160e08301856113e5565b61154f6101008301846113e5565b9a9950505050505050505050565b5f80fd5b5f80fd5b7f4e487b71000000000000000000000000000000000000000000000000000000005f52604160045260245ffd5b61159b82611475565b810181811067ffffffffffffffff821117156115ba576115b9611565565b5b80604052505050565b5f6115cc611376565b90506115d88282611592565b919050565b5f67ffffffffffffffff8211156115f7576115f6611565565b5b61160082611475565b9050602081019050919050565b828183375f83830152505050565b5f61162d611628846115dd565b6115c3565b90508281526020810184848401111561164957611648611561565b5b61165484828561160d565b509392505050565b5f82601f8301126116705761166f61155d565b5b813561168084826020860161161b565b91505092915050565b61169281611413565b811461169c575f80fd5b50565b5f813590506116ad81611689565b92915050565b5f80604083850312156116c9576116c861137f565b5b5f83013567ffffffffffffffff8111156116e6576116e5611383565b5b6116f28582860161165c565b92505060206117038582860161169f565b9150509250929050565b5f602082840312156117225761172161137f565b5b5f61172f8482850161169f565b91505092915050565b5f8115159050919050565b61174c81611738565b82525050565b5f6020820190506117655f830184611743565b92915050565b5f819050919050565b5f61178e611789611784846113f4565b61176b565b6113f4565b9050919050565b5f61179f82611774565b9050919050565b5f6117b082611795565b9050919050565b6117c0816117a6565b82525050565b5f6020820190506117d95f8301846117b7565b92915050565b5f6117e982611795565b9050919050565b6117f9816117df565b82525050565b5f6020820190506118125f8301846117f0565b92915050565b5f60a0820190508181035f8301526118308188611485565b905081810360208301526118448187611485565b905081810360408301526118588186611485565b90506118676060830185611743565b61187460808301846113e5565b9695505050505050565b5f6020820190506118915f830184611424565b92915050565b5f805f80608085870312156118af576118ae61137f565b5b5f85013567ffffffffffffffff8111156118cc576118cb611383565b5b6118d88782880161165c565b945050602085013567ffffffffffffffff8111156118f9576118f8611383565b5b6119058782880161165c565b935050604085013567ffffffffffffffff81111561192657611925611383565b5b6119328782880161165c565b925050606085013567ffffffffffffffff81111561195357611952611383565b5b61195f8782880161165c565b91505092959194509250565b5f60208201905061197e5f8301846113e5565b92915050565b5f805f806080858703121561199c5761199b61137f565b5b5f85013567ffffffffffffffff8111156119b9576119b8611383565b5b6119c58782880161165c565b94505060206119d6878288016113a6565b935050604085013567ffffffffffffffff8111156119f7576119f6611383565b5b611a038782880161165c565b9250506060611a14878288016113a6565b91505092959194509250565b5f61010082019050611a345f83018b6113e5565b611a41602083018a611424565b8181036040830152611a538189611485565b90508181036060830152611a678188611485565b90508181036080830152611a7b8187611485565b9050611a8a60a08301866113e5565b81810360c0830152611a9c8185611485565b905081810360e0830152611ab08184611485565b90509998505050505050505050565b5f805f60608486031215611ad657611ad561137f565b5b5f611ae38682870161169f565b9350506020611af48682870161169f565b9250506040611b058682870161169f565b9150509250925092565b5f805f60608486031215611b2657611b2561137f565b5b5f84013567ffffffffffffffff811115611b4357611b42611383565b5b611b4f8682870161165c565b935050602084013567ffffffffffffffff811115611b7057611b6f611383565b5b611b7c8682870161165c565b925050604084013567ffffffffffffffff811115611b9d57611b9c611383565b5b611ba98682870161165c565b9150509250925092565b5f611bbd82611795565b9050919050565b611bcd81611bb3565b82525050565b5f602082019050611be65f830184611bc4565b92915050565b5f81519050611bfa81611390565b92915050565b5f81519050611c0e81611689565b92915050565b5f611c26611c21846115dd565b6115c3565b905082815260208101848484011115611c4257611c41611561565b5b611c4d84828561144d565b509392505050565b5f82601f830112611c6957611c6861155d565b5b8151611c79848260208601611c14565b91505092915050565b5f805f805f805f805f6101208a8c031215611ca057611c9f61137f565b5b5f611cad8c828d01611bec565b9950506020611cbe8c828d01611c00565b98505060408a015167ffffffffffffffff811115611cdf57611cde611383565b5b611ceb8c828d01611c55565b9750506060611cfc8c828d01611bec565b96505060808a015167ffffffffffffffff811115611d1d57611d1c611383565b5b611d298c828d01611c55565b95505060a0611d3a8c828d01611bec565b94505060c08a015167ffffffffffffffff811115611d5b57611d5a611383565b5b611d678c828d01611c55565b93505060e0611d788c828d01611bec565b925050610100611d8a8c828d01611bec565b9150509295985092959850929598565b7f4f6e6c79206f776e65722063616e2063616c6c20746869732066756e6374696f5f8201527f6e00000000000000000000000000000000000000000000000000000000000000602082015250565b5f611df460218361143d565b9150611dff82611d9a565b604082019050919050565b5f6020820190508181035f830152611e2181611de8565b9050919050565b7f496e76616c696420636f6e7472616374206164647265737300000000000000005f82015250565b5f611e5c60188361143d565b9150611e6782611e28565b602082019050919050565b5f6020820190508181035f830152611e8981611e50565b9050919050565b7f496e76616c696420636f6e7472616374207479706500000000000000000000005f82015250565b5f611ec460158361143d565b9150611ecf82611e90565b602082019050919050565b5f6020820190508181035f830152611ef181611eb8565b9050919050565b5f6040820190508181035f830152611f108185611485565b9050611f1f6020830184611424565b9392505050565b611f2f81611738565b8114611f39575f80fd5b50565b5f81519050611f4a81611f26565b92915050565b5f805f805f60a08688031215611f6957611f6861137f565b5b5f86015167ffffffffffffffff811115611f8657611f85611383565b5b611f9288828901611c55565b955050602086015167ffffffffffffffff811115611fb357611fb2611383565b5b611fbf88828901611c55565b945050604086015167ffffffffffffffff811115611fe057611fdf611383565b5b611fec88828901611c55565b9350506060611ffd88828901611f3c565b925050608061200e88828901611bec565b9150509295509295909350565b7f496e76616c6964206f70657261746f72206164647265737300000000000000005f82015250565b5f61204f60188361143d565b915061205a8261201b565b602082019050919050565b5f6020820190508181035f83015261207c81612043565b9050919050565b7f4f70657261746f7220616c726561647920617574686f72697a656400000000005f82015250565b5f6120b7601b8361143d565b91506120c282612083565b602082019050919050565b5f6020820190508181035f8301526120e4816120ab565b9050919050565b7f4e6f7420617574686f72697a65640000000000000000000000000000000000005f82015250565b5f61211f600e8361143d565b915061212a826120eb565b602082019050919050565b5f6020820190508181035f83015261214c81612113565b9050919050565b5f6080820190508181035f83015261216b8187611485565b9050818103602083015261217f8186611485565b905081810360408301526121938185611485565b905081810360608301526121a78184611485565b905095945050505050565b5f602082840312156121c7576121c661137f565b5b5f6121d484828501611bec565b91505092915050565b5f6080820190508181035f8301526121f58187611485565b905061220460208301866113e5565b81810360408301526122168185611485565b905061222560608301846113e5565b95945050505050565b5f805f805f805f80610100898b03121561224b5761224a61137f565b5b5f6122588b828c01611bec565b98505060206122698b828c01611c00565b975050604089015167ffffffffffffffff81111561228a57612289611383565b5b6122968b828c01611c55565b965050606089015167ffffffffffffffff8111156122b7576122b6611383565b5b6122c38b828c01611c55565b955050608089015167ffffffffffffffff8111156122e4576122e3611383565b5b6122f08b828c01611c55565b94505060a06123018b828c01611bec565b93505060c089015167ffffffffffffffff81111561232257612321611383565b5b61232e8b828c01611c55565b92505060e089015167ffffffffffffffff81111561234f5761234e611383565b5b61235b8b828c01611c55565b9150509295985092959890939650565b7f496e76616c6964205573657252656769737472792061646472657373000000005f82015250565b5f61239f601c8361143d565b91506123aa8261236b565b602082019050919050565b5f6020820190508181035f8301526123cc81612393565b9050919050565b7f496e76616c69642050726f6475637452657175657374206164647265737300005f82015250565b5f612407601e8361143d565b9150612412826123d3565b602082019050919050565b5f6020820190508181035f830152612434816123fb565b9050919050565b7f496e76616c6964204f7065726174696f6e5265676973747279206164647265735f8201527f7300000000000000000000000000000000000000000000000000000000000000602082015250565b5f61249560218361143d565b91506124a08261243b565b604082019050919050565b5f6020820190508181035f8301526124c281612489565b9050919050565b5f6060820190508181035f8301526124e18186611485565b905081810360208301526124f58185611485565b905081810360408301526125098184611485565b9050949350505050565b7f4f70657261746f72206e6f7420617574686f72697a65640000000000000000005f82015250565b5f61254760178361143d565b915061255282612513565b602082019050919050565b5f6020820190508181035f8301526125748161253b565b905091905056fea2646970667358221220e6445b13d10cc22916714343120d4c061f290887fa6f25fb91f537a7352df49164736f6c63430008140033",
  "immutableReferences": {},
  "source": "// SPDX-License-Identifier: MIT\r\npragma solidity ^0.8.0;\r\n\r\nimport \"./UserRegistry.sol\";\r\nimport \"./ProductRequest.sol\";\r\nimport \"./OperationRegistry.sol\";\r\n\r\ncontract SupplyChain {\r\n    UserRegistry public userRegistry;\r\n    ProductRequest public productRequest;\r\n    OperationRegistry public operationRegistry;\r\n\r\n    address public owner;\r\n    mapping(address => bool) public authorizedOperators;\r\n\r\n    event OperatorAuthorized(address indexed operator);\r\n    event OperatorRevoked(address indexed operator);\r\n    event ContractUpgraded(string contractType, address newAddress);\r\n\r\n    modifier onlyOwner() {\r\n        require(msg.sender == owner, \"Only owner can call this function\");\r\n        _;\r\n    }\r\n\r\n    modifier onlyAuthorized() {\r\n        require(authorizedOperators[msg.sender] || msg.sender == owner, \"Not authorized\");\r\n        _;\r\n    }\r\n\r\n    constructor() {\r\n        owner = msg.sender;\r\n        authorizedOperators[msg.sender] = true;\r\n    }\r\n\r\n    function initialize(\r\n        address _userRegistry,\r\n        address _productRequest,\r\n        address _operationRegistry\r\n    ) external onlyOwner {\r\n        require(_userRegistry != address(0), \"Invalid UserRegistry address\");\r\n        require(_productRequest != address(0), \"Invalid ProductRequest address\");\r\n        require(_operationRegistry != address(0), \"Invalid OperationRegistry address\");\r\n\r\n        userRegistry = UserRegistry(_userRegistry);\r\n        productRequest = ProductRequest(_productRequest);\r\n        operationRegistry = OperationRegistry(_operationRegistry);\r\n    }\r\n\r\n    function authorizeOperator(address _operator) external onlyOwner {\r\n        require(_operator != address(0), \"Invalid operator address\");\r\n        require(!authorizedOperators[_operator], \"Operator already authorized\");\r\n        \r\n        authorizedOperators[_operator] = true;\r\n        emit OperatorAuthorized(_operator);\r\n    }\r\n\r\n    function revokeOperator(address _operator) external onlyOwner {\r\n        require(authorizedOperators[_operator], \"Operator not authorized\");\r\n        \r\n        authorizedOperators[_operator] = false;\r\n        emit OperatorRevoked(_operator);\r\n    }\r\n\r\n    function upgradeContract(string memory _contractType, address _newAddress) external onlyOwner {\r\n        require(_newAddress != address(0), \"Invalid contract address\");\r\n        \r\n        if (keccak256(bytes(_contractType)) == keccak256(bytes(\"UserRegistry\"))) {\r\n            userRegistry = UserRegistry(_newAddress);\r\n        } else if (keccak256(bytes(_contractType)) == keccak256(bytes(\"ProductRequest\"))) {\r\n            productRequest = ProductRequest(_newAddress);\r\n        } else if (keccak256(bytes(_contractType)) == keccak256(bytes(\"OperationRegistry\"))) {\r\n            operationRegistry = OperationRegistry(_newAddress);\r\n        } else {\r\n            revert(\"Invalid contract type\");\r\n        }\r\n\r\n        emit ContractUpgraded(_contractType, _newAddress);\r\n    }\r\n\r\n    // Funzioni di utilit per interagire con i contratti collegati\r\n    function registerUser(\r\n        string memory _name,\r\n        string memory _email,\r\n        string memory _role\r\n    ) external returns (bool) {\r\n        try userRegistry.registerUser(_name, _email, _role) {\r\n            return true;\r\n        } catch {\r\n            return false;\r\n        }\r\n    }\r\n\r\n    function createProductRequest(\r\n        string memory _productName,\r\n        uint256 _quantity,\r\n        string memory _unit,\r\n        uint256 _deadline\r\n    ) external onlyAuthorized returns (uint256) {\r\n        return productRequest.createRequest(_productName, _quantity, _unit, _deadline);\r\n    }\r\n\r\n    function createOperation(\r\n        string memory _operationType,\r\n        string memory _description,\r\n        string memory _location,\r\n        string memory _metadata\r\n    ) external onlyAuthorized returns (uint256) {\r\n        return operationRegistry.createOperation(_operationType, _description, _location, _metadata);\r\n    }\r\n\r\n    // Funzioni di query\r\n    function getUserInfo(address _user) external view returns (\r\n        string memory name,\r\n        string memory email,\r\n        string memory role,\r\n        bool isActive,\r\n        uint256 registrationDate\r\n    ) {\r\n        return userRegistry.getUser(_user);\r\n    }\r\n\r\n    function getRequestInfo(uint256 _requestId) external view returns (\r\n        uint256 requestId,\r\n        address requester,\r\n        string memory productName,\r\n        uint256 quantity,\r\n        string memory unit,\r\n        uint256 deadline,\r\n        string memory status,\r\n        uint256 createdAt,\r\n        uint256 updatedAt\r\n    ) {\r\n        return productRequest.getRequest(_requestId);\r\n    }\r\n\r\n    function getOperationInfo(uint256 _operationId) external view returns (\r\n        uint256 operationId,\r\n        address operator,\r\n        string memory operationType,\r\n        string memory description,\r\n        string memory location,\r\n        uint256 timestamp,\r\n        string memory status,\r\n        string memory metadata\r\n    ) {\r\n        return operationRegistry.getOperation(_operationId);\r\n    }\r\n} ",
  "sourcePath": "/app/contracts/SupplyChain.sol",
  "compiler": {
    "name": "solc",
    "version": "0.8.20+commit.a1b79de6.Emscripten.clang"
  },
  "schemaVersion": "3.4.16",
  "updatedAt": "2025-05-16T10:06:43.359Z",
  "devdoc": {
    "kind": "dev",
    "methods": {},
    "version": 1
  },
  "userdoc": {
    "kind": "user",
    "methods": {},
    "version": 1
  }
}