{
  "contractName": "SustainableFoodSupplyChain",
  "abi": [
    {
      "inputs": [],
      "stateMutability": "nonpayable",
      "type": "constructor"
    },
    {
      "anonymous": false,
      "inputs": [
        {
          "indexed": true,
          "internalType": "uint256",
          "name": "actionId",
          "type": "uint256"
        },
        {
          "indexed": false,
          "internalType": "string",
          "name": "actionType",
          "type": "string"
        },
        {
          "indexed": true,
          "internalType": "address",
          "name": "initiator",
          "type": "address"
        },
        {
          "indexed": true,
          "internalType": "uint256",
          "name": "timestamp",
          "type": "uint256"
        },
        {
          "indexed": false,
          "internalType": "string",
          "name": "details",
          "type": "string"
        }
      ],
      "name": "ActionLogged",
      "type": "event"
    },
    {
      "anonymous": false,
      "inputs": [
        {
          "indexed": true,
          "internalType": "address",
          "name": "owner",
          "type": "address"
        },
        {
          "indexed": true,
          "internalType": "address",
          "name": "spender",
          "type": "address"
        },
        {
          "indexed": false,
          "internalType": "uint256",
          "name": "value",
          "type": "uint256"
        }
      ],
      "name": "Approval",
      "type": "event"
    },
    {
      "anonymous": false,
      "inputs": [
        {
          "indexed": true,
          "internalType": "uint256",
          "name": "metricId",
          "type": "uint256"
        },
        {
          "indexed": true,
          "internalType": "uint256",
          "name": "productId",
          "type": "uint256"
        },
        {
          "indexed": false,
          "internalType": "string",
          "name": "metricType",
          "type": "string"
        }
      ],
      "name": "MetricRecorded",
      "type": "event"
    },
    {
      "anonymous": false,
      "inputs": [
        {
          "indexed": true,
          "internalType": "uint256",
          "name": "metricId",
          "type": "uint256"
        },
        {
          "indexed": false,
          "internalType": "uint256",
          "name": "newValue",
          "type": "uint256"
        }
      ],
      "name": "MetricUpdated",
      "type": "event"
    },
    {
      "anonymous": false,
      "inputs": [
        {
          "indexed": true,
          "internalType": "uint256",
          "name": "metricId",
          "type": "uint256"
        },
        {
          "indexed": false,
          "internalType": "address",
          "name": "verifier",
          "type": "address"
        }
      ],
      "name": "MetricVerified",
      "type": "event"
    },
    {
      "anonymous": false,
      "inputs": [
        {
          "indexed": true,
          "internalType": "uint256",
          "name": "operationId",
          "type": "uint256"
        },
        {
          "indexed": true,
          "internalType": "address",
          "name": "operator",
          "type": "address"
        },
        {
          "indexed": false,
          "internalType": "string",
          "name": "operationType",
          "type": "string"
        }
      ],
      "name": "OperationCreated",
      "type": "event"
    },
    {
      "anonymous": false,
      "inputs": [
        {
          "indexed": true,
          "internalType": "uint256",
          "name": "operationId",
          "type": "uint256"
        },
        {
          "indexed": false,
          "internalType": "string",
          "name": "metadata",
          "type": "string"
        }
      ],
      "name": "OperationMetadataUpdated",
      "type": "event"
    },
    {
      "anonymous": false,
      "inputs": [
        {
          "indexed": true,
          "internalType": "uint256",
          "name": "operationId",
          "type": "uint256"
        },
        {
          "indexed": false,
          "internalType": "string",
          "name": "newStatus",
          "type": "string"
        }
      ],
      "name": "OperationStatusUpdated",
      "type": "event"
    },
    {
      "anonymous": false,
      "inputs": [
        {
          "indexed": true,
          "internalType": "address",
          "name": "operator",
          "type": "address"
        }
      ],
      "name": "OperatorAuthorized",
      "type": "event"
    },
    {
      "anonymous": false,
      "inputs": [
        {
          "indexed": true,
          "internalType": "address",
          "name": "operator",
          "type": "address"
        }
      ],
      "name": "OperatorRevoked",
      "type": "event"
    },
    {
      "anonymous": false,
      "inputs": [
        {
          "indexed": true,
          "internalType": "uint256",
          "name": "productId",
          "type": "uint256"
        },
        {
          "indexed": true,
          "internalType": "address",
          "name": "producer",
          "type": "address"
        },
        {
          "indexed": false,
          "internalType": "string",
          "name": "name",
          "type": "string"
        }
      ],
      "name": "ProductCreated",
      "type": "event"
    },
    {
      "anonymous": false,
      "inputs": [
        {
          "indexed": true,
          "internalType": "uint256",
          "name": "productId",
          "type": "uint256"
        }
      ],
      "name": "ProductDeactivated",
      "type": "event"
    },
    {
      "anonymous": false,
      "inputs": [
        {
          "indexed": true,
          "internalType": "uint256",
          "name": "productId",
          "type": "uint256"
        },
        {
          "indexed": false,
          "internalType": "string",
          "name": "name",
          "type": "string"
        }
      ],
      "name": "ProductUpdated",
      "type": "event"
    },
    {
      "anonymous": false,
      "inputs": [
        {
          "indexed": true,
          "internalType": "uint256",
          "name": "checkId",
          "type": "uint256"
        }
      ],
      "name": "QualityCheckCompleted",
      "type": "event"
    },
    {
      "anonymous": false,
      "inputs": [
        {
          "indexed": true,
          "internalType": "uint256",
          "name": "checkId",
          "type": "uint256"
        },
        {
          "indexed": true,
          "internalType": "uint256",
          "name": "productId",
          "type": "uint256"
        },
        {
          "indexed": true,
          "internalType": "address",
          "name": "inspector",
          "type": "address"
        }
      ],
      "name": "QualityCheckCreated",
      "type": "event"
    },
    {
      "anonymous": false,
      "inputs": [
        {
          "indexed": true,
          "internalType": "uint256",
          "name": "checkId",
          "type": "uint256"
        },
        {
          "indexed": false,
          "internalType": "string",
          "name": "result",
          "type": "string"
        }
      ],
      "name": "QualityCheckUpdated",
      "type": "event"
    },
    {
      "anonymous": false,
      "inputs": [
        {
          "indexed": true,
          "internalType": "uint256",
          "name": "requestId",
          "type": "uint256"
        }
      ],
      "name": "RequestCompleted",
      "type": "event"
    },
    {
      "anonymous": false,
      "inputs": [
        {
          "indexed": true,
          "internalType": "uint256",
          "name": "requestId",
          "type": "uint256"
        },
        {
          "indexed": true,
          "internalType": "address",
          "name": "requester",
          "type": "address"
        },
        {
          "indexed": false,
          "internalType": "string",
          "name": "productName",
          "type": "string"
        }
      ],
      "name": "RequestCreated",
      "type": "event"
    },
    {
      "anonymous": false,
      "inputs": [
        {
          "indexed": true,
          "internalType": "uint256",
          "name": "requestId",
          "type": "uint256"
        },
        {
          "indexed": false,
          "internalType": "string",
          "name": "newStatus",
          "type": "string"
        }
      ],
      "name": "RequestStatusUpdated",
      "type": "event"
    },
    {
      "anonymous": false,
      "inputs": [
        {
          "indexed": true,
          "internalType": "address",
          "name": "from",
          "type": "address"
        },
        {
          "indexed": false,
          "internalType": "uint256",
          "name": "amount",
          "type": "uint256"
        }
      ],
      "name": "TokensBurned",
      "type": "event"
    },
    {
      "anonymous": false,
      "inputs": [
        {
          "indexed": true,
          "internalType": "address",
          "name": "to",
          "type": "address"
        },
        {
          "indexed": false,
          "internalType": "uint256",
          "name": "amount",
          "type": "uint256"
        }
      ],
      "name": "TokensMinted",
      "type": "event"
    },
    {
      "anonymous": false,
      "inputs": [
        {
          "indexed": true,
          "internalType": "address",
          "name": "from",
          "type": "address"
        },
        {
          "indexed": true,
          "internalType": "address",
          "name": "to",
          "type": "address"
        },
        {
          "indexed": false,
          "internalType": "uint256",
          "name": "value",
          "type": "uint256"
        }
      ],
      "name": "Transfer",
      "type": "event"
    },
    {
      "anonymous": false,
      "inputs": [
        {
          "indexed": true,
          "internalType": "address",
          "name": "userAddress",
          "type": "address"
        }
      ],
      "name": "UserDeactivated",
      "type": "event"
    },
    {
      "anonymous": false,
      "inputs": [
        {
          "indexed": true,
          "internalType": "address",
          "name": "userAddress",
          "type": "address"
        },
        {
          "indexed": false,
          "internalType": "string",
          "name": "name",
          "type": "string"
        },
        {
          "indexed": false,
          "internalType": "string",
          "name": "role",
          "type": "string"
        }
      ],
      "name": "UserRegistered",
      "type": "event"
    },
    {
      "anonymous": false,
      "inputs": [
        {
          "indexed": true,
          "internalType": "address",
          "name": "userAddress",
          "type": "address"
        },
        {
          "indexed": false,
          "internalType": "string",
          "name": "name",
          "type": "string"
        },
        {
          "indexed": false,
          "internalType": "string",
          "name": "role",
          "type": "string"
        }
      ],
      "name": "UserUpdated",
      "type": "event"
    },
    {
      "inputs": [
        {
          "internalType": "uint256",
          "name": "",
          "type": "uint256"
        }
      ],
      "name": "actionLogs",
      "outputs": [
        {
          "internalType": "uint256",
          "name": "actionId",
          "type": "uint256"
        },
        {
          "internalType": "string",
          "name": "actionType",
          "type": "string"
        },
        {
          "internalType": "address",
          "name": "initiatedBy",
          "type": "address"
        },
        {
          "internalType": "uint256",
          "name": "timestamp",
          "type": "uint256"
        },
        {
          "internalType": "string",
          "name": "details",
          "type": "string"
        }
      ],
      "stateMutability": "view",
      "type": "function"
    },
    {
      "inputs": [
        {
          "internalType": "address",
          "name": "",
          "type": "address"
        }
      ],
      "name": "authorizedOperators",
      "outputs": [
        {
          "internalType": "bool",
          "name": "",
          "type": "bool"
        }
      ],
      "stateMutability": "view",
      "type": "function"
    },
    {
      "inputs": [],
      "name": "owner",
      "outputs": [
        {
          "internalType": "address",
          "name": "",
          "type": "address"
        }
      ],
      "stateMutability": "view",
      "type": "function"
    },
    {
      "inputs": [],
      "name": "tokenDecimals",
      "outputs": [
        {
          "internalType": "uint8",
          "name": "",
          "type": "uint8"
        }
      ],
      "stateMutability": "view",
      "type": "function"
    },
    {
      "inputs": [],
      "name": "tokenName",
      "outputs": [
        {
          "internalType": "string",
          "name": "",
          "type": "string"
        }
      ],
      "stateMutability": "view",
      "type": "function"
    },
    {
      "inputs": [],
      "name": "tokenSymbol",
      "outputs": [
        {
          "internalType": "string",
          "name": "",
          "type": "string"
        }
      ],
      "stateMutability": "view",
      "type": "function"
    },
    {
      "inputs": [
        {
          "internalType": "address",
          "name": "_operator",
          "type": "address"
        }
      ],
      "name": "authorizeOperator",
      "outputs": [],
      "stateMutability": "nonpayable",
      "type": "function"
    },
    {
      "inputs": [
        {
          "internalType": "address",
          "name": "_operator",
          "type": "address"
        }
      ],
      "name": "revokeOperator",
      "outputs": [],
      "stateMutability": "nonpayable",
      "type": "function"
    },
    {
      "inputs": [
        {
          "internalType": "string",
          "name": "_name",
          "type": "string"
        },
        {
          "internalType": "string",
          "name": "_email",
          "type": "string"
        },
        {
          "internalType": "string",
          "name": "_role",
          "type": "string"
        }
      ],
      "name": "registerUser",
      "outputs": [],
      "stateMutability": "nonpayable",
      "type": "function"
    },
    {
      "inputs": [
        {
          "internalType": "string",
          "name": "_name",
          "type": "string"
        },
        {
          "internalType": "string",
          "name": "_email",
          "type": "string"
        },
        {
          "internalType": "string",
          "name": "_role",
          "type": "string"
        }
      ],
      "name": "updateUser",
      "outputs": [],
      "stateMutability": "nonpayable",
      "type": "function"
    },
    {
      "inputs": [],
      "name": "deactivateUser",
      "outputs": [],
      "stateMutability": "nonpayable",
      "type": "function"
    },
    {
      "inputs": [
        {
          "internalType": "address",
          "name": "_userAddress",
          "type": "address"
        }
      ],
      "name": "getUser",
      "outputs": [
        {
          "internalType": "string",
          "name": "name",
          "type": "string"
        },
        {
          "internalType": "string",
          "name": "email",
          "type": "string"
        },
        {
          "internalType": "string",
          "name": "role",
          "type": "string"
        },
        {
          "internalType": "bool",
          "name": "isActive",
          "type": "bool"
        },
        {
          "internalType": "uint256",
          "name": "registrationDate",
          "type": "uint256"
        }
      ],
      "stateMutability": "view",
      "type": "function"
    },
    {
      "inputs": [
        {
          "internalType": "address",
          "name": "_userAddress",
          "type": "address"
        }
      ],
      "name": "isUserRegistered",
      "outputs": [
        {
          "internalType": "bool",
          "name": "",
          "type": "bool"
        }
      ],
      "stateMutability": "view",
      "type": "function"
    },
    {
      "inputs": [
        {
          "internalType": "string",
          "name": "_name",
          "type": "string"
        },
        {
          "internalType": "string",
          "name": "_description",
          "type": "string"
        },
        {
          "internalType": "string",
          "name": "_category",
          "type": "string"
        },
        {
          "internalType": "string",
          "name": "_unit",
          "type": "string"
        },
        {
          "internalType": "string",
          "name": "_metadata",
          "type": "string"
        }
      ],
      "name": "createProduct",
      "outputs": [
        {
          "internalType": "uint256",
          "name": "",
          "type": "uint256"
        }
      ],
      "stateMutability": "nonpayable",
      "type": "function"
    },
    {
      "inputs": [
        {
          "internalType": "uint256",
          "name": "_productId",
          "type": "uint256"
        },
        {
          "internalType": "string",
          "name": "_name",
          "type": "string"
        },
        {
          "internalType": "string",
          "name": "_description",
          "type": "string"
        },
        {
          "internalType": "string",
          "name": "_category",
          "type": "string"
        },
        {
          "internalType": "string",
          "name": "_unit",
          "type": "string"
        },
        {
          "internalType": "string",
          "name": "_metadata",
          "type": "string"
        }
      ],
      "name": "updateProduct",
      "outputs": [],
      "stateMutability": "nonpayable",
      "type": "function"
    },
    {
      "inputs": [
        {
          "internalType": "uint256",
          "name": "_productId",
          "type": "uint256"
        }
      ],
      "name": "deactivateProduct",
      "outputs": [],
      "stateMutability": "nonpayable",
      "type": "function"
    },
    {
      "inputs": [
        {
          "internalType": "uint256",
          "name": "_productId",
          "type": "uint256"
        }
      ],
      "name": "getProduct",
      "outputs": [
        {
          "internalType": "uint256",
          "name": "productId",
          "type": "uint256"
        },
        {
          "internalType": "string",
          "name": "name",
          "type": "string"
        },
        {
          "internalType": "string",
          "name": "description",
          "type": "string"
        },
        {
          "internalType": "string",
          "name": "category",
          "type": "string"
        },
        {
          "internalType": "string",
          "name": "unit",
          "type": "string"
        },
        {
          "internalType": "address",
          "name": "producer",
          "type": "address"
        },
        {
          "internalType": "uint256",
          "name": "createdAt",
          "type": "uint256"
        },
        {
          "internalType": "bool",
          "name": "isActive",
          "type": "bool"
        },
        {
          "internalType": "string",
          "name": "metadata",
          "type": "string"
        }
      ],
      "stateMutability": "view",
      "type": "function"
    },
    {
      "inputs": [
        {
          "internalType": "address",
          "name": "_producer",
          "type": "address"
        }
      ],
      "name": "getProducerProducts",
      "outputs": [
        {
          "internalType": "uint256[]",
          "name": "",
          "type": "uint256[]"
        }
      ],
      "stateMutability": "view",
      "type": "function"
    },
    {
      "inputs": [
        {
          "internalType": "string",
          "name": "_category",
          "type": "string"
        }
      ],
      "name": "getCategoryProducts",
      "outputs": [
        {
          "internalType": "uint256[]",
          "name": "",
          "type": "uint256[]"
        }
      ],
      "stateMutability": "view",
      "type": "function"
    },
    {
      "inputs": [
        {
          "internalType": "string",
          "name": "_productName",
          "type": "string"
        },
        {
          "internalType": "uint256",
          "name": "_quantity",
          "type": "uint256"
        },
        {
          "internalType": "string",
          "name": "_unit",
          "type": "string"
        },
        {
          "internalType": "uint256",
          "name": "_deadline",
          "type": "uint256"
        }
      ],
      "name": "createRequest",
      "outputs": [
        {
          "internalType": "uint256",
          "name": "",
          "type": "uint256"
        }
      ],
      "stateMutability": "nonpayable",
      "type": "function"
    },
    {
      "inputs": [
        {
          "internalType": "uint256",
          "name": "_requestId",
          "type": "uint256"
        },
        {
          "internalType": "string",
          "name": "_newStatus",
          "type": "string"
        }
      ],
      "name": "updateRequestStatus",
      "outputs": [],
      "stateMutability": "nonpayable",
      "type": "function"
    },
    {
      "inputs": [
        {
          "internalType": "uint256",
          "name": "_requestId",
          "type": "uint256"
        }
      ],
      "name": "getRequest",
      "outputs": [
        {
          "internalType": "uint256",
          "name": "requestId",
          "type": "uint256"
        },
        {
          "internalType": "address",
          "name": "requester",
          "type": "address"
        },
        {
          "internalType": "string",
          "name": "productName",
          "type": "string"
        },
        {
          "internalType": "uint256",
          "name": "quantity",
          "type": "uint256"
        },
        {
          "internalType": "string",
          "name": "unit",
          "type": "string"
        },
        {
          "internalType": "uint256",
          "name": "deadline",
          "type": "uint256"
        },
        {
          "internalType": "string",
          "name": "status",
          "type": "string"
        },
        {
          "internalType": "uint256",
          "name": "createdAt",
          "type": "uint256"
        },
        {
          "internalType": "uint256",
          "name": "updatedAt",
          "type": "uint256"
        }
      ],
      "stateMutability": "view",
      "type": "function"
    },
    {
      "inputs": [
        {
          "internalType": "address",
          "name": "_user",
          "type": "address"
        }
      ],
      "name": "getUserRequests",
      "outputs": [
        {
          "internalType": "uint256[]",
          "name": "",
          "type": "uint256[]"
        }
      ],
      "stateMutability": "view",
      "type": "function"
    },
    {
      "inputs": [
        {
          "internalType": "string",
          "name": "_operationType",
          "type": "string"
        },
        {
          "internalType": "string",
          "name": "_description",
          "type": "string"
        },
        {
          "internalType": "string",
          "name": "_location",
          "type": "string"
        },
        {
          "internalType": "string",
          "name": "_metadata",
          "type": "string"
        }
      ],
      "name": "createOperation",
      "outputs": [
        {
          "internalType": "uint256",
          "name": "",
          "type": "uint256"
        }
      ],
      "stateMutability": "nonpayable",
      "type": "function"
    },
    {
      "inputs": [
        {
          "internalType": "uint256",
          "name": "_operationId",
          "type": "uint256"
        },
        {
          "internalType": "string",
          "name": "_newStatus",
          "type": "string"
        }
      ],
      "name": "updateOperationStatus",
      "outputs": [],
      "stateMutability": "nonpayable",
      "type": "function"
    },
    {
      "inputs": [
        {
          "internalType": "uint256",
          "name": "_operationId",
          "type": "uint256"
        },
        {
          "internalType": "string",
          "name": "_metadata",
          "type": "string"
        }
      ],
      "name": "updateOperationMetadata",
      "outputs": [],
      "stateMutability": "nonpayable",
      "type": "function"
    },
    {
      "inputs": [
        {
          "internalType": "uint256",
          "name": "_operationId",
          "type": "uint256"
        }
      ],
      "name": "getOperation",
      "outputs": [
        {
          "internalType": "uint256",
          "name": "operationId",
          "type": "uint256"
        },
        {
          "internalType": "address",
          "name": "operator",
          "type": "address"
        },
        {
          "internalType": "string",
          "name": "operationType",
          "type": "string"
        },
        {
          "internalType": "string",
          "name": "description",
          "type": "string"
        },
        {
          "internalType": "string",
          "name": "location",
          "type": "string"
        },
        {
          "internalType": "uint256",
          "name": "timestamp",
          "type": "uint256"
        },
        {
          "internalType": "string",
          "name": "status",
          "type": "string"
        },
        {
          "internalType": "string",
          "name": "metadata",
          "type": "string"
        }
      ],
      "stateMutability": "view",
      "type": "function"
    },
    {
      "inputs": [
        {
          "internalType": "address",
          "name": "_user",
          "type": "address"
        }
      ],
      "name": "getUserOperations",
      "outputs": [
        {
          "internalType": "uint256[]",
          "name": "",
          "type": "uint256[]"
        }
      ],
      "stateMutability": "view",
      "type": "function"
    },
    {
      "inputs": [
        {
          "internalType": "uint256",
          "name": "_productId",
          "type": "uint256"
        },
        {
          "internalType": "string",
          "name": "_checkType",
          "type": "string"
        },
        {
          "internalType": "string",
          "name": "_details",
          "type": "string"
        },
        {
          "internalType": "string",
          "name": "_metadata",
          "type": "string"
        }
      ],
      "name": "createQualityCheck",
      "outputs": [
        {
          "internalType": "uint256",
          "name": "",
          "type": "uint256"
        }
      ],
      "stateMutability": "nonpayable",
      "type": "function"
    },
    {
      "inputs": [
        {
          "internalType": "uint256",
          "name": "_checkId",
          "type": "uint256"
        },
        {
          "internalType": "string",
          "name": "_result",
          "type": "string"
        },
        {
          "internalType": "string",
          "name": "_details",
          "type": "string"
        },
        {
          "internalType": "string",
          "name": "_metadata",
          "type": "string"
        }
      ],
      "name": "updateQualityCheck",
      "outputs": [],
      "stateMutability": "nonpayable",
      "type": "function"
    },
    {
      "inputs": [
        {
          "internalType": "uint256",
          "name": "_checkId",
          "type": "uint256"
        }
      ],
      "name": "getQualityCheck",
      "outputs": [
        {
          "internalType": "uint256",
          "name": "checkId",
          "type": "uint256"
        },
        {
          "internalType": "uint256",
          "name": "productId",
          "type": "uint256"
        },
        {
          "internalType": "address",
          "name": "inspector",
          "type": "address"
        },
        {
          "internalType": "string",
          "name": "checkType",
          "type": "string"
        },
        {
          "internalType": "string",
          "name": "result",
          "type": "string"
        },
        {
          "internalType": "string",
          "name": "details",
          "type": "string"
        },
        {
          "internalType": "uint256",
          "name": "timestamp",
          "type": "uint256"
        },
        {
          "internalType": "string",
          "name": "metadata",
          "type": "string"
        }
      ],
      "stateMutability": "view",
      "type": "function"
    },
    {
      "inputs": [
        {
          "internalType": "uint256",
          "name": "_productId",
          "type": "uint256"
        }
      ],
      "name": "getProductQualityChecks",
      "outputs": [
        {
          "internalType": "uint256[]",
          "name": "",
          "type": "uint256[]"
        }
      ],
      "stateMutability": "view",
      "type": "function"
    },
    {
      "inputs": [
        {
          "internalType": "address",
          "name": "_inspector",
          "type": "address"
        }
      ],
      "name": "getInspectorQualityChecks",
      "outputs": [
        {
          "internalType": "uint256[]",
          "name": "",
          "type": "uint256[]"
        }
      ],
      "stateMutability": "view",
      "type": "function"
    },
    {
      "inputs": [
        {
          "internalType": "uint256",
          "name": "_productId",
          "type": "uint256"
        },
        {
          "internalType": "string",
          "name": "_metricType",
          "type": "string"
        },
        {
          "internalType": "uint256",
          "name": "_value",
          "type": "uint256"
        },
        {
          "internalType": "string",
          "name": "_unit",
          "type": "string"
        },
        {
          "internalType": "string",
          "name": "_methodology",
          "type": "string"
        },
        {
          "internalType": "string",
          "name": "_metadata",
          "type": "string"
        }
      ],
      "name": "recordMetric",
      "outputs": [
        {
          "internalType": "uint256",
          "name": "",
          "type": "uint256"
        }
      ],
      "stateMutability": "nonpayable",
      "type": "function"
    },
    {
      "inputs": [
        {
          "internalType": "uint256",
          "name": "_metricId",
          "type": "uint256"
        },
        {
          "internalType": "uint256",
          "name": "_value",
          "type": "uint256"
        },
        {
          "internalType": "string",
          "name": "_methodology",
          "type": "string"
        },
        {
          "internalType": "string",
          "name": "_metadata",
          "type": "string"
        }
      ],
      "name": "updateMetric",
      "outputs": [],
      "stateMutability": "nonpayable",
      "type": "function"
    },
    {
      "inputs": [
        {
          "internalType": "uint256",
          "name": "_metricId",
          "type": "uint256"
        }
      ],
      "name": "verifyMetric",
      "outputs": [],
      "stateMutability": "nonpayable",
      "type": "function"
    },
    {
      "inputs": [
        {
          "internalType": "uint256",
          "name": "_metricId",
          "type": "uint256"
        }
      ],
      "name": "getMetric",
      "outputs": [
        {
          "internalType": "uint256",
          "name": "metricId",
          "type": "uint256"
        },
        {
          "internalType": "uint256",
          "name": "productId",
          "type": "uint256"
        },
        {
          "internalType": "address",
          "name": "reporter",
          "type": "address"
        },
        {
          "internalType": "string",
          "name": "metricType",
          "type": "string"
        },
        {
          "internalType": "uint256",
          "name": "value",
          "type": "uint256"
        },
        {
          "internalType": "string",
          "name": "unit",
          "type": "string"
        },
        {
          "internalType": "string",
          "name": "methodology",
          "type": "string"
        },
        {
          "internalType": "uint256",
          "name": "timestamp",
          "type": "uint256"
        },
        {
          "internalType": "string",
          "name": "metadata",
          "type": "string"
        }
      ],
      "stateMutability": "view",
      "type": "function"
    },
    {
      "inputs": [
        {
          "internalType": "uint256",
          "name": "_productId",
          "type": "uint256"
        }
      ],
      "name": "getProductMetrics",
      "outputs": [
        {
          "internalType": "uint256[]",
          "name": "",
          "type": "uint256[]"
        }
      ],
      "stateMutability": "view",
      "type": "function"
    },
    {
      "inputs": [
        {
          "internalType": "address",
          "name": "_reporter",
          "type": "address"
        }
      ],
      "name": "getReporterMetrics",
      "outputs": [
        {
          "internalType": "uint256[]",
          "name": "",
          "type": "uint256[]"
        }
      ],
      "stateMutability": "view",
      "type": "function"
    },
    {
      "inputs": [
        {
          "internalType": "string",
          "name": "_metricType",
          "type": "string"
        }
      ],
      "name": "getTypeMetrics",
      "outputs": [
        {
          "internalType": "uint256[]",
          "name": "",
          "type": "uint256[]"
        }
      ],
      "stateMutability": "view",
      "type": "function"
    },
    {
      "inputs": [],
      "name": "totalSupply",
      "outputs": [
        {
          "internalType": "uint256",
          "name": "",
          "type": "uint256"
        }
      ],
      "stateMutability": "view",
      "type": "function"
    },
    {
      "inputs": [
        {
          "internalType": "address",
          "name": "account",
          "type": "address"
        }
      ],
      "name": "balanceOf",
      "outputs": [
        {
          "internalType": "uint256",
          "name": "",
          "type": "uint256"
        }
      ],
      "stateMutability": "view",
      "type": "function"
    },
    {
      "inputs": [
        {
          "internalType": "address",
          "name": "recipient",
          "type": "address"
        },
        {
          "internalType": "uint256",
          "name": "amount",
          "type": "uint256"
        }
      ],
      "name": "transfer",
      "outputs": [
        {
          "internalType": "bool",
          "name": "",
          "type": "bool"
        }
      ],
      "stateMutability": "nonpayable",
      "type": "function"
    },
    {
      "inputs": [
        {
          "internalType": "address",
          "name": "owner",
          "type": "address"
        },
        {
          "internalType": "address",
          "name": "spender",
          "type": "address"
        }
      ],
      "name": "allowance",
      "outputs": [
        {
          "internalType": "uint256",
          "name": "",
          "type": "uint256"
        }
      ],
      "stateMutability": "view",
      "type": "function"
    },
    {
      "inputs": [
        {
          "internalType": "address",
          "name": "spender",
          "type": "address"
        },
        {
          "internalType": "uint256",
          "name": "amount",
          "type": "uint256"
        }
      ],
      "name": "approve",
      "outputs": [
        {
          "internalType": "bool",
          "name": "",
          "type": "bool"
        }
      ],
      "stateMutability": "nonpayable",
      "type": "function"
    },
    {
      "inputs": [
        {
          "internalType": "address",
          "name": "sender",
          "type": "address"
        },
        {
          "internalType": "address",
          "name": "recipient",
          "type": "address"
        },
        {
          "internalType": "uint256",
          "name": "amount",
          "type": "uint256"
        }
      ],
      "name": "transferFrom",
      "outputs": [
        {
          "internalType": "bool",
          "name": "",
          "type": "bool"
        }
      ],
      "stateMutability": "nonpayable",
      "type": "function"
    },
    {
      "inputs": [
        {
          "internalType": "uint256",
          "name": "amount",
          "type": "uint256"
        }
      ],
      "name": "rewardCompensatoryAction",
      "outputs": [],
      "stateMutability": "nonpayable",
      "type": "function"
    },
    {
      "inputs": [
        {
          "internalType": "uint256",
          "name": "consumedCO2",
          "type": "uint256"
        },
        {
          "internalType": "uint256",
          "name": "thresholdCO2",
          "type": "uint256"
        }
      ],
      "name": "processOperationCO2",
      "outputs": [
        {
          "internalType": "bool",
          "name": "",
          "type": "bool"
        }
      ],
      "stateMutability": "nonpayable",
      "type": "function"
    }
  ],
  "bytecode": "0x60806040525f6002556040518060400160405280600981526020017f434f3220546f6b656e0000000000000000000000000000000000000000000000815250601990816200004e9190620003db565b506040518060400160405280600381526020017f434f320000000000000000000000000000000000000000000000000000000000815250601a9081620000959190620003db565b506012601b5f6101000a81548160ff021916908360ff160217905550348015620000bd575f80fd5b50335f806101000a81548173ffffffffffffffffffffffffffffffffffffffff021916908373ffffffffffffffffffffffffffffffffffffffff1602179055506001805f805f9054906101000a900473ffffffffffffffffffffffffffffffffffffffff1673ffffffffffffffffffffffffffffffffffffffff1673ffffffffffffffffffffffffffffffffffffffff1681526020019081526020015f205f6101000a81548160ff021916908315150217905550620004bf565b5f81519050919050565b7f4e487b71000000000000000000000000000000000000000000000000000000005f52604160045260245ffd5b7f4e487b71000000000000000000000000000000000000000000000000000000005f52602260045260245ffd5b5f6002820490506001821680620001f357607f821691505b602082108103620002095762000208620001ae565b5b50919050565b5f819050815f5260205f209050919050565b5f6020601f8301049050919050565b5f82821b905092915050565b5f600883026200026d7fffffffffffffffffffffffffffffffffffffffffffffffffffffffffffffffff8262000230565b62000279868362000230565b95508019841693508086168417925050509392505050565b5f819050919050565b5f819050919050565b5f620002c3620002bd620002b78462000291565b6200029a565b62000291565b9050919050565b5f819050919050565b620002de83620002a3565b620002f6620002ed82620002ca565b8484546200023c565b825550505050565b5f90565b6200030c620002fe565b62000319818484620002d3565b505050565b5b818110156200034057620003345f8262000302565b6001810190506200031f565b5050565b601f8211156200038f5762000359816200020f565b620003648462000221565b8101602085101562000374578190505b6200038c620003838562000221565b8301826200031e565b50505b505050565b5f82821c905092915050565b5f620003b15f198460080262000394565b1980831691505092915050565b5f620003cb8383620003a0565b9150826002028217905092915050565b620003e68262000177565b67ffffffffffffffff81111562000402576200040162000181565b5b6200040e8254620001db565b6200041b82828562000344565b5f60209050601f83116001811462000451575f84156200043c578287015190505b620004488582620003be565b865550620004b7565b601f19841662000461866200020f565b5f5b828110156200048a5784890151825560018201915060208501945060208101905062000463565b86831015620004aa5784890151620004a6601f891682620003a0565b8355505b6001600288020188555050505b505050505050565b6193b980620004cd5f395ff3fe608060405234801561000f575f80fd5b506004361061029e575f3560e01c80637b61c32011610165578063ba672526116100cc578063e2ab79b111610085578063e2ab79b11461094d578063e50000bf1461097d578063f5a09b87146109ad578063fad8b32a146109dd578063fd77e5de146109f9578063fe7045ca14610a155761029e565b8063ba6725261461084d578063c58343ef1461087d578063ceba6d6f146108b5578063d637dcfa146108e5578063da6ca58c14610901578063dd62ed3e1461091d5761029e565b806396a5897f1161011e57806396a5897f146107395780639bcce59d14610755578063a194291d14610785578063a9059cbb146107b5578063b337cf74146107e5578063b9db15b4146108155761029e565b80637b61c320146106515780637ce9bcf41461066f57806380dc7d6f1461069f5780638a9b4422146106cf5780638da5cb5b146106ff578063959b8c3f1461071d5761029e565b80635065b5e0116102095780635b0769d6116101c25780635b0769d6146105675780635fc89e7c1461059757806360903be6146105b35780636c02a931146105cf5780636f77926b146105ed57806370a08231146106215761029e565b80635065b5e0146104a157806353635892146104bd57806355ea2000146104ed578063582bd8f1146104f75780635839ed8f1461052f5780635af0b9a01461054b5761029e565b8063202e39241161025b578063202e3924146103a057806323b872dd146103d75780633b97e856146104075780633fc676091461042557806343d23e05146104555780634f48b707146104715761029e565b8063052d235e146102a2578063095ea7b3146102d65780630caa0d4b14610306578063163f75221461032257806318160ddd14610352578063181d989b14610370575b5f80fd5b6102bc60048036038101906102b79190616b26565b610a4c565b6040516102cd959493929190616c29565b60405180910390f35b6102f060048036038101906102eb9190616cb2565b610ba9565b6040516102fd9190616d0a565b60405180910390f35b610320600480360381019061031b9190616e4f565b610bbf565b005b61033c60048036038101906103379190616ea9565b610dd0565b6040516103499190616d0a565b60405180910390f35b61035a610e22565b6040516103679190616ed4565b60405180910390f35b61038a60048036038101906103859190616ea9565b610e54565b6040516103979190616d0a565b60405180910390f35b6103ba60048036038101906103b59190616b26565b610e71565b6040516103ce989796959493929190616eed565b60405180910390f35b6103f160048036038101906103ec9190616f8c565b61126e565b6040516103fe9190616d0a565b60405180910390f35b61040f611313565b60405161041c9190616ff7565b60405180910390f35b61043f600480360381019061043a9190616ea9565b611325565b60405161044c91906170c7565b60405180910390f35b61046f600480360381019061046a9190616b26565b6113b8565b005b61048b600480360381019061048691906170e7565b611518565b6040516104989190616d0a565b60405180910390f35b6104bb60048036038101906104b69190616e4f565b6116e3565b005b6104d760048036038101906104d29190616ea9565b611a90565b6040516104e491906170c7565b60405180910390f35b6104f5611b23565b005b610511600480360381019061050c9190616b26565b611d49565b60405161052699989796959493929190617125565b60405180910390f35b610549600480360381019061054491906171cc565b6120d5565b005b61056560048036038101906105609190617268565b612303565b005b610581600480360381019061057c9190617320565b61271f565b60405161058e9190616ed4565b60405180910390f35b6105b160048036038101906105ac9190616e4f565b612b56565b005b6105cd60048036038101906105c89190617423565b612e86565b005b6105d761314e565b6040516105e491906174c7565b60405180910390f35b61060760048036038101906106029190616ea9565b6131da565b6040516106189594939291906174e7565b60405180910390f35b61063b60048036038101906106369190616ea9565b6134b4565b6040516106489190616ed4565b60405180910390f35b6106596134fa565b60405161066691906174c7565b60405180910390f35b61068960048036038101906106849190616ea9565b613586565b60405161069691906170c7565b60405180910390f35b6106b960048036038101906106b4919061754d565b613619565b6040516106c691906170c7565b60405180910390f35b6106e960048036038101906106e49190617594565b61368d565b6040516106f69190616ed4565b60405180910390f35b610707613ac7565b6040516107149190617630565b60405180910390f35b61073760048036038101906107329190616ea9565b613aea565b005b610753600480360381019061074e9190616b26565b613d09565b005b61076f600480360381019061076a9190617649565b613eee565b60405161077c9190616ed4565b60405180910390f35b61079f600480360381019061079a9190616b26565b6142ee565b6040516107ac91906170c7565b60405180910390f35b6107cf60048036038101906107ca9190616cb2565b614355565b6040516107dc9190616d0a565b60405180910390f35b6107ff60048036038101906107fa9190616ea9565b61436b565b60405161080c91906170c7565b60405180910390f35b61082f600480360381019061082a9190616b26565b6143fe565b6040516108449998979695949392919061771d565b60405180910390f35b6108676004803603810190610862919061754d565b614820565b60405161087491906170c7565b60405180910390f35b61089760048036038101906108929190616b26565b614894565b6040516108ac999897969594939291906177cb565b60405180910390f35b6108cf60048036038101906108ca9190616b26565b614b9a565b6040516108dc91906170c7565b60405180910390f35b6108ff60048036038101906108fa9190617423565b614c01565b005b61091b6004803603810190610916919061786b565b614f46565b005b61093760048036038101906109329190617980565b6151a2565b6040516109449190616ed4565b60405180910390f35b61096760048036038101906109629190616ea9565b615224565b60405161097491906170c7565b60405180910390f35b61099760048036038101906109929190617268565b6152b7565b6040516109a49190616ed4565b60405180910390f35b6109c760048036038101906109c291906179be565b615693565b6040516109d49190616ed4565b60405180910390f35b6109f760048036038101906109f29190616ea9565b615ac6565b005b610a136004803603810190610a0e9190616b26565b615c76565b005b610a2f6004803603810190610a2a9190616b26565b615e83565b604051610a43989796959493929190617ab7565b60405180910390f35b6003602052805f5260405f205f91509050805f015490806001018054610a7190617b7c565b80601f0160208091040260200160405190810160405280929190818152602001828054610a9d90617b7c565b8015610ae85780601f10610abf57610100808354040283529160200191610ae8565b820191905f5260205f20905b815481529060010190602001808311610acb57829003601f168201915b505050505090806002015f9054906101000a900473ffffffffffffffffffffffffffffffffffffffff1690806003015490806004018054610b2890617b7c565b80601f0160208091040260200160405190810160405280929190818152602001828054610b5490617b7c565b8015610b9f5780601f10610b7657610100808354040283529160200191610b9f565b820191905f5260205f20905b815481529060010190602001808311610b8257829003601f168201915b5050505050905085565b5f610bb53384846161fa565b6001905092915050565b815f600e5f8381526020019081526020015f205f015403610c15576040517f08c379a0000000000000000000000000000000000000000000000000000000008152600401610c0c90617bf6565b60405180910390fd5b5f600e5f8581526020019081526020015f2090503373ffffffffffffffffffffffffffffffffffffffff16816001015f9054906101000a900473ffffffffffffffffffffffffffffffffffffffff1673ffffffffffffffffffffffffffffffffffffffff161480610ccc575060015f3373ffffffffffffffffffffffffffffffffffffffff1673ffffffffffffffffffffffffffffffffffffffff1681526020019081526020015f205f9054906101000a900460ff165b610d0b576040517f08c379a0000000000000000000000000000000000000000000000000000000008152600401610d0290617c5e565b60405180910390fd5b82816007019081610d1c9190617e19565b50610d926040518060400160405280600681526020017f5570646174650000000000000000000000000000000000000000000000000000815250336040518060400160405280601a81526020017f4f7065726174696f6e206d6574616461746120757064617465640000000000008152506163bd565b837fdb1b9b8c0fa594db1fbffe5ea75e9e568e5e49b76910afcbd992e9b7eb61ba6984604051610dc291906174c7565b60405180910390a250505050565b5f60055f8373ffffffffffffffffffffffffffffffffffffffff1673ffffffffffffffffffffffffffffffffffffffff1681526020019081526020015f205f9054906101000a900460ff169050919050565b5f601b5f9054906101000a900460ff1660ff16600a610e419190618044565b620f4240610e4f919061808e565b905090565b6001602052805f5260405f205f915054906101000a900460ff1681565b5f8060608060605f606080885f600e5f8381526020019081526020015f205f015403610ed2576040517f08c379a0000000000000000000000000000000000000000000000000000000008152600401610ec990617bf6565b60405180910390fd5b5f600e5f8c81526020019081526020015f20604051806101000160405290815f8201548152602001600182015f9054906101000a900473ffffffffffffffffffffffffffffffffffffffff1673ffffffffffffffffffffffffffffffffffffffff1673ffffffffffffffffffffffffffffffffffffffff168152602001600282018054610f5e90617b7c565b80601f0160208091040260200160405190810160405280929190818152602001828054610f8a90617b7c565b8015610fd55780601f10610fac57610100808354040283529160200191610fd5565b820191905f5260205f20905b815481529060010190602001808311610fb857829003601f168201915b50505050508152602001600382018054610fee90617b7c565b80601f016020809104026020016040519081016040528092919081815260200182805461101a90617b7c565b80156110655780601f1061103c57610100808354040283529160200191611065565b820191905f5260205f20905b81548152906001019060200180831161104857829003601f168201915b5050505050815260200160048201805461107e90617b7c565b80601f01602080910402602001604051908101604052809291908181526020018280546110aa90617b7c565b80156110f55780601f106110cc576101008083540402835291602001916110f5565b820191905f5260205f20905b8154815290600101906020018083116110d857829003601f168201915b505050505081526020016005820154815260200160068201805461111890617b7c565b80601f016020809104026020016040519081016040528092919081815260200182805461114490617b7c565b801561118f5780601f106111665761010080835404028352916020019161118f565b820191905f5260205f20905b81548152906001019060200180831161117257829003601f168201915b505050505081526020016007820180546111a890617b7c565b80601f01602080910402602001604051908101604052809291908181526020018280546111d490617b7c565b801561121f5780601f106111f65761010080835404028352916020019161121f565b820191905f5260205f20905b81548152906001019060200180831161120257829003601f168201915b5050505050815250509050805f015181602001518260400151836060015184608001518560a001518660c001518760e00151995099509950995099509950995099505050919395975091939597565b5f61127a848484616506565b611308843384601d5f8973ffffffffffffffffffffffffffffffffffffffff1673ffffffffffffffffffffffffffffffffffffffff1681526020019081526020015f205f3373ffffffffffffffffffffffffffffffffffffffff1673ffffffffffffffffffffffffffffffffffffffff1681526020019081526020015f205461130391906180cf565b6161fa565b600190509392505050565b601b5f9054906101000a900460ff1681565b606060175f8373ffffffffffffffffffffffffffffffffffffffff1673ffffffffffffffffffffffffffffffffffffffff1681526020019081526020015f208054806020026020016040519081016040528092919081815260200182805480156113ac57602002820191905f5260205f20905b815481526020019060010190808311611398575b50505050509050919050565b60015f3373ffffffffffffffffffffffffffffffffffffffff1673ffffffffffffffffffffffffffffffffffffffff1681526020019081526020015f205f9054906101000a900460ff168061145757505f8054906101000a900473ffffffffffffffffffffffffffffffffffffffff1673ffffffffffffffffffffffffffffffffffffffff163373ffffffffffffffffffffffffffffffffffffffff16145b611496576040517f08c379a000000000000000000000000000000000000000000000000000000000815260040161148d90617c5e565b60405180910390fd5b6114a03382616772565b6115156040518060400160405280600681526020017f5265776172640000000000000000000000000000000000000000000000000000815250336040518060400160405280602081526020017f434f3220636f6d70656e7361746f727920616374696f6e2072657761726465648152506163bd565b50565b5f818310156115b9575f838361152e91906180cf565b905061153a3382616772565b6115af6040518060400160405280600681526020017f5265776172640000000000000000000000000000000000000000000000000000815250336040518060400160405280601781526020017f434f3220656666696369656e63792072657761726465640000000000000000008152506163bd565b60019150506116dd565b818311156116d9575f82846115ce91906180cf565b905080601c5f3373ffffffffffffffffffffffffffffffffffffffff1673ffffffffffffffffffffffffffffffffffffffff1681526020019081526020015f20541015611650576040517f08c379a000000000000000000000000000000000000000000000000000000000815260040161164790618172565b60405180910390fd5b61165a33826168ea565b6116cf6040518060400160405280600781526020017f50656e616c747900000000000000000000000000000000000000000000000000815250336040518060400160405280601a81526020017f434f3220696e656666696369656e63792070656e616c697a65640000000000008152506163bd565b60019150506116dd565b5f90505b92915050565b815f600b5f8381526020019081526020015f205f015403611739576040517f08c379a0000000000000000000000000000000000000000000000000000000008152600401611730906181da565b60405180910390fd5b60015f3373ffffffffffffffffffffffffffffffffffffffff1673ffffffffffffffffffffffffffffffffffffffff1681526020019081526020015f205f9054906101000a900460ff16806117d857505f8054906101000a900473ffffffffffffffffffffffffffffffffffffffff1673ffffffffffffffffffffffffffffffffffffffff163373ffffffffffffffffffffffffffffffffffffffff16145b611817576040517f08c379a000000000000000000000000000000000000000000000000000000000815260040161180e90617c5e565b60405180910390fd5b5f600b5f8581526020019081526020015f2090506040518060400160405280600881526020017f414343455054454400000000000000000000000000000000000000000000000081525080519060200120838051906020012014806118be57506040518060400160405280600881526020017f52454a4543544544000000000000000000000000000000000000000000000000815250805190602001208380519060200120145b8061190b57506040518060400160405280600981526020017f434f4d504c455445440000000000000000000000000000000000000000000000815250805190602001208380519060200120145b61194a576040517f08c379a000000000000000000000000000000000000000000000000000000000815260040161194190618242565b60405180910390fd5b8281600601908161195b9190617e19565b504281600801819055506119da6040518060400160405280600681526020017f5570646174650000000000000000000000000000000000000000000000000000815250336040518060400160405280601681526020017f52657175657374207374617475732075706461746564000000000000000000008152506163bd565b837f920ecb3a9d71c634312c73afc498939df0205a3aa92b067b88a31434537cf55f84604051611a0a91906174c7565b60405180910390a26040518060400160405280600981526020017f434f4d504c45544544000000000000000000000000000000000000000000000081525080519060200120838051906020012003611a8a57837fb26fe08e4e51c01e5cffff5f4887249599779aa0d4f8636ff4e7cd4831b495ed60405160405180910390a25b50505050565b606060135f8373ffffffffffffffffffffffffffffffffffffffff1673ffffffffffffffffffffffffffffffffffffffff1681526020019081526020015f20805480602002602001604051908101604052809291908181526020018280548015611b1757602002820191905f5260205f20905b815481526020019060010190808311611b03575b50505050509050919050565b60055f3373ffffffffffffffffffffffffffffffffffffffff1673ffffffffffffffffffffffffffffffffffffffff1681526020019081526020015f205f9054906101000a900460ff16611bac576040517f08c379a0000000000000000000000000000000000000000000000000000000008152600401611ba3906182aa565b60405180910390fd5b60045f3373ffffffffffffffffffffffffffffffffffffffff1673ffffffffffffffffffffffffffffffffffffffff1681526020019081526020015f206003015f9054906101000a900460ff16611c38576040517f08c379a0000000000000000000000000000000000000000000000000000000008152600401611c2f90618312565b60405180910390fd5b5f60045f3373ffffffffffffffffffffffffffffffffffffffff1673ffffffffffffffffffffffffffffffffffffffff1681526020019081526020015f206003015f6101000a81548160ff021916908315150217905550611d046040518060400160405280600681526020017f5570646174650000000000000000000000000000000000000000000000000000815250336040518060400160405280601081526020017f55736572206465616374697661746564000000000000000000000000000000008152506163bd565b3373ffffffffffffffffffffffffffffffffffffffff167f5554feec4e87bc4eba14bd62f71df68156f97d26128616fbc27d28e33b35a6b460405160405180910390a2565b5f805f60605f6060805f6060895f60155f8381526020019081526020015f205f015403611dab576040517f08c379a0000000000000000000000000000000000000000000000000000000008152600401611da29061837a565b60405180910390fd5b5f60155f8d81526020019081526020015f20604051806101200160405290815f820154815260200160018201548152602001600282015f9054906101000a900473ffffffffffffffffffffffffffffffffffffffff1673ffffffffffffffffffffffffffffffffffffffff1673ffffffffffffffffffffffffffffffffffffffff168152602001600382018054611e4190617b7c565b80601f0160208091040260200160405190810160405280929190818152602001828054611e6d90617b7c565b8015611eb85780601f10611e8f57610100808354040283529160200191611eb8565b820191905f5260205f20905b815481529060010190602001808311611e9b57829003601f168201915b5050505050815260200160048201548152602001600582018054611edb90617b7c565b80601f0160208091040260200160405190810160405280929190818152602001828054611f0790617b7c565b8015611f525780601f10611f2957610100808354040283529160200191611f52565b820191905f5260205f20905b815481529060010190602001808311611f3557829003601f168201915b50505050508152602001600682018054611f6b90617b7c565b80601f0160208091040260200160405190810160405280929190818152602001828054611f9790617b7c565b8015611fe25780601f10611fb957610100808354040283529160200191611fe2565b820191905f5260205f20905b815481529060010190602001808311611fc557829003601f168201915b505050505081526020016007820154815260200160088201805461200590617b7c565b80601f016020809104026020016040519081016040528092919081815260200182805461203190617b7c565b801561207c5780601f106120535761010080835404028352916020019161207c565b820191905f5260205f20905b81548152906001019060200180831161205f57829003601f168201915b5050505050815250509050805f015181602001518260400151836060015184608001518560a001518660c001518760e001518861010001519a509a509a509a509a509a509a509a509a5050509193959799909294969850565b835f60155f8381526020019081526020015f205f01540361212b576040517f08c379a00000000000000000000000000000000000000000000000000000000081526004016121229061837a565b60405180910390fd5b5f60155f8781526020019081526020015f2090503373ffffffffffffffffffffffffffffffffffffffff16816002015f9054906101000a900473ffffffffffffffffffffffffffffffffffffffff1673ffffffffffffffffffffffffffffffffffffffff1614806121e2575060015f3373ffffffffffffffffffffffffffffffffffffffff1673ffffffffffffffffffffffffffffffffffffffff1681526020019081526020015f205f9054906101000a900460ff165b612221576040517f08c379a000000000000000000000000000000000000000000000000000000000815260040161221890617c5e565b60405180910390fd5b8481600401819055508381600601908161223b9190617e19565b508281600801908161224d9190617e19565b506122c36040518060400160405280600681526020017f5570646174650000000000000000000000000000000000000000000000000000815250336040518060400160405280601d81526020017f5375737461696e6162696c697479206d657472696320757064617465640000008152506163bd565b857f15711b5ee0ad41d7ffec5177341fb8e7f15af6068f90049e7d78998e81eb7152866040516122f39190616ed4565b60405180910390a2505050505050565b835f60115f8381526020019081526020015f205f015403612359576040517f08c379a0000000000000000000000000000000000000000000000000000000008152600401612350906183e2565b60405180910390fd5b5f60115f8781526020019081526020015f2090503373ffffffffffffffffffffffffffffffffffffffff16816002015f9054906101000a900473ffffffffffffffffffffffffffffffffffffffff1673ffffffffffffffffffffffffffffffffffffffff161480612410575060015f3373ffffffffffffffffffffffffffffffffffffffff1673ffffffffffffffffffffffffffffffffffffffff1681526020019081526020015f205f9054906101000a900460ff165b61244f576040517f08c379a000000000000000000000000000000000000000000000000000000000815260040161244690617c5e565b60405180910390fd5b6040518060400160405280600481526020017f504153530000000000000000000000000000000000000000000000000000000081525080519060200120858051906020012014806124e257506040518060400160405280600481526020017f4641494c00000000000000000000000000000000000000000000000000000000815250805190602001208580519060200120145b8061252f57506040518060400160405280600781526020017f50454e44494e4700000000000000000000000000000000000000000000000000815250805190602001208580519060200120145b61256e576040517f08c379a00000000000000000000000000000000000000000000000000000000081526004016125659061844a565b60405180910390fd5b8481600401908161257f9190617e19565b50838160050190816125919190617e19565b50828160070190816125a39190617e19565b506126196040518060400160405280600681526020017f5570646174650000000000000000000000000000000000000000000000000000815250336040518060400160405280601581526020017f5175616c69747920636865636b207570646174656400000000000000000000008152506163bd565b857f12b4cf770205ae25c6fadea1defce15525c7a3a10aad9c28f4af0be5166542e28660405161264991906174c7565b60405180910390a26040518060400160405280600481526020017f504153530000000000000000000000000000000000000000000000000000000081525080519060200120858051906020012014806126e457506040518060400160405280600481526020017f4641494c00000000000000000000000000000000000000000000000000000000815250805190602001208580519060200120145b1561271757857fb2b11f463d9e13cce92c4659379da17af5e7c9bb03df29828bb913461e617adc60405160405180910390a25b505050505050565b5f60055f3373ffffffffffffffffffffffffffffffffffffffff1673ffffffffffffffffffffffffffffffffffffffff1681526020019081526020015f205f9054906101000a900460ff166127a9576040517f08c379a00000000000000000000000000000000000000000000000000000000081526004016127a0906182aa565b60405180910390fd5b5f8651116127ec576040517f08c379a00000000000000000000000000000000000000000000000000000000081526004016127e3906184b2565b60405180910390fd5b5f84511161282f576040517f08c379a00000000000000000000000000000000000000000000000000000000081526004016128269061851a565b60405180910390fd5b5f835111612872576040517f08c379a000000000000000000000000000000000000000000000000000000000815260040161286990618582565b60405180910390fd5b60065f815480929190612884906185a0565b91905055505f60065490506040518061012001604052808281526020018881526020018781526020018681526020018581526020013373ffffffffffffffffffffffffffffffffffffffff1681526020014281526020016001151581526020018481525060075f8381526020019081526020015f205f820151815f015560208201518160010190816129169190617e19565b50604082015181600201908161292c9190617e19565b5060608201518160030190816129429190617e19565b5060808201518160040190816129589190617e19565b5060a0820151816005015f6101000a81548173ffffffffffffffffffffffffffffffffffffffff021916908373ffffffffffffffffffffffffffffffffffffffff16021790555060c0820151816006015560e0820151816007015f6101000a81548160ff0219169083151502179055506101008201518160080190816129de9190617e19565b5090505060085f3373ffffffffffffffffffffffffffffffffffffffff1673ffffffffffffffffffffffffffffffffffffffff1681526020019081526020015f2081908060018154018082558091505060019003905f5260205f20015f9091909190915055600985604051612a539190618621565b908152602001604051809103902081908060018154018082558091505060019003905f5260205f20015f9091909190915055612afa6040518060400160405280600681526020017f4372656174650000000000000000000000000000000000000000000000000000815250336040518060400160405280600f81526020017f50726f64756374206372656174656400000000000000000000000000000000008152506163bd565b3373ffffffffffffffffffffffffffffffffffffffff16817f91bfc064380de20e1c90ea2ed78d0358b4ab45d446c0b93b0b07bc86f95897da89604051612b4191906174c7565b60405180910390a38091505095945050505050565b815f600e5f8381526020019081526020015f205f015403612bac576040517f08c379a0000000000000000000000000000000000000000000000000000000008152600401612ba390617bf6565b60405180910390fd5b5f600e5f8581526020019081526020015f2090503373ffffffffffffffffffffffffffffffffffffffff16816001015f9054906101000a900473ffffffffffffffffffffffffffffffffffffffff1673ffffffffffffffffffffffffffffffffffffffff161480612c63575060015f3373ffffffffffffffffffffffffffffffffffffffff1673ffffffffffffffffffffffffffffffffffffffff1681526020019081526020015f205f9054906101000a900460ff165b612ca2576040517f08c379a0000000000000000000000000000000000000000000000000000000008152600401612c9990617c5e565b60405180910390fd5b6040518060400160405280600b81526020017f494e5f50524f47524553530000000000000000000000000000000000000000008152508051906020012083805190602001201480612d3557506040518060400160405280600981526020017f434f4d504c455445440000000000000000000000000000000000000000000000815250805190602001208380519060200120145b80612d8257506040518060400160405280600981526020017f43414e43454c4c45440000000000000000000000000000000000000000000000815250805190602001208380519060200120145b612dc1576040517f08c379a0000000000000000000000000000000000000000000000000000000008152600401612db890618242565b60405180910390fd5b82816006019081612dd29190617e19565b50612e486040518060400160405280600681526020017f5570646174650000000000000000000000000000000000000000000000000000815250336040518060400160405280601881526020017f4f7065726174696f6e20737461747573207570646174656400000000000000008152506163bd565b837f5ce2807b483df48397bfa712826f58b2c885e4abf28bb96352c6da74906c155184604051612e7891906174c7565b60405180910390a250505050565b60055f3373ffffffffffffffffffffffffffffffffffffffff1673ffffffffffffffffffffffffffffffffffffffff1681526020019081526020015f205f9054906101000a900460ff16612f0f576040517f08c379a0000000000000000000000000000000000000000000000000000000008152600401612f06906182aa565b60405180910390fd5b60045f3373ffffffffffffffffffffffffffffffffffffffff1673ffffffffffffffffffffffffffffffffffffffff1681526020019081526020015f206003015f9054906101000a900460ff16612f9b576040517f08c379a0000000000000000000000000000000000000000000000000000000008152600401612f9290618681565b60405180910390fd5b8260045f3373ffffffffffffffffffffffffffffffffffffffff1673ffffffffffffffffffffffffffffffffffffffff1681526020019081526020015f205f019081612fe79190617e19565b508160045f3373ffffffffffffffffffffffffffffffffffffffff1673ffffffffffffffffffffffffffffffffffffffff1681526020019081526020015f2060010190816130359190617e19565b508060045f3373ffffffffffffffffffffffffffffffffffffffff1673ffffffffffffffffffffffffffffffffffffffff1681526020019081526020015f2060020190816130839190617e19565b506130f96040518060400160405280600681526020017f5570646174650000000000000000000000000000000000000000000000000000815250336040518060400160405280600c81526020017f55736572207570646174656400000000000000000000000000000000000000008152506163bd565b3373ffffffffffffffffffffffffffffffffffffffff167fe5d18d6612696bff7df1db8015eac613241613297fa2ba2783993e4fd0e76f3d848360405161314192919061869f565b60405180910390a2505050565b6019805461315b90617b7c565b80601f016020809104026020016040519081016040528092919081815260200182805461318790617b7c565b80156131d25780601f106131a9576101008083540402835291602001916131d2565b820191905f5260205f20905b8154815290600101906020018083116131b557829003601f168201915b505050505081565b60608060605f8060055f8773ffffffffffffffffffffffffffffffffffffffff1673ffffffffffffffffffffffffffffffffffffffff1681526020019081526020015f205f9054906101000a900460ff1661326a576040517f08c379a0000000000000000000000000000000000000000000000000000000008152600401613261906182aa565b60405180910390fd5b5f60045f8873ffffffffffffffffffffffffffffffffffffffff1673ffffffffffffffffffffffffffffffffffffffff1681526020019081526020015f206040518060a00160405290815f820180546132c290617b7c565b80601f01602080910402602001604051908101604052809291908181526020018280546132ee90617b7c565b80156133395780601f1061331057610100808354040283529160200191613339565b820191905f5260205f20905b81548152906001019060200180831161331c57829003601f168201915b5050505050815260200160018201805461335290617b7c565b80601f016020809104026020016040519081016040528092919081815260200182805461337e90617b7c565b80156133c95780601f106133a0576101008083540402835291602001916133c9565b820191905f5260205f20905b8154815290600101906020018083116133ac57829003601f168201915b505050505081526020016002820180546133e290617b7c565b80601f016020809104026020016040519081016040528092919081815260200182805461340e90617b7c565b80156134595780601f1061343057610100808354040283529160200191613459565b820191905f5260205f20905b81548152906001019060200180831161343c57829003601f168201915b50505050508152602001600382015f9054906101000a900460ff161515151581526020016004820154815250509050805f01518160200151826040015183606001518460800151955095509550955095505091939590929450565b5f601c5f8373ffffffffffffffffffffffffffffffffffffffff1673ffffffffffffffffffffffffffffffffffffffff1681526020019081526020015f20549050919050565b601a805461350790617b7c565b80601f016020809104026020016040519081016040528092919081815260200182805461353390617b7c565b801561357e5780601f106135555761010080835404028352916020019161357e565b820191905f5260205f20905b81548152906001019060200180831161356157829003601f168201915b505050505081565b606060085f8373ffffffffffffffffffffffffffffffffffffffff1673ffffffffffffffffffffffffffffffffffffffff1681526020019081526020015f2080548060200260200160405190810160405280929190818152602001828054801561360d57602002820191905f5260205f20905b8154815260200190600101908083116135f9575b50505050509050919050565b606060098260405161362b9190618621565b908152602001604051809103902080548060200260200160405190810160405280929190818152602001828054801561368157602002820191905f5260205f20905b81548152602001906001019080831161366d575b50505050509050919050565b5f60055f3373ffffffffffffffffffffffffffffffffffffffff1673ffffffffffffffffffffffffffffffffffffffff1681526020019081526020015f205f9054906101000a900460ff16613717576040517f08c379a000000000000000000000000000000000000000000000000000000000815260040161370e906182aa565b60405180910390fd5b5f85511161375a576040517f08c379a00000000000000000000000000000000000000000000000000000000081526004016137519061871e565b60405180910390fd5b5f841161379c576040517f08c379a000000000000000000000000000000000000000000000000000000000815260040161379390618786565b60405180910390fd5b5f8351116137df576040517f08c379a00000000000000000000000000000000000000000000000000000000081526004016137d690618582565b60405180910390fd5b428211613821576040517f08c379a0000000000000000000000000000000000000000000000000000000008152600401613818906187ee565b60405180910390fd5b600a5f815480929190613833906185a0565b91905055505f600a5490506040518061012001604052808281526020013373ffffffffffffffffffffffffffffffffffffffff1681526020018781526020018681526020018581526020018481526020016040518060400160405280600781526020017f50454e44494e4700000000000000000000000000000000000000000000000000815250815260200142815260200142815250600b5f8381526020019081526020015f205f820151815f01556020820151816001015f6101000a81548173ffffffffffffffffffffffffffffffffffffffff021916908373ffffffffffffffffffffffffffffffffffffffff160217905550604082015181600201908161393d9190617e19565b5060608201518160030155608082015181600401908161395d9190617e19565b5060a0820151816005015560c082015181600601908161397d9190617e19565b5060e082015181600701556101008201518160080155905050600c5f3373ffffffffffffffffffffffffffffffffffffffff1673ffffffffffffffffffffffffffffffffffffffff1681526020019081526020015f2081908060018154018082558091505060019003905f5260205f20015f9091909190915055613a6c6040518060400160405280600681526020017f4372656174650000000000000000000000000000000000000000000000000000815250336040518060400160405280600f81526020017f52657175657374206372656174656400000000000000000000000000000000008152506163bd565b3373ffffffffffffffffffffffffffffffffffffffff16817f98211bd435874dca36f94fe4bd56dc2d934b75c5c6bcab9f7e7b079addc48b4e88604051613ab391906174c7565b60405180910390a380915050949350505050565b5f8054906101000a900473ffffffffffffffffffffffffffffffffffffffff1681565b5f8054906101000a900473ffffffffffffffffffffffffffffffffffffffff1673ffffffffffffffffffffffffffffffffffffffff163373ffffffffffffffffffffffffffffffffffffffff1614613b77576040517f08c379a0000000000000000000000000000000000000000000000000000000008152600401613b6e9061887c565b60405180910390fd5b5f73ffffffffffffffffffffffffffffffffffffffff168173ffffffffffffffffffffffffffffffffffffffff1603613be5576040517f08c379a0000000000000000000000000000000000000000000000000000000008152600401613bdc906188e4565b60405180910390fd5b60015f8273ffffffffffffffffffffffffffffffffffffffff1673ffffffffffffffffffffffffffffffffffffffff1681526020019081526020015f205f9054906101000a900460ff1615613c6f576040517f08c379a0000000000000000000000000000000000000000000000000000000008152600401613c669061894c565b60405180910390fd5b6001805f8373ffffffffffffffffffffffffffffffffffffffff1673ffffffffffffffffffffffffffffffffffffffff1681526020019081526020015f205f6101000a81548160ff0219169083151502179055508073ffffffffffffffffffffffffffffffffffffffff167fcc13c9db8dd1ea1e88548833406d061f3c0cdddb6f94660374e5515d0b95ce0960405160405180910390a250565b805f60155f8381526020019081526020015f205f015403613d5f576040517f08c379a0000000000000000000000000000000000000000000000000000000008152600401613d569061837a565b60405180910390fd5b60015f3373ffffffffffffffffffffffffffffffffffffffff1673ffffffffffffffffffffffffffffffffffffffff1681526020019081526020015f205f9054906101000a900460ff1680613dfe57505f8054906101000a900473ffffffffffffffffffffffffffffffffffffffff1673ffffffffffffffffffffffffffffffffffffffff163373ffffffffffffffffffffffffffffffffffffffff16145b613e3d576040517f08c379a0000000000000000000000000000000000000000000000000000000008152600401613e3490617c5e565b60405180910390fd5b613eb26040518060400160405280600681526020017f5665726966790000000000000000000000000000000000000000000000000000815250336040518060400160405280601e81526020017f5375737461696e6162696c697479206d657472696320766572696669656400008152506163bd565b817fb84f253dee94b13dca6750497c6598c7150d78cfdda2cc0f0245db1b4bcd5f5f33604051613ee29190617630565b60405180910390a25050565b5f60055f3373ffffffffffffffffffffffffffffffffffffffff1673ffffffffffffffffffffffffffffffffffffffff1681526020019081526020015f205f9054906101000a900460ff16613f78576040517f08c379a0000000000000000000000000000000000000000000000000000000008152600401613f6f906182aa565b60405180910390fd5b5f855111613fbb576040517f08c379a0000000000000000000000000000000000000000000000000000000008152600401613fb2906189b4565b60405180910390fd5b5f845111613ffe576040517f08c379a0000000000000000000000000000000000000000000000000000000008152600401613ff590618a1c565b60405180910390fd5b5f835111614041576040517f08c379a000000000000000000000000000000000000000000000000000000000815260040161403890618a84565b60405180910390fd5b600d5f815480929190614053906185a0565b91905055505f600d5490506040518061010001604052808281526020013373ffffffffffffffffffffffffffffffffffffffff1681526020018781526020018681526020018581526020014281526020016040518060400160405280600b81526020017f494e5f50524f4752455353000000000000000000000000000000000000000000815250815260200184815250600e5f8381526020019081526020015f205f820151815f01556020820151816001015f6101000a81548173ffffffffffffffffffffffffffffffffffffffff021916908373ffffffffffffffffffffffffffffffffffffffff16021790555060408201518160020190816141579190617e19565b50606082015181600301908161416d9190617e19565b5060808201518160040190816141839190617e19565b5060a0820151816005015560c08201518160060190816141a39190617e19565b5060e08201518160070190816141b99190617e19565b50905050600f5f3373ffffffffffffffffffffffffffffffffffffffff1673ffffffffffffffffffffffffffffffffffffffff1681526020019081526020015f2081908060018154018082558091505060019003905f5260205f20015f90919091909150556142936040518060400160405280600681526020017f4372656174650000000000000000000000000000000000000000000000000000815250336040518060400160405280601181526020017f4f7065726174696f6e20637265617465640000000000000000000000000000008152506163bd565b3373ffffffffffffffffffffffffffffffffffffffff16817f24a439a0f1a1fabccf0e86a4e3dff944e1321e09cc9652d4e03c0b93a15feea7886040516142da91906174c7565b60405180910390a380915050949350505050565b606060125f8381526020019081526020015f2080548060200260200160405190810160405280929190818152602001828054801561434957602002820191905f5260205f20905b815481526020019060010190808311614335575b50505050509050919050565b5f614361338484616506565b6001905092915050565b6060600c5f8373ffffffffffffffffffffffffffffffffffffffff1673ffffffffffffffffffffffffffffffffffffffff1681526020019081526020015f208054806020026020016040519081016040528092919081815260200182805480156143f257602002820191905f5260205f20905b8154815260200190600101908083116143de575b50505050509050919050565b5f6060806060805f805f6060895f60075f8381526020019081526020015f205f015403614460576040517f08c379a000000000000000000000000000000000000000000000000000000000815260040161445790618aec565b60405180910390fd5b5f60075f8d81526020019081526020015f20604051806101200160405290815f820154815260200160018201805461449790617b7c565b80601f01602080910402602001604051908101604052809291908181526020018280546144c390617b7c565b801561450e5780601f106144e55761010080835404028352916020019161450e565b820191905f5260205f20905b8154815290600101906020018083116144f157829003601f168201915b5050505050815260200160028201805461452790617b7c565b80601f016020809104026020016040519081016040528092919081815260200182805461455390617b7c565b801561459e5780601f106145755761010080835404028352916020019161459e565b820191905f5260205f20905b81548152906001019060200180831161458157829003601f168201915b505050505081526020016003820180546145b790617b7c565b80601f01602080910402602001604051908101604052809291908181526020018280546145e390617b7c565b801561462e5780601f106146055761010080835404028352916020019161462e565b820191905f5260205f20905b81548152906001019060200180831161461157829003601f168201915b5050505050815260200160048201805461464790617b7c565b80601f016020809104026020016040519081016040528092919081815260200182805461467390617b7c565b80156146be5780601f10614695576101008083540402835291602001916146be565b820191905f5260205f20905b8154815290600101906020018083116146a157829003601f168201915b50505050508152602001600582015f9054906101000a900473ffffffffffffffffffffffffffffffffffffffff1673ffffffffffffffffffffffffffffffffffffffff1673ffffffffffffffffffffffffffffffffffffffff16815260200160068201548152602001600782015f9054906101000a900460ff1615151515815260200160088201805461475090617b7c565b80601f016020809104026020016040519081016040528092919081815260200182805461477c90617b7c565b80156147c75780601f1061479e576101008083540402835291602001916147c7565b820191905f5260205f20905b8154815290600101906020018083116147aa57829003601f168201915b5050505050815250509050805f015181602001518260400151836060015184608001518560a001518660c001518760e001518861010001519a509a509a509a509a509a509a509a509a5050509193959799909294969850565b60606018826040516148329190618621565b908152602001604051809103902080548060200260200160405190810160405280929190818152602001828054801561488857602002820191905f5260205f20905b815481526020019060010190808311614874575b50505050509050919050565b5f8060605f60605f60605f80895f600b5f8381526020019081526020015f205f0154036148f6576040517f08c379a00000000000000000000000000000000000000000000000000000000081526004016148ed906181da565b60405180910390fd5b5f600b5f8d81526020019081526020015f20604051806101200160405290815f8201548152602001600182015f9054906101000a900473ffffffffffffffffffffffffffffffffffffffff1673ffffffffffffffffffffffffffffffffffffffff1673ffffffffffffffffffffffffffffffffffffffff16815260200160028201805461498290617b7c565b80601f01602080910402602001604051908101604052809291908181526020018280546149ae90617b7c565b80156149f95780601f106149d0576101008083540402835291602001916149f9565b820191905f5260205f20905b8154815290600101906020018083116149dc57829003601f168201915b5050505050815260200160038201548152602001600482018054614a1c90617b7c565b80601f0160208091040260200160405190810160405280929190818152602001828054614a4890617b7c565b8015614a935780601f10614a6a57610100808354040283529160200191614a93565b820191905f5260205f20905b815481529060010190602001808311614a7657829003601f168201915b5050505050815260200160058201548152602001600682018054614ab690617b7c565b80601f0160208091040260200160405190810160405280929190818152602001828054614ae290617b7c565b8015614b2d5780601f10614b0457610100808354040283529160200191614b2d565b820191905f5260205f20905b815481529060010190602001808311614b1057829003601f168201915b50505050508152602001600782015481526020016008820154815250509050805f015181602001518260400151836060015184608001518560a001518660c001518760e001518861010001519a509a509a509a509a509a509a509a509a5050509193959799909294969850565b606060165f8381526020019081526020015f20805480602002602001604051908101604052809291908181526020018280548015614bf557602002820191905f5260205f20905b815481526020019060010190808311614be1575b50505050509050919050565b60055f3373ffffffffffffffffffffffffffffffffffffffff1673ffffffffffffffffffffffffffffffffffffffff1681526020019081526020015f205f9054906101000a900460ff1615614c8b576040517f08c379a0000000000000000000000000000000000000000000000000000000008152600401614c8290618b54565b60405180910390fd5b5f835111614cce576040517f08c379a0000000000000000000000000000000000000000000000000000000008152600401614cc5906184b2565b60405180910390fd5b5f825111614d11576040517f08c379a0000000000000000000000000000000000000000000000000000000008152600401614d0890618bbc565b60405180910390fd5b5f815111614d54576040517f08c379a0000000000000000000000000000000000000000000000000000000008152600401614d4b90618c24565b60405180910390fd5b6040518060a001604052808481526020018381526020018281526020016001151581526020014281525060045f3373ffffffffffffffffffffffffffffffffffffffff1673ffffffffffffffffffffffffffffffffffffffff1681526020019081526020015f205f820151815f019081614dce9190617e19565b506020820151816001019081614de49190617e19565b506040820151816002019081614dfa9190617e19565b506060820151816003015f6101000a81548160ff02191690831515021790555060808201518160040155905050600160055f3373ffffffffffffffffffffffffffffffffffffffff1673ffffffffffffffffffffffffffffffffffffffff1681526020019081526020015f205f6101000a81548160ff021916908315150217905550614ef16040518060400160405280600681526020017f4372656174650000000000000000000000000000000000000000000000000000815250336040518060400160405280600f81526020017f55736572207265676973746572656400000000000000000000000000000000008152506163bd565b3373ffffffffffffffffffffffffffffffffffffffff167f92822564bab8864c3a47b34e8d23fbce5c46234eb5da261f94087b995ac0f33b8483604051614f3992919061869f565b60405180910390a2505050565b855f60075f8381526020019081526020015f205f015403614f9c576040517f08c379a0000000000000000000000000000000000000000000000000000000008152600401614f9390618aec565b60405180910390fd5b5f60075f8981526020019081526020015f2090503373ffffffffffffffffffffffffffffffffffffffff16816005015f9054906101000a900473ffffffffffffffffffffffffffffffffffffffff1673ffffffffffffffffffffffffffffffffffffffff1614615041576040517f08c379a000000000000000000000000000000000000000000000000000000000815260040161503890618c8c565b60405180910390fd5b806007015f9054906101000a900460ff16615091576040517f08c379a000000000000000000000000000000000000000000000000000000000815260040161508890618cf4565b60405180910390fd5b868160010190816150a29190617e19565b50858160020190816150b49190617e19565b50848160030190816150c69190617e19565b50838160040190816150d89190617e19565b50828160080190816150ea9190617e19565b506151606040518060400160405280600681526020017f5570646174650000000000000000000000000000000000000000000000000000815250336040518060400160405280600f81526020017f50726f64756374207570646174656400000000000000000000000000000000008152506163bd565b877fdad7092ee1ca215307c34b5dd865bb1f9be7e1f0110d230eaefd78fa4742903e8860405161519091906174c7565b60405180910390a25050505050505050565b5f601d5f8473ffffffffffffffffffffffffffffffffffffffff1673ffffffffffffffffffffffffffffffffffffffff1681526020019081526020015f205f8373ffffffffffffffffffffffffffffffffffffffff1673ffffffffffffffffffffffffffffffffffffffff1681526020019081526020015f2054905092915050565b6060600f5f8373ffffffffffffffffffffffffffffffffffffffff1673ffffffffffffffffffffffffffffffffffffffff1681526020019081526020015f208054806020026020016040519081016040528092919081815260200182805480156152ab57602002820191905f5260205f20905b815481526020019060010190808311615297575b50505050509050919050565b5f60055f3373ffffffffffffffffffffffffffffffffffffffff1673ffffffffffffffffffffffffffffffffffffffff1681526020019081526020015f205f9054906101000a900460ff16615341576040517f08c379a0000000000000000000000000000000000000000000000000000000008152600401615338906182aa565b60405180910390fd5b5f845111615384576040517f08c379a000000000000000000000000000000000000000000000000000000000815260040161537b90618d5c565b60405180910390fd5b5f8351116153c7576040517f08c379a00000000000000000000000000000000000000000000000000000000081526004016153be90618dc4565b60405180910390fd5b60105f8154809291906153d9906185a0565b91905055505f60105490506040518061010001604052808281526020018781526020013373ffffffffffffffffffffffffffffffffffffffff1681526020018681526020016040518060400160405280600781526020017f50454e44494e470000000000000000000000000000000000000000000000000081525081526020018581526020014281526020018481525060115f8381526020019081526020015f205f820151815f0155602082015181600101556040820151816002015f6101000a81548173ffffffffffffffffffffffffffffffffffffffff021916908373ffffffffffffffffffffffffffffffffffffffff16021790555060608201518160030190816154e79190617e19565b5060808201518160040190816154fd9190617e19565b5060a08201518160050190816155139190617e19565b5060c0820151816006015560e08201518160070190816155339190617e19565b5090505060125f8781526020019081526020015f2081908060018154018082558091505060019003905f5260205f20015f909190919091505560135f3373ffffffffffffffffffffffffffffffffffffffff1673ffffffffffffffffffffffffffffffffffffffff1681526020019081526020015f2081908060018154018082558091505060019003905f5260205f20015f90919091909150556156426040518060400160405280600681526020017f4372656174650000000000000000000000000000000000000000000000000000815250336040518060400160405280601581526020017f5175616c69747920636865636b206372656174656400000000000000000000008152506163bd565b3373ffffffffffffffffffffffffffffffffffffffff1686827f912f672b97efee0c5712ee4c89e54cf34e9d3bc4d78c34ee5726f967abddf39b60405160405180910390a480915050949350505050565b5f60055f3373ffffffffffffffffffffffffffffffffffffffff1673ffffffffffffffffffffffffffffffffffffffff1681526020019081526020015f205f9054906101000a900460ff1661571d576040517f08c379a0000000000000000000000000000000000000000000000000000000008152600401615714906182aa565b60405180910390fd5b5f865111615760576040517f08c379a000000000000000000000000000000000000000000000000000000000815260040161575790618e2c565b60405180910390fd5b5f8451116157a3576040517f08c379a000000000000000000000000000000000000000000000000000000000815260040161579a90618582565b60405180910390fd5b5f8351116157e6576040517f08c379a00000000000000000000000000000000000000000000000000000000081526004016157dd90618e94565b60405180910390fd5b60145f8154809291906157f8906185a0565b91905055505f60145490506040518061012001604052808281526020018981526020013373ffffffffffffffffffffffffffffffffffffffff1681526020018881526020018781526020018681526020018581526020014281526020018481525060155f8381526020019081526020015f205f820151815f0155602082015181600101556040820151816002015f6101000a81548173ffffffffffffffffffffffffffffffffffffffff021916908373ffffffffffffffffffffffffffffffffffffffff16021790555060608201518160030190816158d79190617e19565b506080820151816004015560a08201518160050190816158f79190617e19565b5060c082015181600601908161590d9190617e19565b5060e0820151816007015561010082015181600801908161592e9190617e19565b5090505060165f8981526020019081526020015f2081908060018154018082558091505060019003905f5260205f20015f909190919091505560175f3373ffffffffffffffffffffffffffffffffffffffff1673ffffffffffffffffffffffffffffffffffffffff1681526020019081526020015f2081908060018154018082558091505060019003905f5260205f20015f90919091909150556018876040516159d89190618621565b908152602001604051809103902081908060018154018082558091505060019003905f5260205f20015f9091909190915055615a7f6040518060400160405280600681526020017f4372656174650000000000000000000000000000000000000000000000000000815250336040518060400160405280601e81526020017f5375737461696e6162696c697479206d6574726963207265636f7264656400008152506163bd565b87817f9b828a64c056c0bcc69dbfa5b2cbc9edbd8018fb94e6e18e19a0841fdb832c9989604051615ab091906174c7565b60405180910390a3809150509695505050505050565b5f8054906101000a900473ffffffffffffffffffffffffffffffffffffffff1673ffffffffffffffffffffffffffffffffffffffff163373ffffffffffffffffffffffffffffffffffffffff1614615b53576040517f08c379a0000000000000000000000000000000000000000000000000000000008152600401615b4a9061887c565b60405180910390fd5b60015f8273ffffffffffffffffffffffffffffffffffffffff1673ffffffffffffffffffffffffffffffffffffffff1681526020019081526020015f205f9054906101000a900460ff16615bdc576040517f08c379a0000000000000000000000000000000000000000000000000000000008152600401615bd390618efc565b60405180910390fd5b5f60015f8373ffffffffffffffffffffffffffffffffffffffff1673ffffffffffffffffffffffffffffffffffffffff1681526020019081526020015f205f6101000a81548160ff0219169083151502179055508073ffffffffffffffffffffffffffffffffffffffff167fa5f3b7626fd86ff989f1d22cf3d41d74591ea6eb99241079400b0c332a9a8f1160405160405180910390a250565b805f60075f8381526020019081526020015f205f015403615ccc576040517f08c379a0000000000000000000000000000000000000000000000000000000008152600401615cc390618aec565b60405180910390fd5b5f60075f8481526020019081526020015f2090503373ffffffffffffffffffffffffffffffffffffffff16816005015f9054906101000a900473ffffffffffffffffffffffffffffffffffffffff1673ffffffffffffffffffffffffffffffffffffffff1614615d71576040517f08c379a0000000000000000000000000000000000000000000000000000000008152600401615d6890618f8a565b60405180910390fd5b806007015f9054906101000a900460ff16615dc1576040517f08c379a0000000000000000000000000000000000000000000000000000000008152600401615db890618ff2565b60405180910390fd5b5f816007015f6101000a81548160ff021916908315150217905550615e516040518060400160405280600681526020017f5570646174650000000000000000000000000000000000000000000000000000815250336040518060400160405280601381526020017f50726f64756374206465616374697661746564000000000000000000000000008152506163bd565b827f241c84b17626110b8c42e26f8f7de483066e7f266953509e01046f09e6fdd6cc60405160405180910390a2505050565b5f805f60608060605f6060885f60115f8381526020019081526020015f205f015403615ee4576040517f08c379a0000000000000000000000000000000000000000000000000000000008152600401615edb906183e2565b60405180910390fd5b5f60115f8c81526020019081526020015f20604051806101000160405290815f820154815260200160018201548152602001600282015f9054906101000a900473ffffffffffffffffffffffffffffffffffffffff1673ffffffffffffffffffffffffffffffffffffffff1673ffffffffffffffffffffffffffffffffffffffff168152602001600382018054615f7a90617b7c565b80601f0160208091040260200160405190810160405280929190818152602001828054615fa690617b7c565b8015615ff15780601f10615fc857610100808354040283529160200191615ff1565b820191905f5260205f20905b815481529060010190602001808311615fd457829003601f168201915b5050505050815260200160048201805461600a90617b7c565b80601f016020809104026020016040519081016040528092919081815260200182805461603690617b7c565b80156160815780601f1061605857610100808354040283529160200191616081565b820191905f5260205f20905b81548152906001019060200180831161606457829003601f168201915b5050505050815260200160058201805461609a90617b7c565b80601f01602080910402602001604051908101604052809291908181526020018280546160c690617b7c565b80156161115780601f106160e857610100808354040283529160200191616111565b820191905f5260205f20905b8154815290600101906020018083116160f457829003601f168201915b505050505081526020016006820154815260200160078201805461613490617b7c565b80601f016020809104026020016040519081016040528092919081815260200182805461616090617b7c565b80156161ab5780601f10616182576101008083540402835291602001916161ab565b820191905f5260205f20905b81548152906001019060200180831161618e57829003601f168201915b5050505050815250509050805f015181602001518260400151836060015184608001518560a001518660c001518760e00151995099509950995099509950995099505050919395975091939597565b5f73ffffffffffffffffffffffffffffffffffffffff168373ffffffffffffffffffffffffffffffffffffffff1603616268576040517f08c379a000000000000000000000000000000000000000000000000000000000815260040161625f9061905a565b60405180910390fd5b5f73ffffffffffffffffffffffffffffffffffffffff168273ffffffffffffffffffffffffffffffffffffffff16036162d6576040517f08c379a00000000000000000000000000000000000000000000000000000000081526004016162cd906190c2565b60405180910390fd5b80601d5f8573ffffffffffffffffffffffffffffffffffffffff1673ffffffffffffffffffffffffffffffffffffffff1681526020019081526020015f205f8473ffffffffffffffffffffffffffffffffffffffff1673ffffffffffffffffffffffffffffffffffffffff1681526020019081526020015f20819055508173ffffffffffffffffffffffffffffffffffffffff168373ffffffffffffffffffffffffffffffffffffffff167f8c5be1e5ebec7d5bd14f71427d1e84f3dd0314c0f7b2291e5b200ac8c7c3b925836040516163b09190616ed4565b60405180910390a3505050565b60025f8154809291906163cf906185a0565b91905055506040518060a0016040528060025481526020018481526020018373ffffffffffffffffffffffffffffffffffffffff1681526020014281526020018281525060035f60025481526020019081526020015f205f820151815f015560208201518160010190816164439190617e19565b506040820151816002015f6101000a81548173ffffffffffffffffffffffffffffffffffffffff021916908373ffffffffffffffffffffffffffffffffffffffff1602179055506060820151816003015560808201518160040190816164a99190617e19565b50905050428273ffffffffffffffffffffffffffffffffffffffff166002547fe86a507520becf12a8af905b0439cc89b6324debbcd37cbf4bd903c8eb04fbb386856040516164f992919061869f565b60405180910390a4505050565b5f73ffffffffffffffffffffffffffffffffffffffff168373ffffffffffffffffffffffffffffffffffffffff1603616574576040517f08c379a000000000000000000000000000000000000000000000000000000000815260040161656b9061912a565b60405180910390fd5b5f73ffffffffffffffffffffffffffffffffffffffff168273ffffffffffffffffffffffffffffffffffffffff16036165e2576040517f08c379a00000000000000000000000000000000000000000000000000000000081526004016165d990619192565b60405180910390fd5b80601c5f8573ffffffffffffffffffffffffffffffffffffffff1673ffffffffffffffffffffffffffffffffffffffff1681526020019081526020015f20541015616662576040517f08c379a0000000000000000000000000000000000000000000000000000000008152600401616659906191fa565b60405180910390fd5b80601c5f8573ffffffffffffffffffffffffffffffffffffffff1673ffffffffffffffffffffffffffffffffffffffff1681526020019081526020015f205f8282546166ae91906180cf565b9250508190555080601c5f8473ffffffffffffffffffffffffffffffffffffffff1673ffffffffffffffffffffffffffffffffffffffff1681526020019081526020015f205f8282546167019190619218565b925050819055508173ffffffffffffffffffffffffffffffffffffffff168373ffffffffffffffffffffffffffffffffffffffff167fddf252ad1be2c89b69c2b068fc378daa952ba7f163c4a11628f55a4df523b3ef836040516167659190616ed4565b60405180910390a3505050565b5f73ffffffffffffffffffffffffffffffffffffffff168273ffffffffffffffffffffffffffffffffffffffff16036167e0576040517f08c379a00000000000000000000000000000000000000000000000000000000081526004016167d790619295565b60405180910390fd5b80601c5f8473ffffffffffffffffffffffffffffffffffffffff1673ffffffffffffffffffffffffffffffffffffffff1681526020019081526020015f205f82825461682c9190619218565b925050819055508173ffffffffffffffffffffffffffffffffffffffff167f3f2c9d57c068687834f0de942a9babb9e5acab57d516d3480a3c16ee165a4273826040516168799190616ed4565b60405180910390a28173ffffffffffffffffffffffffffffffffffffffff165f73ffffffffffffffffffffffffffffffffffffffff167fddf252ad1be2c89b69c2b068fc378daa952ba7f163c4a11628f55a4df523b3ef836040516168de9190616ed4565b60405180910390a35050565b5f73ffffffffffffffffffffffffffffffffffffffff168273ffffffffffffffffffffffffffffffffffffffff1603616958576040517f08c379a000000000000000000000000000000000000000000000000000000000815260040161694f906192fd565b60405180910390fd5b80601c5f8473ffffffffffffffffffffffffffffffffffffffff1673ffffffffffffffffffffffffffffffffffffffff1681526020019081526020015f205410156169d8576040517f08c379a00000000000000000000000000000000000000000000000000000000081526004016169cf90619365565b60405180910390fd5b80601c5f8473ffffffffffffffffffffffffffffffffffffffff1673ffffffffffffffffffffffffffffffffffffffff1681526020019081526020015f205f828254616a2491906180cf565b925050819055508173ffffffffffffffffffffffffffffffffffffffff167ffd38818f5291bf0bb3a2a48aadc06ba8757865d1dabd804585338aab3009dcb682604051616a719190616ed4565b60405180910390a25f73ffffffffffffffffffffffffffffffffffffffff168273ffffffffffffffffffffffffffffffffffffffff167fddf252ad1be2c89b69c2b068fc378daa952ba7f163c4a11628f55a4df523b3ef83604051616ad69190616ed4565b60405180910390a35050565b5f604051905090565b5f80fd5b5f80fd5b5f819050919050565b616b0581616af3565b8114616b0f575f80fd5b50565b5f81359050616b2081616afc565b92915050565b5f60208284031215616b3b57616b3a616aeb565b5b5f616b4884828501616b12565b91505092915050565b616b5a81616af3565b82525050565b5f81519050919050565b5f82825260208201905092915050565b5f5b83811015616b97578082015181840152602081019050616b7c565b5f8484015250505050565b5f601f19601f8301169050919050565b5f616bbc82616b60565b616bc68185616b6a565b9350616bd6818560208601616b7a565b616bdf81616ba2565b840191505092915050565b5f73ffffffffffffffffffffffffffffffffffffffff82169050919050565b5f616c1382616bea565b9050919050565b616c2381616c09565b82525050565b5f60a082019050616c3c5f830188616b51565b8181036020830152616c4e8187616bb2565b9050616c5d6040830186616c1a565b616c6a6060830185616b51565b8181036080830152616c7c8184616bb2565b90509695505050505050565b616c9181616c09565b8114616c9b575f80fd5b50565b5f81359050616cac81616c88565b92915050565b5f8060408385031215616cc857616cc7616aeb565b5b5f616cd585828601616c9e565b9250506020616ce685828601616b12565b9150509250929050565b5f8115159050919050565b616d0481616cf0565b82525050565b5f602082019050616d1d5f830184616cfb565b92915050565b5f80fd5b5f80fd5b7f4e487b71000000000000000000000000000000000000000000000000000000005f52604160045260245ffd5b616d6182616ba2565b810181811067ffffffffffffffff82111715616d8057616d7f616d2b565b5b80604052505050565b5f616d92616ae2565b9050616d9e8282616d58565b919050565b5f67ffffffffffffffff821115616dbd57616dbc616d2b565b5b616dc682616ba2565b9050602081019050919050565b828183375f83830152505050565b5f616df3616dee84616da3565b616d89565b905082815260208101848484011115616e0f57616e0e616d27565b5b616e1a848285616dd3565b509392505050565b5f82601f830112616e3657616e35616d23565b5b8135616e46848260208601616de1565b91505092915050565b5f8060408385031215616e6557616e64616aeb565b5b5f616e7285828601616b12565b925050602083013567ffffffffffffffff811115616e9357616e92616aef565b5b616e9f85828601616e22565b9150509250929050565b5f60208284031215616ebe57616ebd616aeb565b5b5f616ecb84828501616c9e565b91505092915050565b5f602082019050616ee75f830184616b51565b92915050565b5f61010082019050616f015f83018b616b51565b616f0e602083018a616c1a565b8181036040830152616f208189616bb2565b90508181036060830152616f348188616bb2565b90508181036080830152616f488187616bb2565b9050616f5760a0830186616b51565b81810360c0830152616f698185616bb2565b905081810360e0830152616f7d8184616bb2565b90509998505050505050505050565b5f805f60608486031215616fa357616fa2616aeb565b5b5f616fb086828701616c9e565b9350506020616fc186828701616c9e565b9250506040616fd286828701616b12565b9150509250925092565b5f60ff82169050919050565b616ff181616fdc565b82525050565b5f60208201905061700a5f830184616fe8565b92915050565b5f81519050919050565b5f82825260208201905092915050565b5f819050602082019050919050565b61704281616af3565b82525050565b5f6170538383617039565b60208301905092915050565b5f602082019050919050565b5f61707582617010565b61707f818561701a565b935061708a8361702a565b805f5b838110156170ba5781516170a18882617048565b97506170ac8361705f565b92505060018101905061708d565b5085935050505092915050565b5f6020820190508181035f8301526170df818461706b565b905092915050565b5f80604083850312156170fd576170fc616aeb565b5b5f61710a85828601616b12565b925050602061711b85828601616b12565b9150509250929050565b5f610120820190506171395f83018c616b51565b617146602083018b616b51565b617153604083018a616c1a565b81810360608301526171658189616bb2565b90506171746080830188616b51565b81810360a08301526171868187616bb2565b905081810360c083015261719a8186616bb2565b90506171a960e0830185616b51565b8181036101008301526171bc8184616bb2565b90509a9950505050505050505050565b5f805f80608085870312156171e4576171e3616aeb565b5b5f6171f187828801616b12565b945050602061720287828801616b12565b935050604085013567ffffffffffffffff81111561722357617222616aef565b5b61722f87828801616e22565b925050606085013567ffffffffffffffff8111156172505761724f616aef565b5b61725c87828801616e22565b91505092959194509250565b5f805f80608085870312156172805761727f616aeb565b5b5f61728d87828801616b12565b945050602085013567ffffffffffffffff8111156172ae576172ad616aef565b5b6172ba87828801616e22565b935050604085013567ffffffffffffffff8111156172db576172da616aef565b5b6172e787828801616e22565b925050606085013567ffffffffffffffff81111561730857617307616aef565b5b61731487828801616e22565b91505092959194509250565b5f805f805f60a0868803121561733957617338616aeb565b5b5f86013567ffffffffffffffff81111561735657617355616aef565b5b61736288828901616e22565b955050602086013567ffffffffffffffff81111561738357617382616aef565b5b61738f88828901616e22565b945050604086013567ffffffffffffffff8111156173b0576173af616aef565b5b6173bc88828901616e22565b935050606086013567ffffffffffffffff8111156173dd576173dc616aef565b5b6173e988828901616e22565b925050608086013567ffffffffffffffff81111561740a57617409616aef565b5b61741688828901616e22565b9150509295509295909350565b5f805f6060848603121561743a57617439616aeb565b5b5f84013567ffffffffffffffff81111561745757617456616aef565b5b61746386828701616e22565b935050602084013567ffffffffffffffff81111561748457617483616aef565b5b61749086828701616e22565b925050604084013567ffffffffffffffff8111156174b1576174b0616aef565b5b6174bd86828701616e22565b9150509250925092565b5f6020820190508181035f8301526174df8184616bb2565b905092915050565b5f60a0820190508181035f8301526174ff8188616bb2565b905081810360208301526175138187616bb2565b905081810360408301526175278186616bb2565b90506175366060830185616cfb565b6175436080830184616b51565b9695505050505050565b5f6020828403121561756257617561616aeb565b5b5f82013567ffffffffffffffff81111561757f5761757e616aef565b5b61758b84828501616e22565b91505092915050565b5f805f80608085870312156175ac576175ab616aeb565b5b5f85013567ffffffffffffffff8111156175c9576175c8616aef565b5b6175d587828801616e22565b94505060206175e687828801616b12565b935050604085013567ffffffffffffffff81111561760757617606616aef565b5b61761387828801616e22565b925050606061762487828801616b12565b91505092959194509250565b5f6020820190506176435f830184616c1a565b92915050565b5f805f806080858703121561766157617660616aeb565b5b5f85013567ffffffffffffffff81111561767e5761767d616aef565b5b61768a87828801616e22565b945050602085013567ffffffffffffffff8111156176ab576176aa616aef565b5b6176b787828801616e22565b935050604085013567ffffffffffffffff8111156176d8576176d7616aef565b5b6176e487828801616e22565b925050606085013567ffffffffffffffff81111561770557617704616aef565b5b61771187828801616e22565b91505092959194509250565b5f610120820190506177315f83018c616b51565b8181036020830152617743818b616bb2565b90508181036040830152617757818a616bb2565b9050818103606083015261776b8189616bb2565b9050818103608083015261777f8188616bb2565b905061778e60a0830187616c1a565b61779b60c0830186616b51565b6177a860e0830185616cfb565b8181036101008301526177bb8184616bb2565b90509a9950505050505050505050565b5f610120820190506177df5f83018c616b51565b6177ec602083018b616c1a565b81810360408301526177fe818a616bb2565b905061780d6060830189616b51565b818103608083015261781f8188616bb2565b905061782e60a0830187616b51565b81810360c08301526178408186616bb2565b905061784f60e0830185616b51565b61785d610100830184616b51565b9a9950505050505050505050565b5f805f805f8060c0878903121561788557617884616aeb565b5b5f61789289828a01616b12565b965050602087013567ffffffffffffffff8111156178b3576178b2616aef565b5b6178bf89828a01616e22565b955050604087013567ffffffffffffffff8111156178e0576178df616aef565b5b6178ec89828a01616e22565b945050606087013567ffffffffffffffff81111561790d5761790c616aef565b5b61791989828a01616e22565b935050608087013567ffffffffffffffff81111561793a57617939616aef565b5b61794689828a01616e22565b92505060a087013567ffffffffffffffff81111561796757617966616aef565b5b61797389828a01616e22565b9150509295509295509295565b5f806040838503121561799657617995616aeb565b5b5f6179a385828601616c9e565b92505060206179b485828601616c9e565b9150509250929050565b5f805f805f8060c087890312156179d8576179d7616aeb565b5b5f6179e589828a01616b12565b965050602087013567ffffffffffffffff811115617a0657617a05616aef565b5b617a1289828a01616e22565b9550506040617a2389828a01616b12565b945050606087013567ffffffffffffffff811115617a4457617a43616aef565b5b617a5089828a01616e22565b935050608087013567ffffffffffffffff811115617a7157617a70616aef565b5b617a7d89828a01616e22565b92505060a087013567ffffffffffffffff811115617a9e57617a9d616aef565b5b617aaa89828a01616e22565b9150509295509295509295565b5f61010082019050617acb5f83018b616b51565b617ad8602083018a616b51565b617ae56040830189616c1a565b8181036060830152617af78188616bb2565b90508181036080830152617b0b8187616bb2565b905081810360a0830152617b1f8186616bb2565b9050617b2e60c0830185616b51565b81810360e0830152617b408184616bb2565b90509998505050505050505050565b7f4e487b71000000000000000000000000000000000000000000000000000000005f52602260045260245ffd5b5f6002820490506001821680617b9357607f821691505b602082108103617ba657617ba5617b4f565b5b50919050565b7f4f7065726174696f6e20646f6573206e6f7420657869737400000000000000005f82015250565b5f617be0601883616b6a565b9150617beb82617bac565b602082019050919050565b5f6020820190508181035f830152617c0d81617bd4565b9050919050565b7f4e6f7420617574686f72697a65640000000000000000000000000000000000005f82015250565b5f617c48600e83616b6a565b9150617c5382617c14565b602082019050919050565b5f6020820190508181035f830152617c7581617c3c565b9050919050565b5f819050815f5260205f209050919050565b5f6020601f8301049050919050565b5f82821b905092915050565b5f60088302617cd87fffffffffffffffffffffffffffffffffffffffffffffffffffffffffffffffff82617c9d565b617ce28683617c9d565b95508019841693508086168417925050509392505050565b5f819050919050565b5f617d1d617d18617d1384616af3565b617cfa565b616af3565b9050919050565b5f819050919050565b617d3683617d03565b617d4a617d4282617d24565b848454617ca9565b825550505050565b5f90565b617d5e617d52565b617d69818484617d2d565b505050565b5b81811015617d8c57617d815f82617d56565b600181019050617d6f565b5050565b601f821115617dd157617da281617c7c565b617dab84617c8e565b81016020851015617dba578190505b617dce617dc685617c8e565b830182617d6e565b50505b505050565b5f82821c905092915050565b5f617df15f1984600802617dd6565b1980831691505092915050565b5f617e098383617de2565b9150826002028217905092915050565b617e2282616b60565b67ffffffffffffffff811115617e3b57617e3a616d2b565b5b617e458254617b7c565b617e50828285617d90565b5f60209050601f831160018114617e81575f8415617e6f578287015190505b617e798582617dfe565b865550617ee0565b601f198416617e8f86617c7c565b5f5b82811015617eb657848901518255600182019150602085019450602081019050617e91565b86831015617ed35784890151617ecf601f891682617de2565b8355505b6001600288020188555050505b505050505050565b7f4e487b71000000000000000000000000000000000000000000000000000000005f52601160045260245ffd5b5f8160011c9050919050565b5f808291508390505b6001851115617f6a57808604811115617f4657617f45617ee8565b5b6001851615617f555780820291505b8081029050617f6385617f15565b9450617f2a565b94509492505050565b5f82617f82576001905061803d565b81617f8f575f905061803d565b8160018114617fa55760028114617faf57617fde565b600191505061803d565b60ff841115617fc157617fc0617ee8565b5b8360020a915084821115617fd857617fd7617ee8565b5b5061803d565b5060208310610133831016604e8410600b84101617156180135782820a90508381111561800e5761800d617ee8565b5b61803d565b6180208484846001617f21565b9250905081840481111561803757618036617ee8565b5b81810290505b9392505050565b5f61804e82616af3565b915061805983616af3565b92506180867fffffffffffffffffffffffffffffffffffffffffffffffffffffffffffffffff8484617f73565b905092915050565b5f61809882616af3565b91506180a383616af3565b92508282026180b181616af3565b915082820484148315176180c8576180c7617ee8565b5b5092915050565b5f6180d982616af3565b91506180e483616af3565b92508282039050818111156180fc576180fb617ee8565b5b92915050565b7f496e73756666696369656e7420746f6b656e7320666f7220434f322070656e615f8201527f6c74790000000000000000000000000000000000000000000000000000000000602082015250565b5f61815c602383616b6a565b915061816782618102565b604082019050919050565b5f6020820190508181035f83015261818981618150565b9050919050565b7f5265717565737420646f6573206e6f74206578697374000000000000000000005f82015250565b5f6181c4601683616b6a565b91506181cf82618190565b602082019050919050565b5f6020820190508181035f8301526181f1816181b8565b9050919050565b7f496e76616c6964207374617475730000000000000000000000000000000000005f82015250565b5f61822c600e83616b6a565b9150618237826181f8565b602082019050919050565b5f6020820190508181035f83015261825981618220565b9050919050565b7f55736572206e6f742072656769737465726564000000000000000000000000005f82015250565b5f618294601383616b6a565b915061829f82618260565b602082019050919050565b5f6020820190508181035f8301526182c181618288565b9050919050565b7f5573657220616c726561647920646561637469766174656400000000000000005f82015250565b5f6182fc601883616b6a565b9150618307826182c8565b602082019050919050565b5f6020820190508181035f830152618329816182f0565b9050919050565b7f4d657472696320646f6573206e6f7420657869737400000000000000000000005f82015250565b5f618364601583616b6a565b915061836f82618330565b602082019050919050565b5f6020820190508181035f83015261839181618358565b9050919050565b7f5175616c69747920636865636b20646f6573206e6f74206578697374000000005f82015250565b5f6183cc601c83616b6a565b91506183d782618398565b602082019050919050565b5f6020820190508181035f8301526183f9816183c0565b9050919050565b7f496e76616c696420726573756c740000000000000000000000000000000000005f82015250565b5f618434600e83616b6a565b915061843f82618400565b602082019050919050565b5f6020820190508181035f83015261846181618428565b9050919050565b7f4e616d652063616e6e6f7420626520656d7074790000000000000000000000005f82015250565b5f61849c601483616b6a565b91506184a782618468565b602082019050919050565b5f6020820190508181035f8301526184c981618490565b9050919050565b7f43617465676f72792063616e6e6f7420626520656d70747900000000000000005f82015250565b5f618504601883616b6a565b915061850f826184d0565b602082019050919050565b5f6020820190508181035f830152618531816184f8565b9050919050565b7f556e69742063616e6e6f7420626520656d7074790000000000000000000000005f82015250565b5f61856c601483616b6a565b915061857782618538565b602082019050919050565b5f6020820190508181035f83015261859981618560565b9050919050565b5f6185aa82616af3565b91507fffffffffffffffffffffffffffffffffffffffffffffffffffffffffffffffff82036185dc576185db617ee8565b5b600182019050919050565b5f81905092915050565b5f6185fb82616b60565b61860581856185e7565b9350618615818560208601616b7a565b80840191505092915050565b5f61862c82846185f1565b915081905092915050565b7f55736572206973206e6f742061637469766500000000000000000000000000005f82015250565b5f61866b601283616b6a565b915061867682618637565b602082019050919050565b5f6020820190508181035f8301526186988161865f565b9050919050565b5f6040820190508181035f8301526186b78185616bb2565b905081810360208301526186cb8184616bb2565b90509392505050565b7f50726f64756374206e616d652063616e6e6f7420626520656d707479000000005f82015250565b5f618708601c83616b6a565b9150618713826186d4565b602082019050919050565b5f6020820190508181035f830152618735816186fc565b9050919050565b7f5175616e74697479206d7573742062652067726561746572207468616e2030005f82015250565b5f618770601f83616b6a565b915061877b8261873c565b602082019050919050565b5f6020820190508181035f83015261879d81618764565b9050919050565b7f446561646c696e65206d75737420626520696e207468652066757475726500005f82015250565b5f6187d8601e83616b6a565b91506187e3826187a4565b602082019050919050565b5f6020820190508181035f830152618805816187cc565b9050919050565b7f4f6e6c79206f776e65722063616e2063616c6c20746869732066756e6374696f5f8201527f6e00000000000000000000000000000000000000000000000000000000000000602082015250565b5f618866602183616b6a565b91506188718261880c565b604082019050919050565b5f6020820190508181035f8301526188938161885a565b9050919050565b7f496e76616c6964206f70657261746f72206164647265737300000000000000005f82015250565b5f6188ce601883616b6a565b91506188d98261889a565b602082019050919050565b5f6020820190508181035f8301526188fb816188c2565b9050919050565b7f4f70657261746f7220616c726561647920617574686f72697a656400000000005f82015250565b5f618936601b83616b6a565b915061894182618902565b602082019050919050565b5f6020820190508181035f8301526189638161892a565b9050919050565b7f4f7065726174696f6e20747970652063616e6e6f7420626520656d70747900005f82015250565b5f61899e601e83616b6a565b91506189a98261896a565b602082019050919050565b5f6020820190508181035f8301526189cb81618992565b9050919050565b7f4465736372697074696f6e2063616e6e6f7420626520656d70747900000000005f82015250565b5f618a06601b83616b6a565b9150618a11826189d2565b602082019050919050565b5f6020820190508181035f830152618a33816189fa565b9050919050565b7f4c6f636174696f6e2063616e6e6f7420626520656d70747900000000000000005f82015250565b5f618a6e601883616b6a565b9150618a7982618a3a565b602082019050919050565b5f6020820190508181035f830152618a9b81618a62565b9050919050565b7f50726f6475637420646f6573206e6f74206578697374000000000000000000005f82015250565b5f618ad6601683616b6a565b9150618ae182618aa2565b602082019050919050565b5f6020820190508181035f830152618b0381618aca565b9050919050565b7f5573657220616c726561647920726567697374657265640000000000000000005f82015250565b5f618b3e601783616b6a565b9150618b4982618b0a565b602082019050919050565b5f6020820190508181035f830152618b6b81618b32565b9050919050565b7f456d61696c2063616e6e6f7420626520656d70747900000000000000000000005f82015250565b5f618ba6601583616b6a565b9150618bb182618b72565b602082019050919050565b5f6020820190508181035f830152618bd381618b9a565b9050919050565b7f526f6c652063616e6e6f7420626520656d7074790000000000000000000000005f82015250565b5f618c0e601483616b6a565b9150618c1982618bda565b602082019050919050565b5f6020820190508181035f830152618c3b81618c02565b9050919050565b7f4f6e6c792070726f64756365722063616e207570646174652070726f647563745f82015250565b5f618c76602083616b6a565b9150618c8182618c42565b602082019050919050565b5f6020820190508181035f830152618ca381618c6a565b9050919050565b7f50726f64756374206973206e6f742061637469766500000000000000000000005f82015250565b5f618cde601583616b6a565b9150618ce982618caa565b602082019050919050565b5f6020820190508181035f830152618d0b81618cd2565b9050919050565b7f436865636b20747970652063616e6e6f7420626520656d7074790000000000005f82015250565b5f618d46601a83616b6a565b9150618d5182618d12565b602082019050919050565b5f6020820190508181035f830152618d7381618d3a565b9050919050565b7f44657461696c732063616e6e6f7420626520656d7074790000000000000000005f82015250565b5f618dae601783616b6a565b9150618db982618d7a565b602082019050919050565b5f6020820190508181035f830152618ddb81618da2565b9050919050565b7f4d657472696320747970652063616e6e6f7420626520656d70747900000000005f82015250565b5f618e16601b83616b6a565b9150618e2182618de2565b602082019050919050565b5f6020820190508181035f830152618e4381618e0a565b9050919050565b7f4d6574686f646f6c6f67792063616e6e6f7420626520656d70747900000000005f82015250565b5f618e7e601b83616b6a565b9150618e8982618e4a565b602082019050919050565b5f6020820190508181035f830152618eab81618e72565b9050919050565b7f4f70657261746f72206e6f7420617574686f72697a65640000000000000000005f82015250565b5f618ee6601783616b6a565b9150618ef182618eb2565b602082019050919050565b5f6020820190508181035f830152618f1381618eda565b9050919050565b7f4f6e6c792070726f64756365722063616e20646561637469766174652070726f5f8201527f6475637400000000000000000000000000000000000000000000000000000000602082015250565b5f618f74602483616b6a565b9150618f7f82618f1a565b604082019050919050565b5f6020820190508181035f830152618fa181618f68565b9050919050565b7f50726f6475637420616c726561647920646561637469766174656400000000005f82015250565b5f618fdc601b83616b6a565b9150618fe782618fa8565b602082019050919050565b5f6020820190508181035f83015261900981618fd0565b9050919050565b7f417070726f76652066726f6d207a65726f2061646472657373000000000000005f82015250565b5f619044601983616b6a565b915061904f82619010565b602082019050919050565b5f6020820190508181035f83015261907181619038565b9050919050565b7f417070726f766520746f207a65726f20616464726573730000000000000000005f82015250565b5f6190ac601783616b6a565b91506190b782619078565b602082019050919050565b5f6020820190508181035f8301526190d9816190a0565b9050919050565b7f5472616e736665722066726f6d207a65726f20616464726573730000000000005f82015250565b5f619114601a83616b6a565b915061911f826190e0565b602082019050919050565b5f6020820190508181035f83015261914181619108565b9050919050565b7f5472616e7366657220746f207a65726f206164647265737300000000000000005f82015250565b5f61917c601883616b6a565b915061918782619148565b602082019050919050565b5f6020820190508181035f8301526191a981619170565b9050919050565b7f496e73756666696369656e742062616c616e63650000000000000000000000005f82015250565b5f6191e4601483616b6a565b91506191ef826191b0565b602082019050919050565b5f6020820190508181035f830152619211816191d8565b9050919050565b5f61922282616af3565b915061922d83616af3565b925082820190508082111561924557619244617ee8565b5b92915050565b7f4d696e7420746f207a65726f20616464726573730000000000000000000000005f82015250565b5f61927f601483616b6a565b915061928a8261924b565b602082019050919050565b5f6020820190508181035f8301526192ac81619273565b9050919050565b7f4275726e2066726f6d207a65726f2061646472657373000000000000000000005f82015250565b5f6192e7601683616b6a565b91506192f2826192b3565b602082019050919050565b5f6020820190508181035f830152619314816192db565b9050919050565b7f4275726e20616d6f756e7420657863656564732062616c616e636500000000005f82015250565b5f61934f601b83616b6a565b915061935a8261931b565b602082019050919050565b5f6020820190508181035f83015261937c81619343565b905091905056fea2646970667358221220d8410354f26a2067b4422241333ddd618bca2169c69b46545603b36c888a478964736f6c63430008140033",
  "immutableReferences": {},
  "source": "// SPDX-License-Identifier: MIT\npragma solidity ^0.8.0;\n\n/**\n * @title Sustainable Food Supply Chain\n * @dev Manages the entire food supply chain including users, products, operations, quality control, sustainability metrics, and CO2 tokens.\n * @notice This contract is intended for demonstration purposes and not for production use.\n */\ncontract SustainableFoodSupplyChain {\n    // ==================== STRUCTS ====================\n\n    // User Registry Structs\n    struct User {\n        string name;\n        string email;\n        string role; // \"PRODUCER\", \"DISTRIBUTOR\", \"RETAILER\", \"CONSUMER\"\n        bool isActive;\n        uint256 registrationDate;\n    }\n\n    // Product Registry Structs\n    struct Product {\n        uint256 productId;\n        string name;\n        string description;\n        string category;\n        string unit;\n        address producer;\n        uint256 createdAt;\n        bool isActive;\n        string metadata; // Certificazioni, standard di qualit, etc.\n    }\n\n    // Product Request Structs\n    struct Request {\n        uint256 requestId;\n        address requester;\n        string productName;\n        uint256 quantity;\n        string unit;\n        uint256 deadline;\n        string status; // \"PENDING\", \"ACCEPTED\", \"REJECTED\", \"COMPLETED\"\n        uint256 createdAt;\n        uint256 updatedAt;\n    }\n\n    // Operation Registry Structs\n    struct Operation {\n        uint256 operationId;\n        address operator;\n        string operationType; // \"PRODUCTION\", \"PROCESSING\", \"TRANSPORT\", \"STORAGE\", \"DISTRIBUTION\"\n        string description;\n        string location;\n        uint256 timestamp;\n        string status; // \"IN_PROGRESS\", \"COMPLETED\", \"CANCELLED\"\n        string metadata; // JSON string with additional data\n    }\n\n    // Quality Control Structs\n    struct QualityCheck {\n        uint256 checkId;\n        uint256 productId;\n        address inspector;\n        string checkType; // \"CERTIFICATION\", \"INSPECTION\", \"TEST\"\n        string result; // \"PASS\", \"FAIL\", \"PENDING\"\n        string details;\n        uint256 timestamp;\n        string metadata; // Risultati dettagliati, certificazioni, etc.\n    }\n\n    // Sustainability Metrics Structs\n    struct Metric {\n        uint256 metricId;\n        uint256 productId;\n        address reporter;\n        string metricType; // \"CARBON_FOOTPRINT\", \"WATER_USAGE\", \"ENERGY_CONSUMPTION\", \"WASTE_REDUCTION\"\n        uint256 value;\n        string unit;\n        string methodology;\n        uint256 timestamp;\n        string metadata; // Dettagli aggiuntivi sulla metodologia, certificazioni, etc.\n    }\n\n    // Action Log Struct\n    struct ActionLog {\n        uint256 actionId;\n        string actionType;\n        address initiatedBy;\n        uint256 timestamp;\n        string details;\n    }\n\n    // ==================== STATE VARIABLES ====================\n    \n    // General variables\n    address public owner;\n    mapping(address => bool) public authorizedOperators;\n    uint256 private actionCounter = 0;\n    mapping(uint256 => ActionLog) public actionLogs;\n\n    // User Registry variables\n    mapping(address => User) private users;\n    mapping(address => bool) private isRegistered;\n\n    // Product Registry variables\n    uint256 private productCounter;\n    mapping(uint256 => Product) private products;\n    mapping(address => uint256[]) private producerProducts;\n    mapping(string => uint256[]) private categoryProducts;\n\n    // Product Request variables\n    uint256 private requestCounter;\n    mapping(uint256 => Request) private requests;\n    mapping(address => uint256[]) private userRequests;\n\n    // Operation Registry variables\n    uint256 private operationCounter;\n    mapping(uint256 => Operation) private operations;\n    mapping(address => uint256[]) private userOperations;\n\n    // Quality Control variables\n    uint256 private checkCounter;\n    mapping(uint256 => QualityCheck) private qualityChecks;\n    mapping(uint256 => uint256[]) private productChecks;\n    mapping(address => uint256[]) private inspectorChecks;\n\n    // Sustainability Metrics variables\n    uint256 private metricCounter;\n    mapping(uint256 => Metric) private metrics;\n    mapping(uint256 => uint256[]) private productMetrics;\n    mapping(address => uint256[]) private reporterMetrics;\n    mapping(string => uint256[]) private typeMetrics;\n\n    // CO2 Token variables\n    string public tokenName = \"CO2 Token\";\n    string public tokenSymbol = \"CO2\";\n    uint8 public tokenDecimals = 18;\n    mapping(address => uint256) private _balances;\n    mapping(address => mapping(address => uint256)) private _allowances;\n\n    // ==================== EVENTS ====================\n\n    // General events\n    event OperatorAuthorized(address indexed operator);\n    event OperatorRevoked(address indexed operator);\n    event ActionLogged(uint256 indexed actionId, string actionType, address indexed initiator, uint256 indexed timestamp, string details);\n\n    // User Registry events\n    event UserRegistered(address indexed userAddress, string name, string role);\n    event UserUpdated(address indexed userAddress, string name, string role);\n    event UserDeactivated(address indexed userAddress);\n\n    // Product Registry events\n    event ProductCreated(uint256 indexed productId, address indexed producer, string name);\n    event ProductUpdated(uint256 indexed productId, string name);\n    event ProductDeactivated(uint256 indexed productId);\n\n    // Product Request events\n    event RequestCreated(uint256 indexed requestId, address indexed requester, string productName);\n    event RequestStatusUpdated(uint256 indexed requestId, string newStatus);\n    event RequestCompleted(uint256 indexed requestId);\n\n    // Operation Registry events\n    event OperationCreated(uint256 indexed operationId, address indexed operator, string operationType);\n    event OperationStatusUpdated(uint256 indexed operationId, string newStatus);\n    event OperationMetadataUpdated(uint256 indexed operationId, string metadata);\n\n    // Quality Control events\n    event QualityCheckCreated(uint256 indexed checkId, uint256 indexed productId, address indexed inspector);\n    event QualityCheckUpdated(uint256 indexed checkId, string result);\n    event QualityCheckCompleted(uint256 indexed checkId);\n\n    // Sustainability Metrics events\n    event MetricRecorded(uint256 indexed metricId, uint256 indexed productId, string metricType);\n    event MetricUpdated(uint256 indexed metricId, uint256 newValue);\n    event MetricVerified(uint256 indexed metricId, address verifier);\n\n    // CO2 Token events\n    event Transfer(address indexed from, address indexed to, uint256 value);\n    event Approval(address indexed owner, address indexed spender, uint256 value);\n    event TokensMinted(address indexed to, uint256 amount);\n    event TokensBurned(address indexed from, uint256 amount);\n\n    // ==================== CONSTRUCTOR ====================\n\n    constructor() {\n        owner = msg.sender;\n        authorizedOperators[owner] = true;\n    }\n\n    // ==================== MODIFIERS ====================\n\n    modifier onlyOwner() {\n        require(msg.sender == owner, \"Only owner can call this function\");\n        _;\n    }\n\n    modifier onlyAuthorized() {\n        require(authorizedOperators[msg.sender] || msg.sender == owner, \"Not authorized\");\n        _;\n    }\n\n    modifier onlyRegistered() {\n        require(isRegistered[msg.sender], \"User not registered\");\n        _;\n    }\n\n    modifier validProduct(uint256 _productId) {\n        require(products[_productId].productId != 0, \"Product does not exist\");\n        _;\n    }\n\n    modifier validRequest(uint256 _requestId) {\n        require(requests[_requestId].requestId != 0, \"Request does not exist\");\n        _;\n    }\n\n    modifier validOperation(uint256 _operationId) {\n        require(operations[_operationId].operationId != 0, \"Operation does not exist\");\n        _;\n    }\n\n    modifier validCheck(uint256 _checkId) {\n        require(qualityChecks[_checkId].checkId != 0, \"Quality check does not exist\");\n        _;\n    }\n\n    modifier validMetric(uint256 _metricId) {\n        require(metrics[_metricId].metricId != 0, \"Metric does not exist\");\n        _;\n    }\n\n    // ==================== GENERAL FUNCTIONS ====================\n\n    function authorizeOperator(address _operator) external onlyOwner {\n        require(_operator != address(0), \"Invalid operator address\");\n        require(!authorizedOperators[_operator], \"Operator already authorized\");\n        \n        authorizedOperators[_operator] = true;\n        emit OperatorAuthorized(_operator);\n    }\n\n    function revokeOperator(address _operator) external onlyOwner {\n        require(authorizedOperators[_operator], \"Operator not authorized\");\n        \n        authorizedOperators[_operator] = false;\n        emit OperatorRevoked(_operator);\n    }\n\n    function logAction(string memory _actionType, address _initiator, string memory _details) internal {\n        actionCounter++;\n        actionLogs[actionCounter] = ActionLog(actionCounter, _actionType, _initiator, block.timestamp, _details);\n        emit ActionLogged(actionCounter, _actionType, _initiator, block.timestamp, _details);\n    }\n\n    // ==================== USER REGISTRY FUNCTIONS ====================\n\n    function registerUser(\n        string memory _name,\n        string memory _email,\n        string memory _role\n    ) external {\n        require(!isRegistered[msg.sender], \"User already registered\");\n        require(bytes(_name).length > 0, \"Name cannot be empty\");\n        require(bytes(_email).length > 0, \"Email cannot be empty\");\n        require(bytes(_role).length > 0, \"Role cannot be empty\");\n\n        users[msg.sender] = User({\n            name: _name,\n            email: _email,\n            role: _role,\n            isActive: true,\n            registrationDate: block.timestamp\n        });\n\n        isRegistered[msg.sender] = true;\n        logAction(\"Create\", msg.sender, \"User registered\");\n        emit UserRegistered(msg.sender, _name, _role);\n    }\n\n    function updateUser(\n        string memory _name,\n        string memory _email,\n        string memory _role\n    ) external onlyRegistered {\n        require(users[msg.sender].isActive, \"User is not active\");\n        \n        users[msg.sender].name = _name;\n        users[msg.sender].email = _email;\n        users[msg.sender].role = _role;\n\n        logAction(\"Update\", msg.sender, \"User updated\");\n        emit UserUpdated(msg.sender, _name, _role);\n    }\n\n    function deactivateUser() external onlyRegistered {\n        require(users[msg.sender].isActive, \"User already deactivated\");\n        users[msg.sender].isActive = false;\n        logAction(\"Update\", msg.sender, \"User deactivated\");\n        emit UserDeactivated(msg.sender);\n    }\n\n    function getUser(address _userAddress) external view returns (\n        string memory name,\n        string memory email,\n        string memory role,\n        bool isActive,\n        uint256 registrationDate\n    ) {\n        require(isRegistered[_userAddress], \"User not registered\");\n        User memory user = users[_userAddress];\n        return (user.name, user.email, user.role, user.isActive, user.registrationDate);\n    }\n\n    function isUserRegistered(address _userAddress) external view returns (bool) {\n        return isRegistered[_userAddress];\n    }\n\n    // ==================== PRODUCT REGISTRY FUNCTIONS ====================\n\n    function createProduct(\n        string memory _name,\n        string memory _description,\n        string memory _category,\n        string memory _unit,\n        string memory _metadata\n    ) external onlyRegistered returns (uint256) {\n        require(bytes(_name).length > 0, \"Name cannot be empty\");\n        require(bytes(_category).length > 0, \"Category cannot be empty\");\n        require(bytes(_unit).length > 0, \"Unit cannot be empty\");\n\n        productCounter++;\n        uint256 productId = productCounter;\n\n        products[productId] = Product({\n            productId: productId,\n            name: _name,\n            description: _description,\n            category: _category,\n            unit: _unit,\n            producer: msg.sender,\n            createdAt: block.timestamp,\n            isActive: true,\n            metadata: _metadata\n        });\n\n        producerProducts[msg.sender].push(productId);\n        categoryProducts[_category].push(productId);\n\n        logAction(\"Create\", msg.sender, \"Product created\");\n        emit ProductCreated(productId, msg.sender, _name);\n        return productId;\n    }\n\n    function updateProduct(\n        uint256 _productId,\n        string memory _name,\n        string memory _description,\n        string memory _category,\n        string memory _unit,\n        string memory _metadata\n    ) external validProduct(_productId) {\n        Product storage product = products[_productId];\n        require(product.producer == msg.sender, \"Only producer can update product\");\n        require(product.isActive, \"Product is not active\");\n\n        product.name = _name;\n        product.description = _description;\n        product.category = _category;\n        product.unit = _unit;\n        product.metadata = _metadata;\n\n        logAction(\"Update\", msg.sender, \"Product updated\");\n        emit ProductUpdated(_productId, _name);\n    }\n\n    function deactivateProduct(uint256 _productId) external validProduct(_productId) {\n        Product storage product = products[_productId];\n        require(product.producer == msg.sender, \"Only producer can deactivate product\");\n        require(product.isActive, \"Product already deactivated\");\n\n        product.isActive = false;\n        logAction(\"Update\", msg.sender, \"Product deactivated\");\n        emit ProductDeactivated(_productId);\n    }\n\n    function getProduct(uint256 _productId) external view validProduct(_productId) returns (\n        uint256 productId,\n        string memory name,\n        string memory description,\n        string memory category,\n        string memory unit,\n        address producer,\n        uint256 createdAt,\n        bool isActive,\n        string memory metadata\n    ) {\n        Product memory product = products[_productId];\n        return (\n            product.productId,\n            product.name,\n            product.description,\n            product.category,\n            product.unit,\n            product.producer,\n            product.createdAt,\n            product.isActive,\n            product.metadata\n        );\n    }\n\n    function getProducerProducts(address _producer) external view returns (uint256[] memory) {\n        return producerProducts[_producer];\n    }\n\n    function getCategoryProducts(string memory _category) external view returns (uint256[] memory) {\n        return categoryProducts[_category];\n    }\n\n    // ==================== PRODUCT REQUEST FUNCTIONS ====================\n\n    function createRequest(\n        string memory _productName,\n        uint256 _quantity,\n        string memory _unit,\n        uint256 _deadline\n    ) external onlyRegistered returns (uint256) {\n        require(bytes(_productName).length > 0, \"Product name cannot be empty\");\n        require(_quantity > 0, \"Quantity must be greater than 0\");\n        require(bytes(_unit).length > 0, \"Unit cannot be empty\");\n        require(_deadline > block.timestamp, \"Deadline must be in the future\");\n\n        requestCounter++;\n        uint256 requestId = requestCounter;\n\n        requests[requestId] = Request({\n            requestId: requestId,\n            requester: msg.sender,\n            productName: _productName,\n            quantity: _quantity,\n            unit: _unit,\n            deadline: _deadline,\n            status: \"PENDING\",\n            createdAt: block.timestamp,\n            updatedAt: block.timestamp\n        });\n\n        userRequests[msg.sender].push(requestId);\n        logAction(\"Create\", msg.sender, \"Request created\");\n        emit RequestCreated(requestId, msg.sender, _productName);\n        return requestId;\n    }\n\n    function updateRequestStatus(uint256 _requestId, string memory _newStatus) \n        external \n        validRequest(_requestId) \n        onlyAuthorized \n    {\n        Request storage request = requests[_requestId];\n        require(\n            keccak256(bytes(_newStatus)) == keccak256(bytes(\"ACCEPTED\")) ||\n            keccak256(bytes(_newStatus)) == keccak256(bytes(\"REJECTED\")) ||\n            keccak256(bytes(_newStatus)) == keccak256(bytes(\"COMPLETED\")),\n            \"Invalid status\"\n        );\n\n        request.status = _newStatus;\n        request.updatedAt = block.timestamp;\n\n        logAction(\"Update\", msg.sender, \"Request status updated\");\n        emit RequestStatusUpdated(_requestId, _newStatus);\n        \n        if (keccak256(bytes(_newStatus)) == keccak256(bytes(\"COMPLETED\"))) {\n            emit RequestCompleted(_requestId);\n        }\n    }\n\n    function getRequest(uint256 _requestId) \n        external \n        view \n        validRequest(_requestId) \n        returns (\n            uint256 requestId,\n            address requester,\n            string memory productName,\n            uint256 quantity,\n            string memory unit,\n            uint256 deadline,\n            string memory status,\n            uint256 createdAt,\n            uint256 updatedAt\n        ) \n    {\n        Request memory request = requests[_requestId];\n        return (\n            request.requestId,\n            request.requester,\n            request.productName,\n            request.quantity,\n            request.unit,\n            request.deadline,\n            request.status,\n            request.createdAt,\n            request.updatedAt\n        );\n    }\n\n    function getUserRequests(address _user) external view returns (uint256[] memory) {\n        return userRequests[_user];\n    }\n\n    // ==================== OPERATION REGISTRY FUNCTIONS ====================\n\n    function createOperation(\n        string memory _operationType,\n        string memory _description,\n        string memory _location,\n        string memory _metadata\n    ) external onlyRegistered returns (uint256) {\n        require(bytes(_operationType).length > 0, \"Operation type cannot be empty\");\n        require(bytes(_description).length > 0, \"Description cannot be empty\");\n        require(bytes(_location).length > 0, \"Location cannot be empty\");\n\n        operationCounter++;\n        uint256 operationId = operationCounter;\n\n        operations[operationId] = Operation({\n            operationId: operationId,\n            operator: msg.sender,\n            operationType: _operationType,\n            description: _description,\n            location: _location,\n            timestamp: block.timestamp,\n            status: \"IN_PROGRESS\",\n            metadata: _metadata\n        });\n\n        userOperations[msg.sender].push(operationId);\n        logAction(\"Create\", msg.sender, \"Operation created\");\n        emit OperationCreated(operationId, msg.sender, _operationType);\n        return operationId;\n    }\n\n    function updateOperationStatus(uint256 _operationId, string memory _newStatus)\n        external\n        validOperation(_operationId)\n    {\n        Operation storage operation = operations[_operationId];\n        require(operation.operator == msg.sender || authorizedOperators[msg.sender], \"Not authorized\");\n        require(\n            keccak256(bytes(_newStatus)) == keccak256(bytes(\"IN_PROGRESS\")) ||\n            keccak256(bytes(_newStatus)) == keccak256(bytes(\"COMPLETED\")) ||\n            keccak256(bytes(_newStatus)) == keccak256(bytes(\"CANCELLED\")),\n            \"Invalid status\"\n        );\n\n        operation.status = _newStatus;\n        logAction(\"Update\", msg.sender, \"Operation status updated\");\n        emit OperationStatusUpdated(_operationId, _newStatus);\n    }\n\n    function updateOperationMetadata(uint256 _operationId, string memory _metadata)\n        external\n        validOperation(_operationId)\n    {\n        Operation storage operation = operations[_operationId];\n        require(operation.operator == msg.sender || authorizedOperators[msg.sender], \"Not authorized\");\n        operation.metadata = _metadata;\n        logAction(\"Update\", msg.sender, \"Operation metadata updated\");\n        emit OperationMetadataUpdated(_operationId, _metadata);\n    }\n\n    function getOperation(uint256 _operationId)\n        external\n        view\n        validOperation(_operationId)\n        returns (\n            uint256 operationId,\n            address operator,\n            string memory operationType,\n            string memory description,\n            string memory location,\n            uint256 timestamp,\n            string memory status,\n            string memory metadata\n        )\n    {\n        Operation memory operation = operations[_operationId];\n        return (\n            operation.operationId,\n            operation.operator,\n            operation.operationType,\n            operation.description,\n            operation.location,\n            operation.timestamp,\n            operation.status,\n            operation.metadata\n        );\n    }\n\n    function getUserOperations(address _user) external view returns (uint256[] memory) {\n        return userOperations[_user];\n    }\n\n    // ==================== QUALITY CONTROL FUNCTIONS ====================\n\n    function createQualityCheck(\n        uint256 _productId,\n        string memory _checkType,\n        string memory _details,\n        string memory _metadata\n    ) external onlyRegistered returns (uint256) {\n        require(bytes(_checkType).length > 0, \"Check type cannot be empty\");\n        require(bytes(_details).length > 0, \"Details cannot be empty\");\n\n        checkCounter++;\n        uint256 checkId = checkCounter;\n\n        qualityChecks[checkId] = QualityCheck({\n            checkId: checkId,\n            productId: _productId,\n            inspector: msg.sender,\n            checkType: _checkType,\n            result: \"PENDING\",\n            details: _details,\n            timestamp: block.timestamp,\n            metadata: _metadata\n        });\n\n        productChecks[_productId].push(checkId);\n        inspectorChecks[msg.sender].push(checkId);\n\n        logAction(\"Create\", msg.sender, \"Quality check created\");\n        emit QualityCheckCreated(checkId, _productId, msg.sender);\n        return checkId;\n    }\n\n    function updateQualityCheck(\n        uint256 _checkId,\n        string memory _result,\n        string memory _details,\n        string memory _metadata\n    ) external validCheck(_checkId) {\n        QualityCheck storage check = qualityChecks[_checkId];\n        require(check.inspector == msg.sender || authorizedOperators[msg.sender], \"Not authorized\");\n        require(\n            keccak256(bytes(_result)) == keccak256(bytes(\"PASS\")) ||\n            keccak256(bytes(_result)) == keccak256(bytes(\"FAIL\")) ||\n            keccak256(bytes(_result)) == keccak256(bytes(\"PENDING\")),\n            \"Invalid result\"\n        );\n\n        check.result = _result;\n        check.details = _details;\n        check.metadata = _metadata;\n\n        logAction(\"Update\", msg.sender, \"Quality check updated\");\n        emit QualityCheckUpdated(_checkId, _result);\n\n        if (\n            keccak256(bytes(_result)) == keccak256(bytes(\"PASS\")) ||\n            keccak256(bytes(_result)) == keccak256(bytes(\"FAIL\"))\n        ) {\n            emit QualityCheckCompleted(_checkId);\n        }\n    }\n\n    function getQualityCheck(uint256 _checkId) external view validCheck(_checkId) returns (\n        uint256 checkId,\n        uint256 productId,\n        address inspector,\n        string memory checkType,\n        string memory result,\n        string memory details,\n        uint256 timestamp,\n        string memory metadata\n    ) {\n        QualityCheck memory check = qualityChecks[_checkId];\n        return (\n            check.checkId,\n            check.productId,\n            check.inspector,\n            check.checkType,\n            check.result,\n            check.details,\n            check.timestamp,\n            check.metadata\n        );\n    }\n\n    function getProductQualityChecks(uint256 _productId) external view returns (uint256[] memory) {\n        return productChecks[_productId];\n    }\n\n    function getInspectorQualityChecks(address _inspector) external view returns (uint256[] memory) {\n        return inspectorChecks[_inspector];\n    }\n\n    // ==================== SUSTAINABILITY METRICS FUNCTIONS ====================\n\n    function recordMetric(\n        uint256 _productId,\n        string memory _metricType,\n        uint256 _value,\n        string memory _unit,\n        string memory _methodology,\n        string memory _metadata\n    ) external onlyRegistered returns (uint256) {\n        require(bytes(_metricType).length > 0, \"Metric type cannot be empty\");\n        require(bytes(_unit).length > 0, \"Unit cannot be empty\");\n        require(bytes(_methodology).length > 0, \"Methodology cannot be empty\");\n\n        metricCounter++;\n        uint256 metricId = metricCounter;\n\n        metrics[metricId] = Metric({\n            metricId: metricId,\n            productId: _productId,\n            reporter: msg.sender,\n            metricType: _metricType,\n            value: _value,\n            unit: _unit,\n            methodology: _methodology,\n            timestamp: block.timestamp,\n            metadata: _metadata\n        });\n\n        productMetrics[_productId].push(metricId);\n        reporterMetrics[msg.sender].push(metricId);\n        typeMetrics[_metricType].push(metricId);\n\n        logAction(\"Create\", msg.sender, \"Sustainability metric recorded\");\n        emit MetricRecorded(metricId, _productId, _metricType);\n        return metricId;\n    }\n\n    function updateMetric(\n        uint256 _metricId,\n        uint256 _value,\n        string memory _methodology,\n        string memory _metadata\n    ) external validMetric(_metricId) {\n        Metric storage metric = metrics[_metricId];\n        require(metric.reporter == msg.sender || authorizedOperators[msg.sender], \"Not authorized\");\n\n        metric.value = _value;\n        metric.methodology = _methodology;\n        metric.metadata = _metadata;\n\n        logAction(\"Update\", msg.sender, \"Sustainability metric updated\");\n        emit MetricUpdated(_metricId, _value);\n    }\n\n    function verifyMetric(uint256 _metricId) external validMetric(_metricId) onlyAuthorized {\n        logAction(\"Verify\", msg.sender, \"Sustainability metric verified\");\n        emit MetricVerified(_metricId, msg.sender);\n    }\n\n    function getMetric(uint256 _metricId) external view validMetric(_metricId) returns (\n        uint256 metricId,\n        uint256 productId,\n        address reporter,\n        string memory metricType,\n        uint256 value,\n        string memory unit,\n        string memory methodology,\n        uint256 timestamp,\n        string memory metadata\n    ) {\n        Metric memory metric = metrics[_metricId];\n        return (\n            metric.metricId,\n            metric.productId,\n            metric.reporter,\n            metric.metricType,\n            metric.value,\n            metric.unit,\n            metric.methodology,\n            metric.timestamp,\n            metric.metadata\n        );\n    }\n\n    function getProductMetrics(uint256 _productId) external view returns (uint256[] memory) {\n        return productMetrics[_productId];\n    }\n\n    function getReporterMetrics(address _reporter) external view returns (uint256[] memory) {\n        return reporterMetrics[_reporter];\n    }\n\n    function getTypeMetrics(string memory _metricType) external view returns (uint256[] memory) {\n        return typeMetrics[_metricType];\n    }\n\n    // ==================== CO2 TOKEN FUNCTIONS ====================\n    \n    function totalSupply() public view returns (uint256) {\n        return 1000000 * 10**uint256(tokenDecimals); // Initial supply of 1M tokens\n    }\n    \n    function balanceOf(address account) public view returns (uint256) {\n        return _balances[account];\n    }\n    \n    function transfer(address recipient, uint256 amount) public returns (bool) {\n        _transfer(msg.sender, recipient, amount);\n        return true;\n    }\n    \n    function allowance(address owner, address spender) public view returns (uint256) {\n        return _allowances[owner][spender];\n    }\n    \n    function approve(address spender, uint256 amount) public returns (bool) {\n        _approve(msg.sender, spender, amount);\n        return true;\n    }\n    \n    function transferFrom(address sender, address recipient, uint256 amount) public returns (bool) {\n        _transfer(sender, recipient, amount);\n        _approve(sender, msg.sender, _allowances[sender][msg.sender] - amount);\n        return true;\n    }\n    \n    function rewardCompensatoryAction(uint256 amount) public onlyAuthorized {\n        _mint(msg.sender, amount);\n        logAction(\"Reward\", msg.sender, \"CO2 compensatory action rewarded\");\n    }\n    \n    function processOperationCO2(uint256 consumedCO2, uint256 thresholdCO2) public returns (bool) {\n        if (consumedCO2 < thresholdCO2) {\n            uint256 rewardAmount = thresholdCO2 - consumedCO2;\n            _mint(msg.sender, rewardAmount);\n            logAction(\"Reward\", msg.sender, \"CO2 efficiency rewarded\");\n            return true;\n        } else if (consumedCO2 > thresholdCO2) {\n            uint256 penaltyAmount = consumedCO2 - thresholdCO2;\n            require(_balances[msg.sender] >= penaltyAmount, \"Insufficient tokens for CO2 penalty\");\n            _burn(msg.sender, penaltyAmount);\n            logAction(\"Penalty\", msg.sender, \"CO2 inefficiency penalized\");\n            return true;\n        }\n        return false;\n    }\n    \n    function _transfer(address sender, address recipient, uint256 amount) internal {\n        require(sender != address(0), \"Transfer from zero address\");\n        require(recipient != address(0), \"Transfer to zero address\");\n        require(_balances[sender] >= amount, \"Insufficient balance\");\n        \n        _balances[sender] -= amount;\n        _balances[recipient] += amount;\n        emit Transfer(sender, recipient, amount);\n    }\n    \n    function _approve(address owner, address spender, uint256 amount) internal {\n        require(owner != address(0), \"Approve from zero address\");\n        require(spender != address(0), \"Approve to zero address\");\n        \n        _allowances[owner][spender] = amount;\n        emit Approval(owner, spender, amount);\n    }\n    \n    function _mint(address account, uint256 amount) internal {\n        require(account != address(0), \"Mint to zero address\");\n        \n        _balances[account] += amount;\n        emit TokensMinted(account, amount);\n        emit Transfer(address(0), account, amount);\n    }\n    \n    function _burn(address account, uint256 amount) internal {\n        require(account != address(0), \"Burn from zero address\");\n        require(_balances[account] >= amount, \"Burn amount exceeds balance\");\n        \n        _balances[account] -= amount;\n        emit TokensBurned(account, amount);\n        emit Transfer(account, address(0), amount);\n    }\n}\n",
  "sourcePath": "/app/contracts/SustainableFoodSupplyChain.sol",
  "compiler": {
    "name": "solc",
    "version": "0.8.20+commit.a1b79de6.Emscripten.clang"
  },
  "schemaVersion": "3.4.16",
  "updatedAt": "2025-05-16T09:59:11.555Z",
  "devdoc": {
    "details": "Manages the entire food supply chain including users, products, operations, quality control, sustainability metrics, and CO2 tokens.",
    "kind": "dev",
    "methods": {},
    "title": "Sustainable Food Supply Chain",
    "version": 1
  },
  "userdoc": {
    "kind": "user",
    "methods": {},
    "notice": "This contract is intended for demonstration purposes and not for production use.",
    "version": 1
  }
}