{
  "contractName": "SustainabilityMetrics",
  "abi": [
    {
      "anonymous": false,
      "inputs": [
        {
          "indexed": true,
          "internalType": "uint256",
          "name": "metricId",
          "type": "uint256"
        },
        {
          "indexed": true,
          "internalType": "uint256",
          "name": "productId",
          "type": "uint256"
        },
        {
          "indexed": false,
          "internalType": "string",
          "name": "metricType",
          "type": "string"
        }
      ],
      "name": "MetricRecorded",
      "type": "event"
    },
    {
      "anonymous": false,
      "inputs": [
        {
          "indexed": true,
          "internalType": "uint256",
          "name": "metricId",
          "type": "uint256"
        },
        {
          "indexed": false,
          "internalType": "uint256",
          "name": "newValue",
          "type": "uint256"
        }
      ],
      "name": "MetricUpdated",
      "type": "event"
    },
    {
      "anonymous": false,
      "inputs": [
        {
          "indexed": true,
          "internalType": "uint256",
          "name": "metricId",
          "type": "uint256"
        },
        {
          "indexed": false,
          "internalType": "address",
          "name": "verifier",
          "type": "address"
        }
      ],
      "name": "MetricVerified",
      "type": "event"
    },
    {
      "inputs": [
        {
          "internalType": "uint256",
          "name": "_productId",
          "type": "uint256"
        },
        {
          "internalType": "string",
          "name": "_metricType",
          "type": "string"
        },
        {
          "internalType": "uint256",
          "name": "_value",
          "type": "uint256"
        },
        {
          "internalType": "string",
          "name": "_unit",
          "type": "string"
        },
        {
          "internalType": "string",
          "name": "_methodology",
          "type": "string"
        },
        {
          "internalType": "string",
          "name": "_metadata",
          "type": "string"
        }
      ],
      "name": "recordMetric",
      "outputs": [
        {
          "internalType": "uint256",
          "name": "",
          "type": "uint256"
        }
      ],
      "stateMutability": "nonpayable",
      "type": "function"
    },
    {
      "inputs": [
        {
          "internalType": "uint256",
          "name": "_metricId",
          "type": "uint256"
        },
        {
          "internalType": "uint256",
          "name": "_value",
          "type": "uint256"
        },
        {
          "internalType": "string",
          "name": "_methodology",
          "type": "string"
        },
        {
          "internalType": "string",
          "name": "_metadata",
          "type": "string"
        }
      ],
      "name": "updateMetric",
      "outputs": [],
      "stateMutability": "nonpayable",
      "type": "function"
    },
    {
      "inputs": [
        {
          "internalType": "uint256",
          "name": "_metricId",
          "type": "uint256"
        }
      ],
      "name": "verifyMetric",
      "outputs": [],
      "stateMutability": "nonpayable",
      "type": "function"
    },
    {
      "inputs": [
        {
          "internalType": "uint256",
          "name": "_metricId",
          "type": "uint256"
        }
      ],
      "name": "getMetric",
      "outputs": [
        {
          "internalType": "uint256",
          "name": "metricId",
          "type": "uint256"
        },
        {
          "internalType": "uint256",
          "name": "productId",
          "type": "uint256"
        },
        {
          "internalType": "address",
          "name": "reporter",
          "type": "address"
        },
        {
          "internalType": "string",
          "name": "metricType",
          "type": "string"
        },
        {
          "internalType": "uint256",
          "name": "value",
          "type": "uint256"
        },
        {
          "internalType": "string",
          "name": "unit",
          "type": "string"
        },
        {
          "internalType": "string",
          "name": "methodology",
          "type": "string"
        },
        {
          "internalType": "uint256",
          "name": "timestamp",
          "type": "uint256"
        },
        {
          "internalType": "string",
          "name": "metadata",
          "type": "string"
        }
      ],
      "stateMutability": "view",
      "type": "function"
    },
    {
      "inputs": [
        {
          "internalType": "uint256",
          "name": "_productId",
          "type": "uint256"
        }
      ],
      "name": "getProductMetrics",
      "outputs": [
        {
          "internalType": "uint256[]",
          "name": "",
          "type": "uint256[]"
        }
      ],
      "stateMutability": "view",
      "type": "function"
    },
    {
      "inputs": [
        {
          "internalType": "address",
          "name": "_reporter",
          "type": "address"
        }
      ],
      "name": "getReporterMetrics",
      "outputs": [
        {
          "internalType": "uint256[]",
          "name": "",
          "type": "uint256[]"
        }
      ],
      "stateMutability": "view",
      "type": "function"
    },
    {
      "inputs": [
        {
          "internalType": "string",
          "name": "_metricType",
          "type": "string"
        }
      ],
      "name": "getTypeMetrics",
      "outputs": [
        {
          "internalType": "uint256[]",
          "name": "",
          "type": "uint256[]"
        }
      ],
      "stateMutability": "view",
      "type": "function"
    }
  ],
  "bytecode": "0x608060405234801561000f575f80fd5b506118158061001d5f395ff3fe608060405234801561000f575f80fd5b506004361061007b575f3560e01c806396a5897f1161005957806396a5897f14610103578063ba6725261461011f578063ceba6d6f1461014f578063f5a09b871461017f5761007b565b80633fc676091461007f578063582bd8f1146100af5780635839ed8f146100e7575b5f80fd5b61009960048036038101906100949190610c41565b6101af565b6040516100a69190610d2c565b60405180910390f35b6100c960048036038101906100c49190610d76565b610242565b6040516100de99989796959493929190610e49565b60405180910390f35b61010160048036038101906100fc919061101c565b6105ce565b005b61011d60048036038101906101189190610d76565b610736565b005b610139600480360381019061013491906110b8565b6107c8565b6040516101469190610d2c565b60405180910390f35b61016960048036038101906101649190610d76565b61083c565b6040516101769190610d2c565b60405180910390f35b610199600480360381019061019491906110ff565b6108a3565b6040516101a691906111f8565b60405180910390f35b606060035f8373ffffffffffffffffffffffffffffffffffffffff1673ffffffffffffffffffffffffffffffffffffffff1681526020019081526020015f2080548060200260200160405190810160405280929190818152602001828054801561023657602002820191905f5260205f20905b815481526020019060010190808311610222575b50505050509050919050565b5f805f60605f6060805f6060895f60015f8381526020019081526020015f205f0154036102a4576040517f08c379a000000000000000000000000000000000000000000000000000000000815260040161029b9061125b565b60405180910390fd5b5f60015f8d81526020019081526020015f20604051806101200160405290815f820154815260200160018201548152602001600282015f9054906101000a900473ffffffffffffffffffffffffffffffffffffffff1673ffffffffffffffffffffffffffffffffffffffff1673ffffffffffffffffffffffffffffffffffffffff16815260200160038201805461033a906112a6565b80601f0160208091040260200160405190810160405280929190818152602001828054610366906112a6565b80156103b15780601f10610388576101008083540402835291602001916103b1565b820191905f5260205f20905b81548152906001019060200180831161039457829003601f168201915b50505050508152602001600482015481526020016005820180546103d4906112a6565b80601f0160208091040260200160405190810160405280929190818152602001828054610400906112a6565b801561044b5780601f106104225761010080835404028352916020019161044b565b820191905f5260205f20905b81548152906001019060200180831161042e57829003601f168201915b50505050508152602001600682018054610464906112a6565b80601f0160208091040260200160405190810160405280929190818152602001828054610490906112a6565b80156104db5780601f106104b2576101008083540402835291602001916104db565b820191905f5260205f20905b8154815290600101906020018083116104be57829003601f168201915b50505050508152602001600782015481526020016008820180546104fe906112a6565b80601f016020809104026020016040519081016040528092919081815260200182805461052a906112a6565b80156105755780601f1061054c57610100808354040283529160200191610575565b820191905f5260205f20905b81548152906001019060200180831161055857829003601f168201915b5050505050815250509050805f015181602001518260400151836060015184608001518560a001518660c001518760e001518861010001519a509a509a509a509a509a509a509a509a5050509193959799909294969850565b835f60015f8381526020019081526020015f205f015403610624576040517f08c379a000000000000000000000000000000000000000000000000000000000815260040161061b9061125b565b60405180910390fd5b5f60015f8781526020019081526020015f2090503373ffffffffffffffffffffffffffffffffffffffff16816002015f9054906101000a900473ffffffffffffffffffffffffffffffffffffffff1673ffffffffffffffffffffffffffffffffffffffff16146106c9576040517f08c379a00000000000000000000000000000000000000000000000000000000081526004016106c090611320565b60405180910390fd5b848160040181905550838160060190816106e391906114db565b50828160080190816106f591906114db565b50857f15711b5ee0ad41d7ffec5177341fb8e7f15af6068f90049e7d78998e81eb71528660405161072691906111f8565b60405180910390a2505050505050565b805f60015f8381526020019081526020015f205f01540361078c576040517f08c379a00000000000000000000000000000000000000000000000000000000081526004016107839061125b565b60405180910390fd5b817fb84f253dee94b13dca6750497c6598c7150d78cfdda2cc0f0245db1b4bcd5f5f336040516107bc91906115aa565b60405180910390a25050565b60606004826040516107da91906115fd565b908152602001604051809103902080548060200260200160405190810160405280929190818152602001828054801561083057602002820191905f5260205f20905b81548152602001906001019080831161081c575b50505050509050919050565b606060025f8381526020019081526020015f2080548060200260200160405190810160405280929190818152602001828054801561089757602002820191905f5260205f20905b815481526020019060010190808311610883575b50505050509050919050565b5f808651116108e7576040517f08c379a00000000000000000000000000000000000000000000000000000000081526004016108de9061165d565b60405180910390fd5b5f84511161092a576040517f08c379a0000000000000000000000000000000000000000000000000000000008152600401610921906116c5565b60405180910390fd5b5f83511161096d576040517f08c379a00000000000000000000000000000000000000000000000000000000081526004016109649061172d565b60405180910390fd5b5f8081548092919061097e90611778565b91905055505f805490506040518061012001604052808281526020018981526020013373ffffffffffffffffffffffffffffffffffffffff1681526020018881526020018781526020018681526020018581526020014281526020018481525060015f8381526020019081526020015f205f820151815f0155602082015181600101556040820151816002015f6101000a81548173ffffffffffffffffffffffffffffffffffffffff021916908373ffffffffffffffffffffffffffffffffffffffff1602179055506060820151816003019081610a5c91906114db565b506080820151816004015560a0820151816005019081610a7c91906114db565b5060c0820151816006019081610a9291906114db565b5060e08201518160070155610100820151816008019081610ab391906114db565b5090505060025f8981526020019081526020015f2081908060018154018082558091505060019003905f5260205f20015f909190919091505560035f3373ffffffffffffffffffffffffffffffffffffffff1673ffffffffffffffffffffffffffffffffffffffff1681526020019081526020015f2081908060018154018082558091505060019003905f5260205f20015f9091909190915055600487604051610b5d91906115fd565b908152602001604051809103902081908060018154018082558091505060019003905f5260205f20015f909190919091505587817f9b828a64c056c0bcc69dbfa5b2cbc9edbd8018fb94e6e18e19a0841fdb832c9989604051610bc091906117bf565b60405180910390a3809150509695505050505050565b5f604051905090565b5f80fd5b5f80fd5b5f73ffffffffffffffffffffffffffffffffffffffff82169050919050565b5f610c1082610be7565b9050919050565b610c2081610c06565b8114610c2a575f80fd5b50565b5f81359050610c3b81610c17565b92915050565b5f60208284031215610c5657610c55610bdf565b5b5f610c6384828501610c2d565b91505092915050565b5f81519050919050565b5f82825260208201905092915050565b5f819050602082019050919050565b5f819050919050565b610ca781610c95565b82525050565b5f610cb88383610c9e565b60208301905092915050565b5f602082019050919050565b5f610cda82610c6c565b610ce48185610c76565b9350610cef83610c86565b805f5b83811015610d1f578151610d068882610cad565b9750610d1183610cc4565b925050600181019050610cf2565b5085935050505092915050565b5f6020820190508181035f830152610d448184610cd0565b905092915050565b610d5581610c95565b8114610d5f575f80fd5b50565b5f81359050610d7081610d4c565b92915050565b5f60208284031215610d8b57610d8a610bdf565b5b5f610d9884828501610d62565b91505092915050565b610daa81610c95565b82525050565b610db981610c06565b82525050565b5f81519050919050565b5f82825260208201905092915050565b5f5b83811015610df6578082015181840152602081019050610ddb565b5f8484015250505050565b5f601f19601f8301169050919050565b5f610e1b82610dbf565b610e258185610dc9565b9350610e35818560208601610dd9565b610e3e81610e01565b840191505092915050565b5f61012082019050610e5d5f83018c610da1565b610e6a602083018b610da1565b610e77604083018a610db0565b8181036060830152610e898189610e11565b9050610e986080830188610da1565b81810360a0830152610eaa8187610e11565b905081810360c0830152610ebe8186610e11565b9050610ecd60e0830185610da1565b818103610100830152610ee08184610e11565b90509a9950505050505050505050565b5f80fd5b5f80fd5b7f4e487b71000000000000000000000000000000000000000000000000000000005f52604160045260245ffd5b610f2e82610e01565b810181811067ffffffffffffffff82111715610f4d57610f4c610ef8565b5b80604052505050565b5f610f5f610bd6565b9050610f6b8282610f25565b919050565b5f67ffffffffffffffff821115610f8a57610f89610ef8565b5b610f9382610e01565b9050602081019050919050565b828183375f83830152505050565b5f610fc0610fbb84610f70565b610f56565b905082815260208101848484011115610fdc57610fdb610ef4565b5b610fe7848285610fa0565b509392505050565b5f82601f83011261100357611002610ef0565b5b8135611013848260208601610fae565b91505092915050565b5f805f806080858703121561103457611033610bdf565b5b5f61104187828801610d62565b945050602061105287828801610d62565b935050604085013567ffffffffffffffff81111561107357611072610be3565b5b61107f87828801610fef565b925050606085013567ffffffffffffffff8111156110a05761109f610be3565b5b6110ac87828801610fef565b91505092959194509250565b5f602082840312156110cd576110cc610bdf565b5b5f82013567ffffffffffffffff8111156110ea576110e9610be3565b5b6110f684828501610fef565b91505092915050565b5f805f805f8060c0878903121561111957611118610bdf565b5b5f61112689828a01610d62565b965050602087013567ffffffffffffffff81111561114757611146610be3565b5b61115389828a01610fef565b955050604061116489828a01610d62565b945050606087013567ffffffffffffffff81111561118557611184610be3565b5b61119189828a01610fef565b935050608087013567ffffffffffffffff8111156111b2576111b1610be3565b5b6111be89828a01610fef565b92505060a087013567ffffffffffffffff8111156111df576111de610be3565b5b6111eb89828a01610fef565b9150509295509295509295565b5f60208201905061120b5f830184610da1565b92915050565b7f4d657472696320646f6573206e6f7420657869737400000000000000000000005f82015250565b5f611245601583610dc9565b915061125082611211565b602082019050919050565b5f6020820190508181035f83015261127281611239565b9050919050565b7f4e487b71000000000000000000000000000000000000000000000000000000005f52602260045260245ffd5b5f60028204905060018216806112bd57607f821691505b6020821081036112d0576112cf611279565b5b50919050565b7f4f6e6c79207265706f727465722063616e20757064617465206d6574726963005f82015250565b5f61130a601f83610dc9565b9150611315826112d6565b602082019050919050565b5f6020820190508181035f830152611337816112fe565b9050919050565b5f819050815f5260205f209050919050565b5f6020601f8301049050919050565b5f82821b905092915050565b5f6008830261139a7fffffffffffffffffffffffffffffffffffffffffffffffffffffffffffffffff8261135f565b6113a4868361135f565b95508019841693508086168417925050509392505050565b5f819050919050565b5f6113df6113da6113d584610c95565b6113bc565b610c95565b9050919050565b5f819050919050565b6113f8836113c5565b61140c611404826113e6565b84845461136b565b825550505050565b5f90565b611420611414565b61142b8184846113ef565b505050565b5b8181101561144e576114435f82611418565b600181019050611431565b5050565b601f821115611493576114648161133e565b61146d84611350565b8101602085101561147c578190505b61149061148885611350565b830182611430565b50505b505050565b5f82821c905092915050565b5f6114b35f1984600802611498565b1980831691505092915050565b5f6114cb83836114a4565b9150826002028217905092915050565b6114e482610dbf565b67ffffffffffffffff8111156114fd576114fc610ef8565b5b61150782546112a6565b611512828285611452565b5f60209050601f831160018114611543575f8415611531578287015190505b61153b85826114c0565b8655506115a2565b601f1984166115518661133e565b5f5b8281101561157857848901518255600182019150602085019450602081019050611553565b868310156115955784890151611591601f8916826114a4565b8355505b6001600288020188555050505b505050505050565b5f6020820190506115bd5f830184610db0565b92915050565b5f81905092915050565b5f6115d782610dbf565b6115e181856115c3565b93506115f1818560208601610dd9565b80840191505092915050565b5f61160882846115cd565b915081905092915050565b7f4d657472696320747970652063616e6e6f7420626520656d70747900000000005f82015250565b5f611647601b83610dc9565b915061165282611613565b602082019050919050565b5f6020820190508181035f8301526116748161163b565b9050919050565b7f556e69742063616e6e6f7420626520656d7074790000000000000000000000005f82015250565b5f6116af601483610dc9565b91506116ba8261167b565b602082019050919050565b5f6020820190508181035f8301526116dc816116a3565b9050919050565b7f4d6574686f646f6c6f67792063616e6e6f7420626520656d70747900000000005f82015250565b5f611717601b83610dc9565b9150611722826116e3565b602082019050919050565b5f6020820190508181035f8301526117448161170b565b9050919050565b7f4e487b71000000000000000000000000000000000000000000000000000000005f52601160045260245ffd5b5f61178282610c95565b91507fffffffffffffffffffffffffffffffffffffffffffffffffffffffffffffffff82036117b4576117b361174b565b5b600182019050919050565b5f6020820190508181035f8301526117d78184610e11565b90509291505056fea2646970667358221220559d4296706543c97ad5b15c4e6804d08c2d5481150f479d5266e8918e56e0ee64736f6c63430008140033",
  "immutableReferences": {},
  "source": "// SPDX-License-Identifier: MIT\r\npragma solidity ^0.8.0;\r\n\r\ncontract SustainabilityMetrics {\r\n    struct Metric {\r\n        uint256 metricId;\r\n        uint256 productId;\r\n        address reporter;\r\n        string metricType; // \"CARBON_FOOTPRINT\", \"WATER_USAGE\", \"ENERGY_CONSUMPTION\", \"WASTE_REDUCTION\"\r\n        uint256 value;\r\n        string unit;\r\n        string methodology;\r\n        uint256 timestamp;\r\n        string metadata; // Dettagli aggiuntivi sulla metodologia, certificazioni, etc.\r\n    }\r\n\r\n    uint256 private metricCounter;\r\n    mapping(uint256 => Metric) private metrics;\r\n    mapping(uint256 => uint256[]) private productMetrics;\r\n    mapping(address => uint256[]) private reporterMetrics;\r\n    mapping(string => uint256[]) private typeMetrics;\r\n\r\n    event MetricRecorded(uint256 indexed metricId, uint256 indexed productId, string metricType);\r\n    event MetricUpdated(uint256 indexed metricId, uint256 newValue);\r\n    event MetricVerified(uint256 indexed metricId, address verifier);\r\n\r\n    modifier validMetric(uint256 _metricId) {\r\n        require(metrics[_metricId].metricId != 0, \"Metric does not exist\");\r\n        _;\r\n    }\r\n\r\n    function recordMetric(\r\n        uint256 _productId,\r\n        string memory _metricType,\r\n        uint256 _value,\r\n        string memory _unit,\r\n        string memory _methodology,\r\n        string memory _metadata\r\n    ) external returns (uint256) {\r\n        require(bytes(_metricType).length > 0, \"Metric type cannot be empty\");\r\n        require(bytes(_unit).length > 0, \"Unit cannot be empty\");\r\n        require(bytes(_methodology).length > 0, \"Methodology cannot be empty\");\r\n\r\n        metricCounter++;\r\n        uint256 metricId = metricCounter;\r\n\r\n        metrics[metricId] = Metric({\r\n            metricId: metricId,\r\n            productId: _productId,\r\n            reporter: msg.sender,\r\n            metricType: _metricType,\r\n            value: _value,\r\n            unit: _unit,\r\n            methodology: _methodology,\r\n            timestamp: block.timestamp,\r\n            metadata: _metadata\r\n        });\r\n\r\n        productMetrics[_productId].push(metricId);\r\n        reporterMetrics[msg.sender].push(metricId);\r\n        typeMetrics[_metricType].push(metricId);\r\n\r\n        emit MetricRecorded(metricId, _productId, _metricType);\r\n        return metricId;\r\n    }\r\n\r\n    function updateMetric(\r\n        uint256 _metricId,\r\n        uint256 _value,\r\n        string memory _methodology,\r\n        string memory _metadata\r\n    ) external validMetric(_metricId) {\r\n        Metric storage metric = metrics[_metricId];\r\n        require(metric.reporter == msg.sender, \"Only reporter can update metric\");\r\n\r\n        metric.value = _value;\r\n        metric.methodology = _methodology;\r\n        metric.metadata = _metadata;\r\n\r\n        emit MetricUpdated(_metricId, _value);\r\n    }\r\n\r\n    function verifyMetric(uint256 _metricId) external validMetric(_metricId) {\r\n        emit MetricVerified(_metricId, msg.sender);\r\n    }\r\n\r\n    function getMetric(uint256 _metricId) external view validMetric(_metricId) returns (\r\n        uint256 metricId,\r\n        uint256 productId,\r\n        address reporter,\r\n        string memory metricType,\r\n        uint256 value,\r\n        string memory unit,\r\n        string memory methodology,\r\n        uint256 timestamp,\r\n        string memory metadata\r\n    ) {\r\n        Metric memory metric = metrics[_metricId];\r\n        return (\r\n            metric.metricId,\r\n            metric.productId,\r\n            metric.reporter,\r\n            metric.metricType,\r\n            metric.value,\r\n            metric.unit,\r\n            metric.methodology,\r\n            metric.timestamp,\r\n            metric.metadata\r\n        );\r\n    }\r\n\r\n    function getProductMetrics(uint256 _productId) external view returns (uint256[] memory) {\r\n        return productMetrics[_productId];\r\n    }\r\n\r\n    function getReporterMetrics(address _reporter) external view returns (uint256[] memory) {\r\n        return reporterMetrics[_reporter];\r\n    }\r\n\r\n    function getTypeMetrics(string memory _metricType) external view returns (uint256[] memory) {\r\n        return typeMetrics[_metricType];\r\n    }\r\n} ",
  "sourcePath": "/app/contracts/SustainabilityMetrics.sol",
  "compiler": {
    "name": "solc",
    "version": "0.8.20+commit.a1b79de6.Emscripten.clang"
  },
  "schemaVersion": "3.4.16",
  "updatedAt": "2025-05-16T10:06:43.390Z",
  "devdoc": {
    "kind": "dev",
    "methods": {},
    "version": 1
  },
  "userdoc": {
    "kind": "user",
    "methods": {},
    "version": 1
  }
}